{
  "_format": "hh-sol-artifact-1",
  "contractName": "FraktalFactory",
  "sourceName": "contracts/FraktalFactory.sol",
  "abi": [
    {
      "inputs": [
        {
          "internalType": "address",
          "name": "_implementation",
          "type": "address"
        },
        {
          "internalType": "address",
          "name": "_revenueChannelImplementation",
          "type": "address"
        }
      ],
      "stateMutability": "nonpayable",
      "type": "constructor"
    },
    {
      "anonymous": false,
      "inputs": [
        {
          "indexed": false,
          "internalType": "address",
          "name": "locker",
          "type": "address"
        },
        {
          "indexed": false,
          "internalType": "address",
          "name": "tokenAddress",
          "type": "address"
        },
        {
          "indexed": false,
          "internalType": "address",
          "name": "fraktal",
          "type": "address"
        },
        {
          "indexed": false,
          "internalType": "uint256",
          "name": "tokenId",
          "type": "uint256"
        }
      ],
      "name": "ERC1155Locked",
      "type": "event"
    },
    {
      "anonymous": false,
      "inputs": [
        {
          "indexed": false,
          "internalType": "address",
          "name": "owner",
          "type": "address"
        },
        {
          "indexed": false,
          "internalType": "address",
          "name": "tokenAddress",
          "type": "address"
        },
        {
          "indexed": false,
          "internalType": "address",
          "name": "collateralNft",
          "type": "address"
        },
        {
          "indexed": false,
          "internalType": "uint256",
          "name": "index",
          "type": "uint256"
        }
      ],
      "name": "ERC1155UnLocked",
      "type": "event"
    },
    {
      "anonymous": false,
      "inputs": [
        {
          "indexed": false,
          "internalType": "address",
          "name": "locker",
          "type": "address"
        },
        {
          "indexed": false,
          "internalType": "address",
          "name": "tokenAddress",
          "type": "address"
        },
        {
          "indexed": false,
          "internalType": "address",
          "name": "fraktal",
          "type": "address"
        },
        {
          "indexed": false,
          "internalType": "uint256",
          "name": "tokenId",
          "type": "uint256"
        }
      ],
      "name": "ERC721Locked",
      "type": "event"
    },
    {
      "anonymous": false,
      "inputs": [
        {
          "indexed": false,
          "internalType": "address",
          "name": "owner",
          "type": "address"
        },
        {
          "indexed": false,
          "internalType": "uint256",
          "name": "tokenId",
          "type": "uint256"
        },
        {
          "indexed": false,
          "internalType": "address",
          "name": "collateralNft",
          "type": "address"
        },
        {
          "indexed": false,
          "internalType": "uint256",
          "name": "index",
          "type": "uint256"
        }
      ],
      "name": "ERC721UnLocked",
      "type": "event"
    },
    {
      "anonymous": false,
      "inputs": [
        {
          "indexed": false,
          "internalType": "address",
          "name": "_newAddress",
          "type": "address"
        }
      ],
      "name": "FraktalProtocolUpgraded",
      "type": "event"
    },
    {
      "anonymous": false,
      "inputs": [
        {
          "indexed": false,
          "internalType": "address",
          "name": "creator",
          "type": "address"
        },
        {
          "indexed": false,
          "internalType": "string",
          "name": "urlIpfs",
          "type": "string"
        },
        {
          "indexed": false,
          "internalType": "address",
          "name": "tokenAddress",
          "type": "address"
        },
        {
          "indexed": false,
          "internalType": "uint256",
          "name": "nftId",
          "type": "uint256"
        }
      ],
      "name": "Minted",
      "type": "event"
    },
    {
      "anonymous": false,
      "inputs": [
        {
          "indexed": true,
          "internalType": "address",
          "name": "previousOwner",
          "type": "address"
        },
        {
          "indexed": true,
          "internalType": "address",
          "name": "newOwner",
          "type": "address"
        }
      ],
      "name": "OwnershipTransferred",
      "type": "event"
    },
    {
      "anonymous": false,
      "inputs": [
        {
          "indexed": false,
          "internalType": "address",
          "name": "_newAddress",
          "type": "address"
        }
      ],
      "name": "RevenuesProtocolUpgraded",
      "type": "event"
    },
    {
      "inputs": [],
      "name": "Fraktalimplementation",
      "outputs": [
        {
          "internalType": "address",
          "name": "",
          "type": "address"
        }
      ],
      "stateMutability": "view",
      "type": "function"
    },
    {
      "inputs": [
        {
          "internalType": "uint256",
          "name": "_tokenId",
          "type": "uint256"
        }
      ],
      "name": "claimERC1155",
      "outputs": [],
      "stateMutability": "nonpayable",
      "type": "function"
    },
    {
      "inputs": [
        {
          "internalType": "uint256",
          "name": "_tokenId",
          "type": "uint256"
        }
      ],
      "name": "claimERC721",
      "outputs": [],
      "stateMutability": "nonpayable",
      "type": "function"
    },
    {
      "inputs": [
        {
          "internalType": "address",
          "name": "_tokenAddress",
          "type": "address"
        }
      ],
      "name": "getERC1155Collateral",
      "outputs": [
        {
          "internalType": "address",
          "name": "",
          "type": "address"
        }
      ],
      "stateMutability": "view",
      "type": "function"
    },
    {
      "inputs": [
        {
          "internalType": "address",
          "name": "_tokenAddress",
          "type": "address"
        }
      ],
      "name": "getERC721Collateral",
      "outputs": [
        {
          "internalType": "address",
          "name": "",
          "type": "address"
        }
      ],
      "stateMutability": "view",
      "type": "function"
    },
    {
      "inputs": [
        {
          "internalType": "uint256",
          "name": "_tokenId",
          "type": "uint256"
        }
      ],
      "name": "getFraktalAddress",
      "outputs": [
        {
          "internalType": "address",
          "name": "",
          "type": "address"
        }
      ],
      "stateMutability": "view",
      "type": "function"
    },
    {
      "inputs": [],
      "name": "getFraktalsLength",
      "outputs": [
        {
          "internalType": "uint256",
          "name": "",
          "type": "uint256"
        }
      ],
      "stateMutability": "view",
      "type": "function"
    },
    {
      "inputs": [
        {
          "internalType": "address",
          "name": "_tokenAddress",
          "type": "address"
        },
        {
          "internalType": "uint256",
          "name": "_tokenId",
          "type": "uint256"
        },
        {
          "internalType": "uint16",
          "name": "majority",
          "type": "uint16"
        }
      ],
      "name": "importERC1155",
      "outputs": [
        {
          "internalType": "address",
          "name": "_clone",
          "type": "address"
        }
      ],
      "stateMutability": "nonpayable",
      "type": "function"
    },
    {
      "inputs": [
        {
          "internalType": "address",
          "name": "_tokenAddress",
          "type": "address"
        },
        {
          "internalType": "uint256",
          "name": "_tokenId",
          "type": "uint256"
        },
        {
          "internalType": "uint16",
          "name": "majority",
          "type": "uint16"
        }
      ],
      "name": "importERC721",
      "outputs": [
        {
          "internalType": "address",
          "name": "_clone",
          "type": "address"
        }
      ],
      "stateMutability": "nonpayable",
      "type": "function"
    },
    {
      "inputs": [
        {
          "internalType": "address",
          "name": "",
          "type": "address"
        }
      ],
      "name": "lockedERC1155indexes",
      "outputs": [
        {
          "internalType": "uint256",
          "name": "",
          "type": "uint256"
        }
      ],
      "stateMutability": "view",
      "type": "function"
    },
    {
      "inputs": [
        {
          "internalType": "address",
          "name": "",
          "type": "address"
        }
      ],
      "name": "lockedERC1155s",
      "outputs": [
        {
          "internalType": "address",
          "name": "",
          "type": "address"
        }
      ],
      "stateMutability": "view",
      "type": "function"
    },
    {
      "inputs": [
        {
          "internalType": "address",
          "name": "",
          "type": "address"
        }
      ],
      "name": "lockedERC721indexes",
      "outputs": [
        {
          "internalType": "uint256",
          "name": "",
          "type": "uint256"
        }
      ],
      "stateMutability": "view",
      "type": "function"
    },
    {
      "inputs": [
        {
          "internalType": "address",
          "name": "",
          "type": "address"
        }
      ],
      "name": "lockedERC721s",
      "outputs": [
        {
          "internalType": "address",
          "name": "",
          "type": "address"
        }
      ],
      "stateMutability": "view",
      "type": "function"
    },
    {
      "inputs": [
        {
          "internalType": "string",
          "name": "urlIpfs",
          "type": "string"
        },
        {
          "internalType": "uint16",
          "name": "majority",
          "type": "uint16"
        }
      ],
      "name": "mint",
      "outputs": [
        {
          "internalType": "address",
          "name": "_clone",
          "type": "address"
        }
      ],
      "stateMutability": "nonpayable",
      "type": "function"
    },
    {
      "inputs": [
        {
          "internalType": "address",
          "name": "",
          "type": "address"
        },
        {
          "internalType": "address",
          "name": "",
          "type": "address"
        },
        {
          "internalType": "uint256[]",
          "name": "",
          "type": "uint256[]"
        },
        {
          "internalType": "uint256[]",
          "name": "",
          "type": "uint256[]"
        },
        {
          "internalType": "bytes",
          "name": "",
          "type": "bytes"
        }
      ],
      "name": "onERC1155BatchReceived",
      "outputs": [
        {
          "internalType": "bytes4",
          "name": "",
          "type": "bytes4"
        }
      ],
      "stateMutability": "nonpayable",
      "type": "function"
    },
    {
      "inputs": [
        {
          "internalType": "address",
          "name": "",
          "type": "address"
        },
        {
          "internalType": "address",
          "name": "",
          "type": "address"
        },
        {
          "internalType": "uint256",
          "name": "",
          "type": "uint256"
        },
        {
          "internalType": "uint256",
          "name": "",
          "type": "uint256"
        },
        {
          "internalType": "bytes",
          "name": "",
          "type": "bytes"
        }
      ],
      "name": "onERC1155Received",
      "outputs": [
        {
          "internalType": "bytes4",
          "name": "",
          "type": "bytes4"
        }
      ],
      "stateMutability": "nonpayable",
      "type": "function"
    },
    {
      "inputs": [
        {
          "internalType": "address",
          "name": "",
          "type": "address"
        },
        {
          "internalType": "address",
          "name": "",
          "type": "address"
        },
        {
          "internalType": "uint256",
          "name": "",
          "type": "uint256"
        },
        {
          "internalType": "bytes",
          "name": "",
          "type": "bytes"
        }
      ],
      "name": "onERC721Received",
      "outputs": [
        {
          "internalType": "bytes4",
          "name": "",
          "type": "bytes4"
        }
      ],
      "stateMutability": "nonpayable",
      "type": "function"
    },
    {
      "inputs": [],
      "name": "owner",
      "outputs": [
        {
          "internalType": "address",
          "name": "",
          "type": "address"
        }
      ],
      "stateMutability": "view",
      "type": "function"
    },
    {
      "inputs": [],
      "name": "renounceOwnership",
      "outputs": [],
      "stateMutability": "nonpayable",
      "type": "function"
    },
    {
      "inputs": [],
      "name": "revenueChannelImplementation",
      "outputs": [
        {
          "internalType": "address",
          "name": "",
          "type": "address"
        }
      ],
      "stateMutability": "view",
      "type": "function"
    },
    {
      "inputs": [
        {
          "internalType": "address",
          "name": "_newAddress",
          "type": "address"
        }
      ],
      "name": "setFraktalImplementation",
      "outputs": [],
      "stateMutability": "nonpayable",
      "type": "function"
    },
    {
      "inputs": [
        {
          "internalType": "address",
          "name": "_newAddress",
          "type": "address"
        }
      ],
      "name": "setRevenueImplementation",
      "outputs": [],
      "stateMutability": "nonpayable",
      "type": "function"
    },
    {
      "inputs": [
        {
          "internalType": "bytes4",
          "name": "interfaceId",
          "type": "bytes4"
        }
      ],
      "name": "supportsInterface",
      "outputs": [
        {
          "internalType": "bool",
          "name": "",
          "type": "bool"
        }
      ],
      "stateMutability": "view",
      "type": "function"
    },
    {
      "inputs": [
        {
          "internalType": "address",
          "name": "newOwner",
          "type": "address"
        }
      ],
      "name": "transferOwnership",
      "outputs": [],
      "stateMutability": "nonpayable",
      "type": "function"
    }
  ],
  "bytecode": "0x60806040523480156200001157600080fd5b5060405162002c1b38038062002c1b8339818101604052810190620000379190620001c4565b620000576200004b620000e160201b60201c565b620000e960201b60201c565b81600160006101000a81548173ffffffffffffffffffffffffffffffffffffffff021916908373ffffffffffffffffffffffffffffffffffffffff16021790555080600260006101000a81548173ffffffffffffffffffffffffffffffffffffffff021916908373ffffffffffffffffffffffffffffffffffffffff160217905550505062000253565b600033905090565b60008060009054906101000a900473ffffffffffffffffffffffffffffffffffffffff169050816000806101000a81548173ffffffffffffffffffffffffffffffffffffffff021916908373ffffffffffffffffffffffffffffffffffffffff1602179055508173ffffffffffffffffffffffffffffffffffffffff168173ffffffffffffffffffffffffffffffffffffffff167f8be0079c531659141344cd1fd0a4f28419497f9722a3daafe3b4186f6b6457e060405160405180910390a35050565b600081519050620001be8162000239565b92915050565b60008060408385031215620001d857600080fd5b6000620001e885828601620001ad565b9250506020620001fb85828601620001ad565b9150509250929050565b6000620002128262000219565b9050919050565b600073ffffffffffffffffffffffffffffffffffffffff82169050919050565b620002448162000205565b81146200025057600080fd5b50565b6129b880620002636000396000f3fe608060405234801561001057600080fd5b50600436106101585760003560e01c806392405709116100c3578063cf2b81131161007c578063cf2b811314610413578063d640b26514610443578063e0c061231461045f578063f185caea1461048f578063f23a6e61146104bf578063f2fde38b146104ef57610158565b8063924057091461032d578063a6b6918314610349578063a760d5df14610367578063af61bb2d14610383578063bc197c81146103b3578063c0a503b0146103e357610158565b806366b51e431161011557806366b51e431461027d5780636c2af3371461029b5780636f400aa0146102b9578063715018a6146102e957806384d7fbac146102f35780638da5cb5b1461030f57610158565b806301ffc9a71461015d578063150b7a021461018d5780631c272875146101bd5780633d846c72146101ed5780633f2eaea21461021d578063523722991461024d575b600080fd5b610177600480360381019061017291906120c3565b61050b565b604051610184919061251f565b60405180910390f35b6101a760048036038101906101a29190611f6a565b610585565b6040516101b4919061253a565b60405180910390f35b6101d760048036038101906101d29190611e59565b610599565b6040516101e49190612605565b60405180910390f35b61020760048036038101906102029190611e59565b6105b1565b60405161021491906122fb565b60405180910390f35b6102376004803603810190610232919061212d565b61061a565b60405161024491906122fb565b60405180910390f35b61026760048036038101906102629190612074565b610753565b60405161027491906122fb565b60405180910390f35b610285610a76565b60405161029291906122fb565b60405180910390f35b6102a3610a9c565b6040516102b091906122fb565b60405180910390f35b6102d360048036038101906102ce9190612181565b610ac2565b6040516102e091906122fb565b60405180910390f35b6102f1610adf565b005b61030d60048036038101906103089190611e59565b610b67565b005b610317610c5e565b60405161032491906122fb565b60405180910390f35b61034760048036038101906103429190611e59565b610c87565b005b610351610d7e565b60405161035e9190612605565b60405180910390f35b610381600480360381019061037c9190612181565b610d8f565b005b61039d60048036038101906103989190611e59565b611020565b6040516103aa9190612605565b60405180910390f35b6103cd60048036038101906103c89190611eab565b611038565b6040516103da919061253a565b60405180910390f35b6103fd60048036038101906103f89190611e59565b61104d565b60405161040a91906122fb565b60405180910390f35b61042d60048036038101906104289190611e59565b611080565b60405161043a91906122fb565b60405180910390f35b61045d60048036038101906104589190612181565b6110e9565b005b61047960048036038101906104749190612074565b61137d565b60405161048691906122fb565b60405180910390f35b6104a960048036038101906104a49190611e59565b61169d565b6040516104b691906122fb565b60405180910390f35b6104d960048036038101906104d49190611fe5565b6116d0565b6040516104e6919061253a565b60405180910390f35b61050960048036038101906105049190611e59565b6116e5565b005b60007f4e2312e0000000000000000000000000000000000000000000000000000000007bffffffffffffffffffffffffffffffffffffffffffffffffffffffff1916827bffffffffffffffffffffffffffffffffffffffffffffffffffffffff1916148061057e575061057d826117dd565b5b9050919050565b600063150b7a0260e01b9050949350505050565b60076020528060005260406000206000915090505481565b6000600660008373ffffffffffffffffffffffffffffffffffffffff1673ffffffffffffffffffffffffffffffffffffffff16815260200190815260200160002060009054906101000a900473ffffffffffffffffffffffffffffffffffffffff169050919050565b6000610647600160009054906101000a900473ffffffffffffffffffffffffffffffffffffffff16611847565b90508073ffffffffffffffffffffffffffffffffffffffff166316c116be61066d61191c565b600260009054906101000a900473ffffffffffffffffffffffffffffffffffffffff1686866040518563ffffffff1660e01b81526004016106b194939291906123b3565b600060405180830381600087803b1580156106cb57600080fd5b505af11580156106df573d6000803e3d6000fd5b5050505060006106ef6003611924565b9050610707818360036119399092919063ffffffff16565b507fe3862b7c63c125643c0131ecd040c6f66564d0ed4290bb47b5e8b51255915dfb61073161191c565b858484604051610744949392919061248e565b60405180910390a15092915050565b6000808473ffffffffffffffffffffffffffffffffffffffff16630e89341c856040518263ffffffff1660e01b815260040161078f9190612605565b60006040518083038186803b1580156107a757600080fd5b505afa1580156107bb573d6000803e3d6000fd5b505050506040513d6000823e3d601f19601f820116820180604052508101906107e491906120ec565b90508473ffffffffffffffffffffffffffffffffffffffff1663f242432a61080a61191c565b308760016040518563ffffffff1660e01b815260040161082d9493929190612436565b600060405180830381600087803b15801561084757600080fd5b505af115801561085b573d6000803e3d6000fd5b505050503073ffffffffffffffffffffffffffffffffffffffff16633f2eaea282856040518363ffffffff1660e01b815260040161089a929190612555565b602060405180830381600087803b1580156108b457600080fd5b505af11580156108c8573d6000803e3d6000fd5b505050506040513d601f19601f820116820180604052508101906108ec9190611e82565b915084600860008473ffffffffffffffffffffffffffffffffffffffff1673ffffffffffffffffffffffffffffffffffffffff16815260200190815260200160002060006101000a81548173ffffffffffffffffffffffffffffffffffffffff021916908373ffffffffffffffffffffffffffffffffffffffff16021790555083600960008773ffffffffffffffffffffffffffffffffffffffff1673ffffffffffffffffffffffffffffffffffffffff168152602001908152602001600020819055508173ffffffffffffffffffffffffffffffffffffffff1663f242432a306109d561191c565b600060016040518563ffffffff1660e01b81526004016109f8949392919061235b565b600060405180830381600087803b158015610a1257600080fd5b505af1158015610a26573d6000803e3d6000fd5b505050507fe5862c0090ff96adbf1d020b73b53ef576c38d3dea0a61c31f5132a9ddf03961610a5361191c565b868487604051610a669493929190612316565b60405180910390a1509392505050565b600160009054906101000a900473ffffffffffffffffffffffffffffffffffffffff1681565b600260009054906101000a900473ffffffffffffffffffffffffffffffffffffffff1681565b6000610ad882600361196e90919063ffffffff16565b9050919050565b610ae761191c565b73ffffffffffffffffffffffffffffffffffffffff16610b05610c5e565b73ffffffffffffffffffffffffffffffffffffffff1614610b5b576040517f08c379a0000000000000000000000000000000000000000000000000000000008152600401610b52906125c5565b60405180910390fd5b610b65600061198b565b565b610b6f61191c565b73ffffffffffffffffffffffffffffffffffffffff16610b8d610c5e565b73ffffffffffffffffffffffffffffffffffffffff1614610be3576040517f08c379a0000000000000000000000000000000000000000000000000000000008152600401610bda906125c5565b60405180910390fd5b80600260006101000a81548173ffffffffffffffffffffffffffffffffffffffff021916908373ffffffffffffffffffffffffffffffffffffffff1602179055507f52e899cbbf4033a6a1db59589f534d1dd424dcbebeb3c328250e2f4476cc711881604051610c5391906122fb565b60405180910390a150565b60008060009054906101000a900473ffffffffffffffffffffffffffffffffffffffff16905090565b610c8f61191c565b73ffffffffffffffffffffffffffffffffffffffff16610cad610c5e565b73ffffffffffffffffffffffffffffffffffffffff1614610d03576040517f08c379a0000000000000000000000000000000000000000000000000000000008152600401610cfa906125c5565b60405180910390fd5b80600160006101000a81548173ffffffffffffffffffffffffffffffffffffffff021916908373ffffffffffffffffffffffffffffffffffffffff1602179055507fe7357ddcec9a51006ef60d07506b9c06320424061f60526a0e372f6b263112ff81604051610d7391906122fb565b60405180910390a150565b6000610d8a6003611924565b905090565b6000610da582600361196e90919063ffffffff16565b90506000600660008373ffffffffffffffffffffffffffffffffffffffff1673ffffffffffffffffffffffffffffffffffffffff16815260200190815260200160002060009054906101000a900473ffffffffffffffffffffffffffffffffffffffff1690506000600760008373ffffffffffffffffffffffffffffffffffffffff1673ffffffffffffffffffffffffffffffffffffffff1681526020019081526020016000205490508173ffffffffffffffffffffffffffffffffffffffff166323b872dd30610e7461191c565b846040518463ffffffff1660e01b8152600401610e93939291906123ff565b600060405180830381600087803b158015610ead57600080fd5b505af1158015610ec1573d6000803e3d6000fd5b505050508273ffffffffffffffffffffffffffffffffffffffff1663f242432a610ee961191c565b30600060016040518563ffffffff1660e01b8152600401610f0d949392919061235b565b600060405180830381600087803b158015610f2757600080fd5b505af1158015610f3b573d6000803e3d6000fd5b50505050610f5684600060036119399092919063ffffffff16565b506000600660008573ffffffffffffffffffffffffffffffffffffffff1673ffffffffffffffffffffffffffffffffffffffff16815260200190815260200160002060006101000a81548173ffffffffffffffffffffffffffffffffffffffff021916908373ffffffffffffffffffffffffffffffffffffffff1602179055507fe9908e5b81dc613017d215aab15f0dd7300c5f001b60d71a5bb1528a53efa004610fff61191c565b85848460405161101294939291906124da565b60405180910390a150505050565b60096020528060005260406000206000915090505481565b600063bc197c8160e01b905095945050505050565b60086020528060005260406000206000915054906101000a900473ffffffffffffffffffffffffffffffffffffffff1681565b6000600860008373ffffffffffffffffffffffffffffffffffffffff1673ffffffffffffffffffffffffffffffffffffffff16815260200190815260200160002060009054906101000a900473ffffffffffffffffffffffffffffffffffffffff169050919050565b60006110ff82600361196e90919063ffffffff16565b90506000600860008373ffffffffffffffffffffffffffffffffffffffff1673ffffffffffffffffffffffffffffffffffffffff16815260200190815260200160002060009054906101000a900473ffffffffffffffffffffffffffffffffffffffff1690506000600960008373ffffffffffffffffffffffffffffffffffffffff1673ffffffffffffffffffffffffffffffffffffffff1681526020019081526020016000205490508173ffffffffffffffffffffffffffffffffffffffff1663f242432a306111ce61191c565b8460016040518563ffffffff1660e01b81526004016111f09493929190612436565b600060405180830381600087803b15801561120a57600080fd5b505af115801561121e573d6000803e3d6000fd5b505050508273ffffffffffffffffffffffffffffffffffffffff1663f242432a61124661191c565b30600060016040518563ffffffff1660e01b815260040161126a949392919061235b565b600060405180830381600087803b15801561128457600080fd5b505af1158015611298573d6000803e3d6000fd5b505050506112b384600060036119399092919063ffffffff16565b506000600860008573ffffffffffffffffffffffffffffffffffffffff1673ffffffffffffffffffffffffffffffffffffffff16815260200190815260200160002060006101000a81548173ffffffffffffffffffffffffffffffffffffffff021916908373ffffffffffffffffffffffffffffffffffffffff1602179055507ff36655deeece5c6264b7dec64397f8f9bd042d59efd7760ded9c9c6bfe4ee09661135c61191c565b84848760405161136f9493929190612316565b60405180910390a150505050565b6000808473ffffffffffffffffffffffffffffffffffffffff1663c87b56dd856040518263ffffffff1660e01b81526004016113b99190612605565b60006040518083038186803b1580156113d157600080fd5b505afa1580156113e5573d6000803e3d6000fd5b505050506040513d6000823e3d601f19601f8201168201806040525081019061140e91906120ec565b90508473ffffffffffffffffffffffffffffffffffffffff166323b872dd61143461191c565b30876040518463ffffffff1660e01b8152600401611454939291906123ff565b600060405180830381600087803b15801561146e57600080fd5b505af1158015611482573d6000803e3d6000fd5b505050503073ffffffffffffffffffffffffffffffffffffffff16633f2eaea282856040518363ffffffff1660e01b81526004016114c1929190612555565b602060405180830381600087803b1580156114db57600080fd5b505af11580156114ef573d6000803e3d6000fd5b505050506040513d601f19601f820116820180604052508101906115139190611e82565b915084600660008473ffffffffffffffffffffffffffffffffffffffff1673ffffffffffffffffffffffffffffffffffffffff16815260200190815260200160002060006101000a81548173ffffffffffffffffffffffffffffffffffffffff021916908373ffffffffffffffffffffffffffffffffffffffff16021790555083600760008773ffffffffffffffffffffffffffffffffffffffff1673ffffffffffffffffffffffffffffffffffffffff168152602001908152602001600020819055508173ffffffffffffffffffffffffffffffffffffffff1663f242432a306115fc61191c565b600060016040518563ffffffff1660e01b815260040161161f949392919061235b565b600060405180830381600087803b15801561163957600080fd5b505af115801561164d573d6000803e3d6000fd5b505050507faf1310e955d21faff58e9394290c1bb4181044f11bf8e752f6f3e13739ce2c1161167a61191c565b86848760405161168d9493929190612316565b60405180910390a1509392505050565b60066020528060005260406000206000915054906101000a900473ffffffffffffffffffffffffffffffffffffffff1681565b600063f23a6e6160e01b905095945050505050565b6116ed61191c565b73ffffffffffffffffffffffffffffffffffffffff1661170b610c5e565b73ffffffffffffffffffffffffffffffffffffffff1614611761576040517f08c379a0000000000000000000000000000000000000000000000000000000008152600401611758906125c5565b60405180910390fd5b600073ffffffffffffffffffffffffffffffffffffffff168173ffffffffffffffffffffffffffffffffffffffff1614156117d1576040517f08c379a00000000000000000000000000000000000000000000000000000000081526004016117c890612585565b60405180910390fd5b6117da8161198b565b50565b60007f01ffc9a7000000000000000000000000000000000000000000000000000000007bffffffffffffffffffffffffffffffffffffffffffffffffffffffff1916827bffffffffffffffffffffffffffffffffffffffffffffffffffffffff1916149050919050565b60006040517f3d602d80600a3d3981f3363d3d373d3d3d363d7300000000000000000000000081528260601b60148201527f5af43d82803e903d91602b57fd5bf3000000000000000000000000000000000060288201526037816000f0915050600073ffffffffffffffffffffffffffffffffffffffff168173ffffffffffffffffffffffffffffffffffffffff161415611917576040517f08c379a000000000000000000000000000000000000000000000000000000000815260040161190e906125a5565b60405180910390fd5b919050565b600033905090565b600061193282600001611a4f565b9050919050565b6000611965846000018460001b8473ffffffffffffffffffffffffffffffffffffffff1660001b611a64565b90509392505050565b6000611980836000018360001b611a9f565b60001c905092915050565b60008060009054906101000a900473ffffffffffffffffffffffffffffffffffffffff169050816000806101000a81548173ffffffffffffffffffffffffffffffffffffffff021916908373ffffffffffffffffffffffffffffffffffffffff1602179055508173ffffffffffffffffffffffffffffffffffffffff168173ffffffffffffffffffffffffffffffffffffffff167f8be0079c531659141344cd1fd0a4f28419497f9722a3daafe3b4186f6b6457e060405160405180910390a35050565b6000611a5d82600001611b1b565b9050919050565b60008184600201600085815260200190815260200160002081905550611a968385600001611b3090919063ffffffff16565b90509392505050565b6000808360020160008481526020019081526020016000205490506000801b81141580611ad25750611ad18484611b47565b5b611b11576040517f08c379a0000000000000000000000000000000000000000000000000000000008152600401611b08906125e5565b60405180910390fd5b8091505092915050565b6000611b2982600001611b67565b9050919050565b6000611b3f8360000183611b78565b905092915050565b6000611b5f8284600001611be890919063ffffffff16565b905092915050565b600081600001805490509050919050565b6000611b848383611bff565b611bdd578260000182908060018154018082558091505060019003906000526020600020016000909190919091505582600001805490508360010160008481526020019081526020016000208190555060019050611be2565b600090505b92915050565b6000611bf78360000183611bff565b905092915050565b600080836001016000848152602001908152602001600020541415905092915050565b6000611c35611c3084612645565b612620565b90508083825260208201905082856020860282011115611c5457600080fd5b60005b85811015611c845781611c6a8882611e44565b845260208401935060208301925050600181019050611c57565b5050509392505050565b6000611ca1611c9c84612671565b612620565b905082815260208101848484011115611cb957600080fd5b611cc48482856127a6565b509392505050565b6000611cdf611cda846126a2565b612620565b905082815260208101848484011115611cf757600080fd5b611d028482856127a6565b509392505050565b6000611d1d611d18846126a2565b612620565b905082815260208101848484011115611d3557600080fd5b611d408482856127b5565b509392505050565b600081359050611d5781612926565b92915050565b600081519050611d6c81612926565b92915050565b600082601f830112611d8357600080fd5b8135611d93848260208601611c22565b91505092915050565b600081359050611dab8161293d565b92915050565b600082601f830112611dc257600080fd5b8135611dd2848260208601611c8e565b91505092915050565b600082601f830112611dec57600080fd5b8135611dfc848260208601611ccc565b91505092915050565b600082601f830112611e1657600080fd5b8151611e26848260208601611d0a565b91505092915050565b600081359050611e3e81612954565b92915050565b600081359050611e538161296b565b92915050565b600060208284031215611e6b57600080fd5b6000611e7984828501611d48565b91505092915050565b600060208284031215611e9457600080fd5b6000611ea284828501611d5d565b91505092915050565b600080600080600060a08688031215611ec357600080fd5b6000611ed188828901611d48565b9550506020611ee288828901611d48565b945050604086013567ffffffffffffffff811115611eff57600080fd5b611f0b88828901611d72565b935050606086013567ffffffffffffffff811115611f2857600080fd5b611f3488828901611d72565b925050608086013567ffffffffffffffff811115611f5157600080fd5b611f5d88828901611db1565b9150509295509295909350565b60008060008060808587031215611f8057600080fd5b6000611f8e87828801611d48565b9450506020611f9f87828801611d48565b9350506040611fb087828801611e44565b925050606085013567ffffffffffffffff811115611fcd57600080fd5b611fd987828801611db1565b91505092959194509250565b600080600080600060a08688031215611ffd57600080fd5b600061200b88828901611d48565b955050602061201c88828901611d48565b945050604061202d88828901611e44565b935050606061203e88828901611e44565b925050608086013567ffffffffffffffff81111561205b57600080fd5b61206788828901611db1565b9150509295509295909350565b60008060006060848603121561208957600080fd5b600061209786828701611d48565b93505060206120a886828701611e44565b92505060406120b986828701611e2f565b9150509250925092565b6000602082840312156120d557600080fd5b60006120e384828501611d9c565b91505092915050565b6000602082840312156120fe57600080fd5b600082015167ffffffffffffffff81111561211857600080fd5b61212484828501611e05565b91505092915050565b6000806040838503121561214057600080fd5b600083013567ffffffffffffffff81111561215a57600080fd5b61216685828601611ddb565b925050602061217785828601611e2f565b9150509250929050565b60006020828403121561219357600080fd5b60006121a184828501611e44565b91505092915050565b6121b381612700565b82525050565b6121c281612712565b82525050565b6121d18161271e565b82525050565b6121e081612782565b82525050565b6121ef81612794565b82525050565b6000612200826126d3565b61220a81856126ef565b935061221a8185602086016127b5565b61222381612848565b840191505092915050565b600061223b6026836126ef565b915061224682612859565b604082019050919050565b600061225e6016836126ef565b9150612269826128a8565b602082019050919050565b60006122816020836126ef565b915061228c826128d1565b602082019050919050565b60006122a46000836126de565b91506122af826128fa565b600082019050919050565b60006122c7601e836126ef565b91506122d2826128fd565b602082019050919050565b6122e68161274a565b82525050565b6122f581612778565b82525050565b600060208201905061231060008301846121aa565b92915050565b600060808201905061232b60008301876121aa565b61233860208301866121aa565b61234560408301856121aa565b61235260608301846122ec565b95945050505050565b600060a08201905061237060008301876121aa565b61237d60208301866121aa565b61238a60408301856121d7565b61239760608301846121e6565b81810360808301526123a881612297565b905095945050505050565b60006080820190506123c860008301876121aa565b6123d560208301866121aa565b81810360408301526123e781856121f5565b90506123f660608301846122dd565b95945050505050565b600060608201905061241460008301866121aa565b61242160208301856121aa565b61242e60408301846122ec565b949350505050565b600060a08201905061244b60008301876121aa565b61245860208301866121aa565b61246560408301856122ec565b61247260608301846121e6565b818103608083015261248381612297565b905095945050505050565b60006080820190506124a360008301876121aa565b81810360208301526124b581866121f5565b90506124c460408301856121aa565b6124d160608301846122ec565b95945050505050565b60006080820190506124ef60008301876121aa565b6124fc60208301866122ec565b61250960408301856121aa565b61251660608301846122ec565b95945050505050565b600060208201905061253460008301846121b9565b92915050565b600060208201905061254f60008301846121c8565b92915050565b6000604082019050818103600083015261256f81856121f5565b905061257e60208301846122dd565b9392505050565b6000602082019050818103600083015261259e8161222e565b9050919050565b600060208201905081810360008301526125be81612251565b9050919050565b600060208201905081810360008301526125de81612274565b9050919050565b600060208201905081810360008301526125fe816122ba565b9050919050565b600060208201905061261a60008301846122ec565b92915050565b600061262a61263b565b905061263682826127e8565b919050565b6000604051905090565b600067ffffffffffffffff8211156126605761265f612819565b5b602082029050602081019050919050565b600067ffffffffffffffff82111561268c5761268b612819565b5b61269582612848565b9050602081019050919050565b600067ffffffffffffffff8211156126bd576126bc612819565b5b6126c682612848565b9050602081019050919050565b600081519050919050565b600082825260208201905092915050565b600082825260208201905092915050565b600061270b82612758565b9050919050565b60008115159050919050565b60007fffffffff0000000000000000000000000000000000000000000000000000000082169050919050565b600061ffff82169050919050565b600073ffffffffffffffffffffffffffffffffffffffff82169050919050565b6000819050919050565b600061278d82612778565b9050919050565b600061279f82612778565b9050919050565b82818337600083830152505050565b60005b838110156127d35780820151818401526020810190506127b8565b838111156127e2576000848401525b50505050565b6127f182612848565b810181811067ffffffffffffffff821117156128105761280f612819565b5b80604052505050565b7f4e487b7100000000000000000000000000000000000000000000000000000000600052604160045260246000fd5b6000601f19601f8301169050919050565b7f4f776e61626c653a206e6577206f776e657220697320746865207a65726f206160008201527f6464726573730000000000000000000000000000000000000000000000000000602082015250565b7f455243313136373a20637265617465206661696c656400000000000000000000600082015250565b7f4f776e61626c653a2063616c6c6572206973206e6f7420746865206f776e6572600082015250565b50565b7f456e756d657261626c654d61703a206e6f6e6578697374656e74206b65790000600082015250565b61292f81612700565b811461293a57600080fd5b50565b6129468161271e565b811461295157600080fd5b50565b61295d8161274a565b811461296857600080fd5b50565b61297481612778565b811461297f57600080fd5b5056fea26469706673582212207d2318daa28f2a115c933a25260da0b2b4a1bcaf145f5297fcb99aa6b5b43eb564736f6c63430008040033",
  "linkReferences": {},
  "deployedLinkReferences": {}
}