{
  "_format": "hh-sol-artifact-1",
  "contractName": "FraktalNFT",
  "sourceName": "contracts/FraktalNFT.sol",
  "abi": [
    {
      "inputs": [],
      "stateMutability": "nonpayable",
      "type": "constructor"
    },
    {
      "anonymous": false,
      "inputs": [
        {
          "indexed": true,
          "internalType": "address",
          "name": "account",
          "type": "address"
        },
        {
          "indexed": true,
          "internalType": "address",
          "name": "operator",
          "type": "address"
        },
        {
          "indexed": false,
          "internalType": "bool",
          "name": "approved",
          "type": "bool"
        }
      ],
      "name": "ApprovalForAll",
      "type": "event"
    },
    {
      "anonymous": false,
      "inputs": [
        {
          "indexed": false,
          "internalType": "address",
          "name": "holder",
          "type": "address"
        },
        {
          "indexed": false,
          "internalType": "uint256",
          "name": "index",
          "type": "uint256"
        }
      ],
      "name": "Defraktionalized",
      "type": "event"
    },
    {
      "anonymous": false,
      "inputs": [
        {
          "indexed": false,
          "internalType": "address",
          "name": "holder",
          "type": "address"
        },
        {
          "indexed": false,
          "internalType": "address",
          "name": "minter",
          "type": "address"
        },
        {
          "indexed": false,
          "internalType": "uint256",
          "name": "index",
          "type": "uint256"
        }
      ],
      "name": "Fraktionalized",
      "type": "event"
    },
    {
      "anonymous": false,
      "inputs": [
        {
          "indexed": false,
          "internalType": "address",
          "name": "buyer",
          "type": "address"
        },
        {
          "indexed": false,
          "internalType": "uint256",
          "name": "indexUsed",
          "type": "uint256"
        }
      ],
      "name": "ItemSold",
      "type": "event"
    },
    {
      "anonymous": false,
      "inputs": [
        {
          "indexed": false,
          "internalType": "address",
          "name": "shareOwner",
          "type": "address"
        },
        {
          "indexed": false,
          "internalType": "address",
          "name": "to",
          "type": "address"
        },
        {
          "indexed": false,
          "internalType": "uint256",
          "name": "numShares",
          "type": "uint256"
        }
      ],
      "name": "LockedSharesForTransfer",
      "type": "event"
    },
    {
      "anonymous": false,
      "inputs": [
        {
          "indexed": false,
          "internalType": "uint16",
          "name": "newValue",
          "type": "uint16"
        }
      ],
      "name": "MajorityValueChanged",
      "type": "event"
    },
    {
      "anonymous": false,
      "inputs": [
        {
          "indexed": false,
          "internalType": "address",
          "name": "payer",
          "type": "address"
        },
        {
          "indexed": false,
          "internalType": "address",
          "name": "revenueChannel",
          "type": "address"
        },
        {
          "indexed": false,
          "internalType": "uint256",
          "name": "amount",
          "type": "uint256"
        },
        {
          "indexed": false,
          "internalType": "bool",
          "name": "sold",
          "type": "bool"
        }
      ],
      "name": "NewRevenueAdded",
      "type": "event"
    },
    {
      "anonymous": false,
      "inputs": [
        {
          "indexed": true,
          "internalType": "address",
          "name": "operator",
          "type": "address"
        },
        {
          "indexed": true,
          "internalType": "address",
          "name": "from",
          "type": "address"
        },
        {
          "indexed": true,
          "internalType": "address",
          "name": "to",
          "type": "address"
        },
        {
          "indexed": false,
          "internalType": "uint256[]",
          "name": "ids",
          "type": "uint256[]"
        },
        {
          "indexed": false,
          "internalType": "uint256[]",
          "name": "values",
          "type": "uint256[]"
        }
      ],
      "name": "TransferBatch",
      "type": "event"
    },
    {
      "anonymous": false,
      "inputs": [
        {
          "indexed": true,
          "internalType": "address",
          "name": "operator",
          "type": "address"
        },
        {
          "indexed": true,
          "internalType": "address",
          "name": "from",
          "type": "address"
        },
        {
          "indexed": true,
          "internalType": "address",
          "name": "to",
          "type": "address"
        },
        {
          "indexed": false,
          "internalType": "uint256",
          "name": "id",
          "type": "uint256"
        },
        {
          "indexed": false,
          "internalType": "uint256",
          "name": "value",
          "type": "uint256"
        }
      ],
      "name": "TransferSingle",
      "type": "event"
    },
    {
      "anonymous": false,
      "inputs": [
        {
          "indexed": false,
          "internalType": "string",
          "name": "value",
          "type": "string"
        },
        {
          "indexed": true,
          "internalType": "uint256",
          "name": "id",
          "type": "uint256"
        }
      ],
      "name": "URI",
      "type": "event"
    },
    {
      "anonymous": false,
      "inputs": [
        {
          "indexed": false,
          "internalType": "address",
          "name": "shareOwner",
          "type": "address"
        },
        {
          "indexed": false,
          "internalType": "address",
          "name": "to",
          "type": "address"
        },
        {
          "indexed": false,
          "internalType": "uint256",
          "name": "numShares",
          "type": "uint256"
        }
      ],
      "name": "unLockedSharesForTransfer",
      "type": "event"
    },
    {
      "inputs": [
        {
          "internalType": "address",
          "name": "account",
          "type": "address"
        },
        {
          "internalType": "uint256",
          "name": "id",
          "type": "uint256"
        }
      ],
      "name": "balanceOf",
      "outputs": [
        {
          "internalType": "uint256",
          "name": "",
          "type": "uint256"
        }
      ],
      "stateMutability": "view",
      "type": "function"
    },
    {
      "inputs": [
        {
          "internalType": "address[]",
          "name": "accounts",
          "type": "address[]"
        },
        {
          "internalType": "uint256[]",
          "name": "ids",
          "type": "uint256[]"
        }
      ],
      "name": "balanceOfBatch",
      "outputs": [
        {
          "internalType": "uint256[]",
          "name": "",
          "type": "uint256[]"
        }
      ],
      "stateMutability": "view",
      "type": "function"
    },
    {
      "inputs": [],
      "name": "createRevenuePayment",
      "outputs": [
        {
          "internalType": "address",
          "name": "_clone",
          "type": "address"
        }
      ],
      "stateMutability": "payable",
      "type": "function"
    },
    {
      "inputs": [],
      "name": "defraktionalize",
      "outputs": [],
      "stateMutability": "nonpayable",
      "type": "function"
    },
    {
      "inputs": [
        {
          "internalType": "address",
          "name": "_to",
          "type": "address"
        },
        {
          "internalType": "uint256",
          "name": "_tokenId",
          "type": "uint256"
        }
      ],
      "name": "fraktionalize",
      "outputs": [],
      "stateMutability": "nonpayable",
      "type": "function"
    },
    {
      "inputs": [],
      "name": "fraktionsIndex",
      "outputs": [
        {
          "internalType": "uint256",
          "name": "",
          "type": "uint256"
        }
      ],
      "stateMutability": "view",
      "type": "function"
    },
    {
      "inputs": [
        {
          "internalType": "address",
          "name": "who",
          "type": "address"
        }
      ],
      "name": "getFraktions",
      "outputs": [
        {
          "internalType": "uint256",
          "name": "",
          "type": "uint256"
        }
      ],
      "stateMutability": "view",
      "type": "function"
    },
    {
      "inputs": [],
      "name": "getFraktionsIndex",
      "outputs": [
        {
          "internalType": "uint256",
          "name": "",
          "type": "uint256"
        }
      ],
      "stateMutability": "view",
      "type": "function"
    },
    {
      "inputs": [
        {
          "internalType": "uint256",
          "name": "index",
          "type": "uint256"
        },
        {
          "internalType": "address",
          "name": "who",
          "type": "address"
        }
      ],
      "name": "getLockedShares",
      "outputs": [
        {
          "internalType": "uint256",
          "name": "",
          "type": "uint256"
        }
      ],
      "stateMutability": "view",
      "type": "function"
    },
    {
      "inputs": [
        {
          "internalType": "uint256",
          "name": "index",
          "type": "uint256"
        },
        {
          "internalType": "address",
          "name": "who",
          "type": "address"
        }
      ],
      "name": "getLockedToTotal",
      "outputs": [
        {
          "internalType": "uint256",
          "name": "",
          "type": "uint256"
        }
      ],
      "stateMutability": "view",
      "type": "function"
    },
    {
      "inputs": [
        {
          "internalType": "uint256",
          "name": "index",
          "type": "uint256"
        }
      ],
      "name": "getRevenue",
      "outputs": [
        {
          "internalType": "address",
          "name": "",
          "type": "address"
        }
      ],
      "stateMutability": "view",
      "type": "function"
    },
    {
      "inputs": [],
      "name": "getStatus",
      "outputs": [
        {
          "internalType": "bool",
          "name": "",
          "type": "bool"
        }
      ],
      "stateMutability": "view",
      "type": "function"
    },
    {
      "inputs": [
        {
          "internalType": "uint256",
          "name": "",
          "type": "uint256"
        }
      ],
      "name": "indexUsed",
      "outputs": [
        {
          "internalType": "bool",
          "name": "",
          "type": "bool"
        }
      ],
      "stateMutability": "view",
      "type": "function"
    },
    {
      "inputs": [
        {
          "internalType": "address",
          "name": "_creator",
          "type": "address"
        },
        {
          "internalType": "address",
          "name": "_revenueChannelImplementation",
          "type": "address"
        },
        {
          "internalType": "string",
          "name": "uri",
          "type": "string"
        },
        {
          "internalType": "uint16",
          "name": "_majority",
          "type": "uint16"
        }
      ],
      "name": "init",
      "outputs": [],
      "stateMutability": "nonpayable",
      "type": "function"
    },
    {
      "inputs": [
        {
          "internalType": "address",
          "name": "account",
          "type": "address"
        },
        {
          "internalType": "address",
          "name": "operator",
          "type": "address"
        }
      ],
      "name": "isApprovedForAll",
      "outputs": [
        {
          "internalType": "bool",
          "name": "",
          "type": "bool"
        }
      ],
      "stateMutability": "view",
      "type": "function"
    },
    {
      "inputs": [
        {
          "internalType": "address",
          "name": "from",
          "type": "address"
        },
        {
          "internalType": "uint256",
          "name": "numShares",
          "type": "uint256"
        },
        {
          "internalType": "address",
          "name": "_to",
          "type": "address"
        }
      ],
      "name": "lockSharesTransfer",
      "outputs": [],
      "stateMutability": "nonpayable",
      "type": "function"
    },
    {
      "inputs": [],
      "name": "majority",
      "outputs": [
        {
          "internalType": "uint16",
          "name": "",
          "type": "uint16"
        }
      ],
      "stateMutability": "view",
      "type": "function"
    },
    {
      "inputs": [
        {
          "internalType": "address",
          "name": "from",
          "type": "address"
        },
        {
          "internalType": "address",
          "name": "to",
          "type": "address"
        },
        {
          "internalType": "uint256[]",
          "name": "ids",
          "type": "uint256[]"
        },
        {
          "internalType": "uint256[]",
          "name": "amounts",
          "type": "uint256[]"
        },
        {
          "internalType": "bytes",
          "name": "data",
          "type": "bytes"
        }
      ],
      "name": "safeBatchTransferFrom",
      "outputs": [],
      "stateMutability": "nonpayable",
      "type": "function"
    },
    {
      "inputs": [
        {
          "internalType": "address",
          "name": "from",
          "type": "address"
        },
        {
          "internalType": "address",
          "name": "to",
          "type": "address"
        },
        {
          "internalType": "uint256",
          "name": "id",
          "type": "uint256"
        },
        {
          "internalType": "uint256",
          "name": "amount",
          "type": "uint256"
        },
        {
          "internalType": "bytes",
          "name": "data",
          "type": "bytes"
        }
      ],
      "name": "safeTransferFrom",
      "outputs": [],
      "stateMutability": "nonpayable",
      "type": "function"
    },
    {
      "inputs": [],
      "name": "sellItem",
      "outputs": [],
      "stateMutability": "payable",
      "type": "function"
    },
    {
      "inputs": [
        {
          "internalType": "address",
          "name": "operator",
          "type": "address"
        },
        {
          "internalType": "bool",
          "name": "approved",
          "type": "bool"
        }
      ],
      "name": "setApprovalForAll",
      "outputs": [],
      "stateMutability": "nonpayable",
      "type": "function"
    },
    {
      "inputs": [
        {
          "internalType": "uint16",
          "name": "newValue",
          "type": "uint16"
        }
      ],
      "name": "setMajority",
      "outputs": [],
      "stateMutability": "nonpayable",
      "type": "function"
    },
    {
      "inputs": [],
      "name": "sold",
      "outputs": [
        {
          "internalType": "bool",
          "name": "",
          "type": "bool"
        }
      ],
      "stateMutability": "view",
      "type": "function"
    },
    {
      "inputs": [
        {
          "internalType": "address",
          "name": "owner",
          "type": "address"
        },
        {
          "internalType": "uint256",
          "name": "_tokenId",
          "type": "uint256"
        },
        {
          "internalType": "uint256",
          "name": "bal",
          "type": "uint256"
        }
      ],
      "name": "soldBurn",
      "outputs": [],
      "stateMutability": "nonpayable",
      "type": "function"
    },
    {
      "inputs": [
        {
          "internalType": "bytes4",
          "name": "interfaceId",
          "type": "bytes4"
        }
      ],
      "name": "supportsInterface",
      "outputs": [
        {
          "internalType": "bool",
          "name": "",
          "type": "bool"
        }
      ],
      "stateMutability": "view",
      "type": "function"
    },
    {
      "inputs": [
        {
          "internalType": "address",
          "name": "from",
          "type": "address"
        },
        {
          "internalType": "address",
          "name": "_to",
          "type": "address"
        }
      ],
      "name": "unlockSharesTransfer",
      "outputs": [],
      "stateMutability": "nonpayable",
      "type": "function"
    },
    {
      "inputs": [
        {
          "internalType": "uint256",
          "name": "",
          "type": "uint256"
        }
      ],
      "name": "uri",
      "outputs": [
        {
          "internalType": "string",
          "name": "",
          "type": "string"
        }
      ],
      "stateMutability": "view",
      "type": "function"
    }
  ],
  "bytecode": "0x60806040523480156200001157600080fd5b50600060019054906101000a900460ff168062000039575060008054906101000a900460ff16155b6200007b576040517f08c379a000000000000000000000000000000000000000000000000000000000815260040162000072906200011c565b60405180910390fd5b60008060019054906101000a900460ff161590508015620000cc576001600060016101000a81548160ff02191690831515021790555060016000806101000a81548160ff0219169083151502179055505b8015620000ee5760008060016101000a81548160ff0219169083151502179055505b506200019e565b600062000104602e836200013e565b915062000111826200014f565b604082019050919050565b600060208201905081810360008301526200013781620000f5565b9050919050565b600082825260208201905092915050565b7f496e697469616c697a61626c653a20636f6e747261637420697320616c72656160008201527f647920696e697469616c697a6564000000000000000000000000000000000000602082015250565b615d3080620001ae6000396000f3fe60806040526004361061019b5760003560e01c80635fd71595116100ec578063a22cb4651161008a578063e985e9c511610064578063e985e9c5146105ee578063f242432a1461062b578063fd0c060d14610654578063fdc6597a1461065e5761019b565b8063a22cb4651461057c578063b3a4692c146105a5578063b6e54bdf146105c35761019b565b8063811ce760116100c6578063811ce760146104d6578063820d3db9146104ff5780638b4ae68c1461053c5780639f37c5dc146105655761019b565b80635fd7159514610431578063669ee0b51461046e57806368e98409146104ab5761019b565b80632623f68711610159578063493236391161013357806349323639146103635780634b4b5025146103a05780634e1273f4146103c95780634e69d560146104065761019b565b80632623f687146102d45780632eb2c2d614610311578063307a5ff31461033a5761019b565b8062fdd58e146101a057806301ffc9a7146101dd57806302c7e7af1461021a578063066f39bf146102455780630e89341c1461026e57806316c116be146102ab575b600080fd5b3480156101ac57600080fd5b506101c760048036038101906101c29190614320565b610689565b6040516101d491906150dd565b60405180910390f35b3480156101e957600080fd5b5061020460048036038101906101ff9190614466565b610753565b6040516102119190614d45565b60405180910390f35b34801561022657600080fd5b5061022f610835565b60405161023c9190614d45565b60405180910390f35b34801561025157600080fd5b5061026c600480360381019061026791906140da565b610848565b005b34801561027a57600080fd5b50610295600480360381019061029091906144e1565b610a8d565b6040516102a29190614d60565b60405180910390f35b3480156102b757600080fd5b506102d260048036038101906102cd91906141d5565b610b21565b005b3480156102e057600080fd5b506102fb60048036038101906102f691906144e1565b610d12565b6040516103089190614ad3565b60405180910390f35b34801561031d57600080fd5b5061033860048036038101906103339190614116565b610d2f565b005b34801561034657600080fd5b50610361600480360381019061035c91906144b8565b610dd0565b005b34801561036f57600080fd5b5061038a600480360381019061038591906144e1565b610efb565b6040516103979190614d45565b60405180910390f35b3480156103ac57600080fd5b506103c760048036038101906103c291906143ab565b610f1b565b005b3480156103d557600080fd5b506103f060048036038101906103eb91906143fa565b610fb6565b6040516103fd9190614cec565b60405180910390f35b34801561041257600080fd5b5061041b611167565b6040516104289190614d45565b60405180910390f35b34801561043d57600080fd5b50610458600480360381019061045391906140b1565b61117e565b60405161046591906150dd565b60405180910390f35b34801561047a57600080fd5b5061049560048036038101906104909190614533565b611213565b6040516104a291906150dd565b60405180910390f35b3480156104b757600080fd5b506104c061126e565b6040516104cd91906150dd565b60405180910390f35b3480156104e257600080fd5b506104fd60048036038101906104f8919061435c565b611274565b005b34801561050b57600080fd5b5061052660048036038101906105219190614533565b6114bc565b60405161053391906150dd565b60405180910390f35b34801561054857600080fd5b50610563600480360381019061055e9190614320565b611517565b005b34801561057157600080fd5b5061057a6117b2565b005b34801561058857600080fd5b506105a3600480360381019061059e91906142e4565b611827565b005b6105ad6119a8565b6040516105ba9190614ad3565b60405180910390f35b3480156105cf57600080fd5b506105d8611cd7565b6040516105e591906150c2565b60405180910390f35b3480156105fa57600080fd5b50610615600480360381019061061091906140da565b611ceb565b6040516106229190614d45565b60405180910390f35b34801561063757600080fd5b50610652600480360381019061064d9190614255565b611d7f565b005b61065c611e20565b005b34801561066a57600080fd5b50610673611f9c565b60405161068091906150dd565b60405180910390f35b60008073ffffffffffffffffffffffffffffffffffffffff168373ffffffffffffffffffffffffffffffffffffffff1614156106fa576040517f08c379a00000000000000000000000000000000000000000000000000000000081526004016106f190614dc2565b60405180910390fd5b6065600083815260200190815260200160002060008473ffffffffffffffffffffffffffffffffffffffff1673ffffffffffffffffffffffffffffffffffffffff16815260200190815260200160002054905092915050565b60007fd9b67a26000000000000000000000000000000000000000000000000000000007bffffffffffffffffffffffffffffffffffffffffffffffffffffffff1916827bffffffffffffffffffffffffffffffffffffffffffffffffffffffff1916148061081e57507f0e89341c000000000000000000000000000000000000000000000000000000007bffffffffffffffffffffffffffffffffffffffffffffffffffffffff1916827bffffffffffffffffffffffffffffffffffffffffffffffffffffffff1916145b8061082e575061082d82611fa6565b5b9050919050565b609760159054906101000a900460ff1681565b609760159054906101000a900460ff1615610898576040517f08c379a000000000000000000000000000000000000000000000000000000000815260040161088f90614fe2565b60405180910390fd5b6108a0612010565b73ffffffffffffffffffffffffffffffffffffffff168273ffffffffffffffffffffffffffffffffffffffff1614610923576108e3826108de612010565b611ceb565b610922576040517f08c379a000000000000000000000000000000000000000000000000000000000815260040161091990614fa2565b60405180910390fd5b5b6000609b6000609854815260200190815260200160002060008473ffffffffffffffffffffffffffffffffffffffff1673ffffffffffffffffffffffffffffffffffffffff16815260200190815260200160002054905080609b6000609854815260200190815260200160002060008573ffffffffffffffffffffffffffffffffffffffff1673ffffffffffffffffffffffffffffffffffffffff16815260200190815260200160002060008282546109dc91906152cf565b9250508190555080609c6000609854815260200190815260200160002060008473ffffffffffffffffffffffffffffffffffffffff1673ffffffffffffffffffffffffffffffffffffffff1681526020019081526020016000206000828254610a4591906152cf565b925050819055507f6c956f9a0acb32a87bb745b5d3a8411c70a1c60e5ed4c12a86f517c8460dbee983836000604051610a8093929190614b9b565b60405180910390a1505050565b606060678054610a9c9061540f565b80601f0160208091040260200160405190810160405280929190818152602001828054610ac89061540f565b8015610b155780601f10610aea57610100808354040283529160200191610b15565b820191906000526020600020905b815481529060010190602001808311610af857829003601f168201915b50505050509050919050565b600060019054906101000a900460ff1680610b47575060008054906101000a900460ff16155b610b86576040517f08c379a0000000000000000000000000000000000000000000000000000000008152600401610b7d90614ee2565b60405180910390fd5b60008060019054906101000a900460ff161590508015610bd6576001600060016101000a81548160ff02191690831515021790555060016000806101000a81548160ff0219169083151502179055505b610c2384848080601f016020809104026020016040519081016040528093929190818152602001838380828437600081840152601f19601f82011690508083019250505050505050612018565b610c4086600060016040518060200160405280600081525061210b565b6000609760146101000a81548160ff0219169083151502179055506000609760156101000a81548160ff02191690831515021790555081609960006101000a81548161ffff021916908361ffff16021790555084609760006101000a81548173ffffffffffffffffffffffffffffffffffffffff021916908373ffffffffffffffffffffffffffffffffffffffff160217905550610ce886609d6122a290919063ffffffff16565b508015610d0a5760008060016101000a81548160ff0219169083151502179055505b505050505050565b6000610d2882609f6122d290919063ffffffff16565b9050919050565b610d37612010565b73ffffffffffffffffffffffffffffffffffffffff168573ffffffffffffffffffffffffffffffffffffffff161480610d7d5750610d7c85610d77612010565b611ceb565b5b610dbc576040517f08c379a0000000000000000000000000000000000000000000000000000000008152600401610db390614ec2565b60405180910390fd5b610dc985858585856122ef565b5050505050565b60013073ffffffffffffffffffffffffffffffffffffffff1662fdd58e610df5612010565b60006040518363ffffffff1660e01b8152600401610e14929190614c63565b60206040518083038186803b158015610e2c57600080fd5b505afa158015610e40573d6000803e3d6000fd5b505050506040513d601f19601f82011682018060405250810190610e64919061450a565b14610ea4576040517f08c379a0000000000000000000000000000000000000000000000000000000008152600401610e9b906150a2565b60405180910390fd5b80609960006101000a81548161ffff021916908361ffff1602179055507f87fa05a809d27617c9cbb60cac6d6f39108e65a739ddb410d7aee8e79c6b192681604051610ef091906150c2565b60405180910390a150565b609a6020528060005260406000206000915054906101000a900460ff1681565b8273ffffffffffffffffffffffffffffffffffffffff16610f3a612010565b73ffffffffffffffffffffffffffffffffffffffff1614610fa657610f6683610f61612010565b611ceb565b610fa5576040517f08c379a0000000000000000000000000000000000000000000000000000000008152600401610f9c90614fa2565b60405180910390fd5b5b610fb1838383612652565b505050565b60608151835114610ffc576040517f08c379a0000000000000000000000000000000000000000000000000000000008152600401610ff390615022565b60405180910390fd5b6000835167ffffffffffffffff81111561103f577f4e487b7100000000000000000000000000000000000000000000000000000000600052604160045260246000fd5b60405190808252806020026020018201604052801561106d5781602001602082028036833780820191505090505b50905060005b845181101561115c576111068582815181106110b8577f4e487b7100000000000000000000000000000000000000000000000000000000600052603260045260246000fd5b60200260200101518583815181106110f9577f4e487b7100000000000000000000000000000000000000000000000000000000600052603260045260246000fd5b6020026020010151610689565b82828151811061113f577f4e487b7100000000000000000000000000000000000000000000000000000000600052603260045260246000fd5b602002602001018181525050806111559061549d565b9050611073565b508091505092915050565b6000609760159054906101000a900460ff16905090565b60003073ffffffffffffffffffffffffffffffffffffffff1662fdd58e836098546040518363ffffffff1660e01b81526004016111bc929190614c8c565b60206040518083038186803b1580156111d457600080fd5b505afa1580156111e8573d6000803e3d6000fd5b505050506040513d601f19601f8201168201806040525081019061120c919061450a565b9050919050565b6000609b600084815260200190815260200160002060008373ffffffffffffffffffffffffffffffffffffffff1673ffffffffffffffffffffffffffffffffffffffff16815260200190815260200160002054905092915050565b60985481565b61127c612010565b73ffffffffffffffffffffffffffffffffffffffff168373ffffffffffffffffffffffffffffffffffffffff16146112ff576112bf836112ba612010565b611ceb565b6112fe576040517f08c379a00000000000000000000000000000000000000000000000000000000081526004016112f590614fa2565b60405180910390fd5b5b81609b6000609854815260200190815260200160002060008573ffffffffffffffffffffffffffffffffffffffff1673ffffffffffffffffffffffffffffffffffffffff1681526020019081526020016000205461135f85609854610689565b61136991906152cf565b10156113aa576040517f08c379a00000000000000000000000000000000000000000000000000000000081526004016113a190614f62565b60405180910390fd5b81609b6000609854815260200190815260200160002060008573ffffffffffffffffffffffffffffffffffffffff1673ffffffffffffffffffffffffffffffffffffffff168152602001908152602001600020600082825461140c9190615279565b9250508190555081609c6000609854815260200190815260200160002060008373ffffffffffffffffffffffffffffffffffffffff1673ffffffffffffffffffffffffffffffffffffffff16815260200190815260200160002060008282546114759190615279565b925050819055507f1487cf914d0d048518844aa2edc6821fdc6bf7d53edffc84322b4b3ef2bbde998382846040516114af93929190614bd2565b60405180910390a1505050565b6000609c600084815260200190815260200160002060008373ffffffffffffffffffffffffffffffffffffffff1673ffffffffffffffffffffffffffffffffffffffff16815260200190815260200160002054905092915050565b600081141561155b576040517f08c379a000000000000000000000000000000000000000000000000000000000815260040161155290614f82565b60405180910390fd5b60013073ffffffffffffffffffffffffffffffffffffffff1662fdd58e611580612010565b60006040518363ffffffff1660e01b815260040161159f929190614c63565b60206040518083038186803b1580156115b757600080fd5b505afa1580156115cb573d6000803e3d6000fd5b505050506040513d601f19601f820116820180604052508101906115ef919061450a565b1461162f576040517f08c379a0000000000000000000000000000000000000000000000000000000008152600401611626906150a2565b60405180910390fd5b60001515609760149054906101000a900460ff16151514611685576040517f08c379a000000000000000000000000000000000000000000000000000000000815260040161167c90614e62565b60405180910390fd5b60001515609a600083815260200190815260200160002060009054906101000a900460ff161515146116ec576040517f08c379a00000000000000000000000000000000000000000000000000000000081526004016116e390614e22565b60405180910390fd5b6001609760146101000a81548160ff0219169083151502179055506000609760156101000a81548160ff0219169083151502179055508060988190555061176c82826127106040518060400160405280600981526020017f6672616b74696f6e73000000000000000000000000000000000000000000000081525061210b565b7f29dc7bbb1c30db5f8e5e644e9adca7cd3e410cb9236ca67d83232d5406173eaf611795612010565b83836040516117a693929190614bd2565b60405180910390a15050565b6000609760146101000a81548160ff0219169083151502179055506117e36117d8612010565b609854612710612652565b7fec0fd6fa76edc3e473f9bb9ba9281c27b2ac12ee551cfbd629670b18fc1c90e861180c612010565b60985460405161181d929190614c8c565b60405180910390a1565b8173ffffffffffffffffffffffffffffffffffffffff16611846612010565b73ffffffffffffffffffffffffffffffffffffffff16141561189d576040517f08c379a000000000000000000000000000000000000000000000000000000000815260040161189490615002565b60405180910390fd5b80606660006118aa612010565b73ffffffffffffffffffffffffffffffffffffffff1673ffffffffffffffffffffffffffffffffffffffff16815260200190815260200160002060008473ffffffffffffffffffffffffffffffffffffffff1673ffffffffffffffffffffffffffffffffffffffff16815260200190815260200160002060006101000a81548160ff0219169083151502179055508173ffffffffffffffffffffffffffffffffffffffff16611957612010565b73ffffffffffffffffffffffffffffffffffffffff167f17307eab39ab6107e8899845ad3d59bd9653f200f220920489ca2b5937696c318360405161199c9190614d45565b60405180910390a35050565b60006119b2612871565b60006119be609d612ad6565b905060006119cc609d612af7565b905060008167ffffffffffffffff811115611a10577f4e487b7100000000000000000000000000000000000000000000000000000000600052604160045260246000fd5b604051908082528060200260200182016040528015611a3e5781602001602082028036833780820191505090505b50905060005b82811015611b70573073ffffffffffffffffffffffffffffffffffffffff1662fdd58e858381518110611aa0577f4e487b7100000000000000000000000000000000000000000000000000000000600052603260045260246000fd5b60200260200101516098546040518363ffffffff1660e01b8152600401611ac8929190614c8c565b60206040518083038186803b158015611ae057600080fd5b505afa158015611af4573d6000803e3d6000fd5b505050506040513d601f19601f82011682018060405250810190611b18919061450a565b828281518110611b51577f4e487b7100000000000000000000000000000000000000000000000000000000600052603260045260246000fd5b6020026020010181815250508080611b689061549d565b915050611a44565b50611b9c609760009054906101000a900473ffffffffffffffffffffffffffffffffffffffff16612b0c565b935060008490508073ffffffffffffffffffffffffffffffffffffffff1663371aa15885846040518363ffffffff1660e01b8152600401611bde929190614cb5565b600060405180830381600087803b158015611bf857600080fd5b505af1158015611c0c573d6000803e3d6000fd5b505050508073ffffffffffffffffffffffffffffffffffffffff166108fc349081150290604051600060405180830381858888f19350505050158015611c56573d6000803e3d6000fd5b506000611c63609f612be1565b9050611c7b8187609f612bf69092919063ffffffff16565b507fd58600433d64ed1af44960e693d3aaaa01dc799cf469c95c6ec543efdfbe075d611ca5612010565b8334609760159054906101000a900460ff16604051611cc79493929190614aee565b60405180910390a1505050505090565b609960009054906101000a900461ffff1681565b6000606660008473ffffffffffffffffffffffffffffffffffffffff1673ffffffffffffffffffffffffffffffffffffffff16815260200190815260200160002060008373ffffffffffffffffffffffffffffffffffffffff1673ffffffffffffffffffffffffffffffffffffffff16815260200190815260200160002060009054906101000a900460ff16905092915050565b611d87612010565b73ffffffffffffffffffffffffffffffffffffffff168573ffffffffffffffffffffffffffffffffffffffff161480611dcd5750611dcc85611dc7612010565b611ceb565b5b611e0c576040517f08c379a0000000000000000000000000000000000000000000000000000000008152600401611e0390614e42565b60405180910390fd5b611e198585858585612c2b565b5050505050565b60013073ffffffffffffffffffffffffffffffffffffffff1662fdd58e611e45612010565b60006040518363ffffffff1660e01b8152600401611e64929190614c63565b60206040518083038186803b158015611e7c57600080fd5b505afa158015611e90573d6000803e3d6000fd5b505050506040513d601f19601f82011682018060405250810190611eb4919061450a565b14611ef4576040517f08c379a0000000000000000000000000000000000000000000000000000000008152600401611eeb906150a2565b60405180910390fd5b6001609760156101000a81548160ff0219169083151502179055506000609760146101000a81548160ff0219169083151502179055506001609a6000609854815260200190815260200160002060006101000a81548160ff0219169083151502179055507fc8edef1fc414675e55c5a6ea7d9d6547df463b23dbdfc36ecaad361408c0894c611f81612010565b609854604051611f92929190614c8c565b60405180910390a1565b6000609854905090565b60007f01ffc9a7000000000000000000000000000000000000000000000000000000007bffffffffffffffffffffffffffffffffffffffffffffffffffffffff1916827bffffffffffffffffffffffffffffffffffffffffffffffffffffffff1916149050919050565b600033905090565b600060019054906101000a900460ff168061203e575060008054906101000a900460ff16155b61207d576040517f08c379a000000000000000000000000000000000000000000000000000000000815260040161207490614ee2565b60405180910390fd5b60008060019054906101000a900460ff1615905080156120cd576001600060016101000a81548160ff02191690831515021790555060016000806101000a81548160ff0219169083151502179055505b6120d5612eb0565b6120dd612f89565b6120e682613062565b80156121075760008060016101000a81548160ff0219169083151502179055505b5050565b600073ffffffffffffffffffffffffffffffffffffffff168473ffffffffffffffffffffffffffffffffffffffff16141561217b576040517f08c379a000000000000000000000000000000000000000000000000000000000815260040161217290615062565b60405180910390fd5b6000612185612010565b90506121a68160008761219788613145565b6121a088613145565b8761320b565b826065600086815260200190815260200160002060008773ffffffffffffffffffffffffffffffffffffffff1673ffffffffffffffffffffffffffffffffffffffff16815260200190815260200160002060008282546122069190615279565b925050819055508473ffffffffffffffffffffffffffffffffffffffff16600073ffffffffffffffffffffffffffffffffffffffff168273ffffffffffffffffffffffffffffffffffffffff167fc3d58168c5ae7397731d063d5bbf3d657854427343f4c083240f7aacaa2d0f6287876040516122849291906150f8565b60405180910390a461229b8160008787878761354a565b5050505050565b60006122ca836000018373ffffffffffffffffffffffffffffffffffffffff1660001b613731565b905092915050565b60006122e4836000018360001b6137a1565b60001c905092915050565b8151835114612333576040517f08c379a000000000000000000000000000000000000000000000000000000000815260040161232a90615042565b60405180910390fd5b600073ffffffffffffffffffffffffffffffffffffffff168473ffffffffffffffffffffffffffffffffffffffff1614156123a3576040517f08c379a000000000000000000000000000000000000000000000000000000000815260040161239a90614ea2565b60405180910390fd5b60006123ad612010565b90506123bd81878787878761320b565b60005b84518110156125bd576000858281518110612404577f4e487b7100000000000000000000000000000000000000000000000000000000600052603260045260246000fd5b602002602001015190506000858381518110612449577f4e487b7100000000000000000000000000000000000000000000000000000000600052603260045260246000fd5b6020026020010151905060006065600084815260200190815260200160002060008b73ffffffffffffffffffffffffffffffffffffffff1673ffffffffffffffffffffffffffffffffffffffff168152602001908152602001600020549050818110156124eb576040517f08c379a00000000000000000000000000000000000000000000000000000000081526004016124e290614f22565b60405180910390fd5b8181036065600085815260200190815260200160002060008c73ffffffffffffffffffffffffffffffffffffffff1673ffffffffffffffffffffffffffffffffffffffff16815260200190815260200160002081905550816065600085815260200190815260200160002060008b73ffffffffffffffffffffffffffffffffffffffff1673ffffffffffffffffffffffffffffffffffffffff16815260200190815260200160002060008282546125a29190615279565b92505081905550505050806125b69061549d565b90506123c0565b508473ffffffffffffffffffffffffffffffffffffffff168673ffffffffffffffffffffffffffffffffffffffff168273ffffffffffffffffffffffffffffffffffffffff167f4a39dc06d4c0dbc64b70af90fd698a233a518aa5d07e595d983b8c0526c8f7fb8787604051612634929190614d0e565b60405180910390a461264a81878787878761381d565b505050505050565b600073ffffffffffffffffffffffffffffffffffffffff168373ffffffffffffffffffffffffffffffffffffffff1614156126c2576040517f08c379a00000000000000000000000000000000000000000000000000000000081526004016126b990614f02565b60405180910390fd5b60006126cc612010565b90506126fc818560006126de87613145565b6126e787613145565b6040518060200160405280600081525061320b565b60006065600085815260200190815260200160002060008673ffffffffffffffffffffffffffffffffffffffff1673ffffffffffffffffffffffffffffffffffffffff16815260200190815260200160002054905082811015612794576040517f08c379a000000000000000000000000000000000000000000000000000000000815260040161278b90614de2565b60405180910390fd5b8281036065600086815260200190815260200160002060008773ffffffffffffffffffffffffffffffffffffffff1673ffffffffffffffffffffffffffffffffffffffff16815260200190815260200160002081905550600073ffffffffffffffffffffffffffffffffffffffff168573ffffffffffffffffffffffffffffffffffffffff168373ffffffffffffffffffffffffffffffffffffffff167fc3d58168c5ae7397731d063d5bbf3d657854427343f4c083240f7aacaa2d0f6287876040516128629291906150f8565b60405180910390a45050505050565b600061287d609d612af7565b905060008167ffffffffffffffff8111156128c1577f4e487b7100000000000000000000000000000000000000000000000000000000600052604160045260246000fd5b6040519080825280602002602001820160405280156128ef5781602001602082028036833780820191505090505b5090506000805b83811015612a585760003073ffffffffffffffffffffffffffffffffffffffff1662fdd58e61292f84609d613a0490919063ffffffff16565b6098546040518363ffffffff1660e01b815260040161294f929190614c8c565b60206040518083038186803b15801561296757600080fd5b505afa15801561297b573d6000803e3d6000fd5b505050506040513d601f19601f8201168201806040525081019061299f919061450a565b90506001811015612a44576129be82609d613a0490919063ffffffff16565b848461ffff16815181106129fb577f4e487b7100000000000000000000000000000000000000000000000000000000600052603260045260246000fd5b602002602001019073ffffffffffffffffffffffffffffffffffffffff16908173ffffffffffffffffffffffffffffffffffffffff16815250508280612a4090615472565b9350505b508080612a509061549d565b9150506128f6565b5060005b8161ffff16811015612ad057612abc838281518110612aa4577f4e487b7100000000000000000000000000000000000000000000000000000000600052603260045260246000fd5b6020026020010151609d613a1e90919063ffffffff16565b508080612ac89061549d565b915050612a5c565b50505050565b60606000612ae683600001613a4e565b905060608190508092505050919050565b6000612b0582600001613aaa565b9050919050565b60006040517f3d602d80600a3d3981f3363d3d373d3d3d363d7300000000000000000000000081528260601b60148201527f5af43d82803e903d91602b57fd5bf3000000000000000000000000000000000060288201526037816000f0915050600073ffffffffffffffffffffffffffffffffffffffff168173ffffffffffffffffffffffffffffffffffffffff161415612bdc576040517f08c379a0000000000000000000000000000000000000000000000000000000008152600401612bd390614e82565b60405180910390fd5b919050565b6000612bef82600001613abb565b9050919050565b6000612c22846000018460001b8473ffffffffffffffffffffffffffffffffffffffff1660001b613ad0565b90509392505050565b600073ffffffffffffffffffffffffffffffffffffffff168473ffffffffffffffffffffffffffffffffffffffff161415612c9b576040517f08c379a0000000000000000000000000000000000000000000000000000000008152600401612c9290614ea2565b60405180910390fd5b6000612ca5612010565b9050612cc5818787612cb688613145565b612cbf88613145565b8761320b565b60006065600086815260200190815260200160002060008873ffffffffffffffffffffffffffffffffffffffff1673ffffffffffffffffffffffffffffffffffffffff16815260200190815260200160002054905083811015612d5d576040517f08c379a0000000000000000000000000000000000000000000000000000000008152600401612d5490614f22565b60405180910390fd5b8381036065600087815260200190815260200160002060008973ffffffffffffffffffffffffffffffffffffffff1673ffffffffffffffffffffffffffffffffffffffff16815260200190815260200160002081905550836065600087815260200190815260200160002060008873ffffffffffffffffffffffffffffffffffffffff1673ffffffffffffffffffffffffffffffffffffffff1681526020019081526020016000206000828254612e149190615279565b925050819055508573ffffffffffffffffffffffffffffffffffffffff168773ffffffffffffffffffffffffffffffffffffffff168373ffffffffffffffffffffffffffffffffffffffff167fc3d58168c5ae7397731d063d5bbf3d657854427343f4c083240f7aacaa2d0f628888604051612e919291906150f8565b60405180910390a4612ea782888888888861354a565b50505050505050565b600060019054906101000a900460ff1680612ed6575060008054906101000a900460ff16155b612f15576040517f08c379a0000000000000000000000000000000000000000000000000000000008152600401612f0c90614ee2565b60405180910390fd5b60008060019054906101000a900460ff161590508015612f65576001600060016101000a81548160ff02191690831515021790555060016000806101000a81548160ff0219169083151502179055505b8015612f865760008060016101000a81548160ff0219169083151502179055505b50565b600060019054906101000a900460ff1680612faf575060008054906101000a900460ff16155b612fee576040517f08c379a0000000000000000000000000000000000000000000000000000000008152600401612fe590614ee2565b60405180910390fd5b60008060019054906101000a900460ff16159050801561303e576001600060016101000a81548160ff02191690831515021790555060016000806101000a81548160ff0219169083151502179055505b801561305f5760008060016101000a81548160ff0219169083151502179055505b50565b600060019054906101000a900460ff1680613088575060008054906101000a900460ff16155b6130c7576040517f08c379a00000000000000000000000000000000000000000000000000000000081526004016130be90614ee2565b60405180910390fd5b60008060019054906101000a900460ff161590508015613117576001600060016101000a81548160ff02191690831515021790555060016000806101000a81548160ff0219169083151502179055505b61312082613b0b565b80156131415760008060016101000a81548160ff0219169083151502179055505b5050565b60606000600167ffffffffffffffff81111561318a577f4e487b7100000000000000000000000000000000000000000000000000000000600052604160045260246000fd5b6040519080825280602002602001820160405280156131b85781602001602082028036833780820191505090505b50905082816000815181106131f6577f4e487b7100000000000000000000000000000000000000000000000000000000600052603260045260246000fd5b60200260200101818152505080915050919050565b613219868686868686613b25565b600073ffffffffffffffffffffffffffffffffffffffff168573ffffffffffffffffffffffffffffffffffffffff16141580156132835750600073ffffffffffffffffffffffffffffffffffffffff168473ffffffffffffffffffffffffffffffffffffffff1614155b15613542576000836000815181106132c4577f4e487b7100000000000000000000000000000000000000000000000000000000600052603260045260246000fd5b602002602001015114156133a95760011515609760149054906101000a900460ff161515148015613308575060001515609760159054906101000a900460ff161515145b156133a45761270f609c6000609854815260200190815260200160002060008673ffffffffffffffffffffffffffffffffffffffff1673ffffffffffffffffffffffffffffffffffffffff16815260200190815260200160002054116133a3576040517f08c379a000000000000000000000000000000000000000000000000000000000815260040161339a90614f42565b60405180910390fd5b5b61352c565b60011515609760159054906101000a900460ff1615151415613400576040517f08c379a00000000000000000000000000000000000000000000000000000000081526004016133f790615082565b60405180910390fd5b8160008151811061343a577f4e487b7100000000000000000000000000000000000000000000000000000000600052603260045260246000fd5b6020026020010151609b6000609854815260200190815260200160002060008773ffffffffffffffffffffffffffffffffffffffff1673ffffffffffffffffffffffffffffffffffffffff168152602001908152602001600020546134e087866000815181106134d3577f4e487b7100000000000000000000000000000000000000000000000000000000600052603260045260246000fd5b6020026020010151610689565b6134ea91906152cf565b101561352b576040517f08c379a000000000000000000000000000000000000000000000000000000000815260040161352290614e02565b60405180910390fd5b5b61354084609d6122a290919063ffffffff16565b505b505050505050565b6135698473ffffffffffffffffffffffffffffffffffffffff16613b2d565b15613729578373ffffffffffffffffffffffffffffffffffffffff1663f23a6e6187878686866040518663ffffffff1660e01b81526004016135af959493929190614c09565b602060405180830381600087803b1580156135c957600080fd5b505af19250505080156135fa57506040513d601f19601f820116820180604052508101906135f7919061448f565b60015b6136a057613606615573565b806308c379a01415613663575061361b615bf1565b806136265750613665565b806040517f08c379a000000000000000000000000000000000000000000000000000000000815260040161365a9190614d60565b60405180910390fd5b505b6040517f08c379a000000000000000000000000000000000000000000000000000000000815260040161369790614d82565b60405180910390fd5b63f23a6e6160e01b7bffffffffffffffffffffffffffffffffffffffffffffffffffffffff1916817bffffffffffffffffffffffffffffffffffffffffffffffffffffffff191614613727576040517f08c379a000000000000000000000000000000000000000000000000000000000815260040161371e90614da2565b60405180910390fd5b505b505050505050565b600061373d8383613b40565b61379657826000018290806001815401808255809150506001900390600052602060002001600090919091909150558260000180549050836001016000848152602001908152602001600020819055506001905061379b565b600090505b92915050565b6000808360020160008481526020019081526020016000205490506000801b811415806137d457506137d38484613b63565b5b613813576040517f08c379a000000000000000000000000000000000000000000000000000000000815260040161380a90614fc2565b60405180910390fd5b8091505092915050565b61383c8473ffffffffffffffffffffffffffffffffffffffff16613b2d565b156139fc578373ffffffffffffffffffffffffffffffffffffffff1663bc197c8187878686866040518663ffffffff1660e01b8152600401613882959493929190614b33565b602060405180830381600087803b15801561389c57600080fd5b505af19250505080156138cd57506040513d601f19601f820116820180604052508101906138ca919061448f565b60015b613973576138d9615573565b806308c379a0141561393657506138ee615bf1565b806138f95750613938565b806040517f08c379a000000000000000000000000000000000000000000000000000000000815260040161392d9190614d60565b60405180910390fd5b505b6040517f08c379a000000000000000000000000000000000000000000000000000000000815260040161396a90614d82565b60405180910390fd5b63bc197c8160e01b7bffffffffffffffffffffffffffffffffffffffffffffffffffffffff1916817bffffffffffffffffffffffffffffffffffffffffffffffffffffffff1916146139fa576040517f08c379a00000000000000000000000000000000000000000000000000000000081526004016139f190614da2565b60405180910390fd5b505b505050505050565b6000613a138360000183613b83565b60001c905092915050565b6000613a46836000018373ffffffffffffffffffffffffffffffffffffffff1660001b613bd4565b905092915050565b606081600001805480602002602001604051908101604052809291908181526020018280548015613a9e57602002820191906000526020600020905b815481526020019060010190808311613a8a575b50505050509050919050565b600081600001805490509050919050565b6000613ac982600001613d5a565b9050919050565b60008184600201600085815260200190815260200160002081905550613b028385600001613d6f90919063ffffffff16565b90509392505050565b8060679080519060200190613b21929190613d9d565b5050565b505050505050565b600080823b905060008111915050919050565b600080836001016000848152602001908152602001600020541415905092915050565b6000613b7b8284600001613d8690919063ffffffff16565b905092915050565b6000826000018281548110613bc1577f4e487b7100000000000000000000000000000000000000000000000000000000600052603260045260246000fd5b9060005260206000200154905092915050565b60008083600101600084815260200190815260200160002054905060008114613d4e576000600182613c0691906152cf565b9050600060018660000180549050613c1e91906152cf565b9050818114613cd9576000866000018281548110613c65577f4e487b7100000000000000000000000000000000000000000000000000000000600052603260045260246000fd5b9060005260206000200154905080876000018481548110613caf577f4e487b7100000000000000000000000000000000000000000000000000000000600052603260045260246000fd5b90600052602060002001819055508387600101600083815260200190815260200160002081905550505b85600001805480613d13577f4e487b7100000000000000000000000000000000000000000000000000000000600052603160045260246000fd5b600190038181906000526020600020016000905590558560010160008681526020019081526020016000206000905560019350505050613d54565b60009150505b92915050565b6000613d6882600001613aaa565b9050919050565b6000613d7e8360000183613731565b905092915050565b6000613d958360000183613b40565b905092915050565b828054613da99061540f565b90600052602060002090601f016020900481019282613dcb5760008555613e12565b82601f10613de457805160ff1916838001178555613e12565b82800160010185558215613e12579182015b82811115613e11578251825591602001919060010190613df6565b5b509050613e1f9190613e23565b5090565b5b80821115613e3c576000816000905550600101613e24565b5090565b6000613e53613e4e84615146565b615121565b90508083825260208201905082856020860282011115613e7257600080fd5b60005b85811015613ea25781613e888882613f56565b845260208401935060208301925050600181019050613e75565b5050509392505050565b6000613ebf613eba84615172565b615121565b90508083825260208201905082856020860282011115613ede57600080fd5b60005b85811015613f0e5781613ef48882614087565b845260208401935060208301925050600181019050613ee1565b5050509392505050565b6000613f2b613f268461519e565b615121565b905082815260208101848484011115613f4357600080fd5b613f4e8482856153cd565b509392505050565b600081359050613f6581615c87565b92915050565b600082601f830112613f7c57600080fd5b8135613f8c848260208601613e40565b91505092915050565b600082601f830112613fa657600080fd5b8135613fb6848260208601613eac565b91505092915050565b600081359050613fce81615c9e565b92915050565b600081359050613fe381615cb5565b92915050565b600081519050613ff881615cb5565b92915050565b600082601f83011261400f57600080fd5b813561401f848260208601613f18565b91505092915050565b60008083601f84011261403a57600080fd5b8235905067ffffffffffffffff81111561405357600080fd5b60208301915083600182028301111561406b57600080fd5b9250929050565b60008135905061408181615ccc565b92915050565b60008135905061409681615ce3565b92915050565b6000815190506140ab81615ce3565b92915050565b6000602082840312156140c357600080fd5b60006140d184828501613f56565b91505092915050565b600080604083850312156140ed57600080fd5b60006140fb85828601613f56565b925050602061410c85828601613f56565b9150509250929050565b600080600080600060a0868803121561412e57600080fd5b600061413c88828901613f56565b955050602061414d88828901613f56565b945050604086013567ffffffffffffffff81111561416a57600080fd5b61417688828901613f95565b935050606086013567ffffffffffffffff81111561419357600080fd5b61419f88828901613f95565b925050608086013567ffffffffffffffff8111156141bc57600080fd5b6141c888828901613ffe565b9150509295509295909350565b6000806000806000608086880312156141ed57600080fd5b60006141fb88828901613f56565b955050602061420c88828901613f56565b945050604086013567ffffffffffffffff81111561422957600080fd5b61423588828901614028565b9350935050606061424888828901614072565b9150509295509295909350565b600080600080600060a0868803121561426d57600080fd5b600061427b88828901613f56565b955050602061428c88828901613f56565b945050604061429d88828901614087565b93505060606142ae88828901614087565b925050608086013567ffffffffffffffff8111156142cb57600080fd5b6142d788828901613ffe565b9150509295509295909350565b600080604083850312156142f757600080fd5b600061430585828601613f56565b925050602061431685828601613fbf565b9150509250929050565b6000806040838503121561433357600080fd5b600061434185828601613f56565b925050602061435285828601614087565b9150509250929050565b60008060006060848603121561437157600080fd5b600061437f86828701613f56565b935050602061439086828701614087565b92505060406143a186828701613f56565b9150509250925092565b6000806000606084860312156143c057600080fd5b60006143ce86828701613f56565b93505060206143df86828701614087565b92505060406143f086828701614087565b9150509250925092565b6000806040838503121561440d57600080fd5b600083013567ffffffffffffffff81111561442757600080fd5b61443385828601613f6b565b925050602083013567ffffffffffffffff81111561445057600080fd5b61445c85828601613f95565b9150509250929050565b60006020828403121561447857600080fd5b600061448684828501613fd4565b91505092915050565b6000602082840312156144a157600080fd5b60006144af84828501613fe9565b91505092915050565b6000602082840312156144ca57600080fd5b60006144d884828501614072565b91505092915050565b6000602082840312156144f357600080fd5b600061450184828501614087565b91505092915050565b60006020828403121561451c57600080fd5b600061452a8482850161409c565b91505092915050565b6000806040838503121561454657600080fd5b600061455485828601614087565b925050602061456585828601613f56565b9150509250929050565b600061457b83836145ae565b60208301905092915050565b60006145938383614ab5565b60208301905092915050565b6145a881615385565b82525050565b6145b781615303565b82525050565b6145c681615303565b82525050565b60006145d7826151ef565b6145e18185615235565b93506145ec836151cf565b8060005b8381101561461d578151614604888261456f565b975061460f8361521b565b9250506001810190506145f0565b5085935050505092915050565b6000614635826151fa565b61463f8185615246565b935061464a836151df565b8060005b8381101561467b5781516146628882614587565b975061466d83615228565b92505060018101905061464e565b5085935050505092915050565b61469181615315565b82525050565b60006146a282615205565b6146ac8185615257565b93506146bc8185602086016153dc565b6146c581615595565b840191505092915050565b6146d981615397565b82525050565b60006146ea82615210565b6146f48185615268565b93506147048185602086016153dc565b61470d81615595565b840191505092915050565b6000614725603483615268565b9150614730826155b3565b604082019050919050565b6000614748602883615268565b915061475382615602565b604082019050919050565b600061476b602b83615268565b915061477682615651565b604082019050919050565b600061478e602483615268565b9150614799826156a0565b604082019050919050565b60006147b1600c83615268565b91506147bc826156ef565b602082019050919050565b60006147d4600a83615268565b91506147df82615718565b602082019050919050565b60006147f7602983615268565b915061480282615741565b604082019050919050565b600061481a600e83615268565b915061482582615790565b602082019050919050565b600061483d601683615268565b9150614848826157b9565b602082019050919050565b6000614860602583615268565b915061486b826157e2565b604082019050919050565b6000614883603283615268565b915061488e82615831565b604082019050919050565b60006148a6602e83615268565b91506148b182615880565b604082019050919050565b60006148c9602383615268565b91506148d4826158cf565b604082019050919050565b60006148ec602a83615268565b91506148f78261591e565b604082019050919050565b600061490f600c83615268565b915061491a8261596d565b602082019050919050565b6000614932600b83615268565b915061493d82615996565b602082019050919050565b6000614955601483615268565b9150614960826159bf565b602082019050919050565b6000614978600c83615268565b9150614983826159e8565b602082019050919050565b600061499b601e83615268565b91506149a682615a11565b602082019050919050565b60006149be600983615268565b91506149c982615a3a565b602082019050919050565b60006149e1602983615268565b91506149ec82615a63565b604082019050919050565b6000614a04602983615268565b9150614a0f82615ab2565b604082019050919050565b6000614a27602883615268565b9150614a3282615b01565b604082019050919050565b6000614a4a602183615268565b9150614a5582615b50565b604082019050919050565b6000614a6d600c83615268565b9150614a7882615b9f565b602082019050919050565b6000614a90600983615268565b9150614a9b82615bc8565b602082019050919050565b614aaf8161534d565b82525050565b614abe8161537b565b82525050565b614acd8161537b565b82525050565b6000602082019050614ae860008301846145bd565b92915050565b6000608082019050614b0360008301876145bd565b614b10602083018661459f565b614b1d6040830185614ac4565b614b2a6060830184614688565b95945050505050565b600060a082019050614b4860008301886145bd565b614b5560208301876145bd565b8181036040830152614b67818661462a565b90508181036060830152614b7b818561462a565b90508181036080830152614b8f8184614697565b90509695505050505050565b6000606082019050614bb060008301866145bd565b614bbd60208301856145bd565b614bca60408301846146d0565b949350505050565b6000606082019050614be760008301866145bd565b614bf460208301856145bd565b614c016040830184614ac4565b949350505050565b600060a082019050614c1e60008301886145bd565b614c2b60208301876145bd565b614c386040830186614ac4565b614c456060830185614ac4565b8181036080830152614c578184614697565b90509695505050505050565b6000604082019050614c7860008301856145bd565b614c8560208301846146d0565b9392505050565b6000604082019050614ca160008301856145bd565b614cae6020830184614ac4565b9392505050565b60006040820190508181036000830152614ccf81856145cc565b90508181036020830152614ce3818461462a565b90509392505050565b60006020820190508181036000830152614d06818461462a565b905092915050565b60006040820190508181036000830152614d28818561462a565b90508181036020830152614d3c818461462a565b90509392505050565b6000602082019050614d5a6000830184614688565b92915050565b60006020820190508181036000830152614d7a81846146df565b905092915050565b60006020820190508181036000830152614d9b81614718565b9050919050565b60006020820190508181036000830152614dbb8161473b565b9050919050565b60006020820190508181036000830152614ddb8161475e565b9050919050565b60006020820190508181036000830152614dfb81614781565b9050919050565b60006020820190508181036000830152614e1b816147a4565b9050919050565b60006020820190508181036000830152614e3b816147c7565b9050919050565b60006020820190508181036000830152614e5b816147ea565b9050919050565b60006020820190508181036000830152614e7b8161480d565b9050919050565b60006020820190508181036000830152614e9b81614830565b9050919050565b60006020820190508181036000830152614ebb81614853565b9050919050565b60006020820190508181036000830152614edb81614876565b9050919050565b60006020820190508181036000830152614efb81614899565b9050919050565b60006020820190508181036000830152614f1b816148bc565b9050919050565b60006020820190508181036000830152614f3b816148df565b9050919050565b60006020820190508181036000830152614f5b81614902565b9050919050565b60006020820190508181036000830152614f7b81614925565b9050919050565b60006020820190508181036000830152614f9b81614948565b9050919050565b60006020820190508181036000830152614fbb8161496b565b9050919050565b60006020820190508181036000830152614fdb8161498e565b9050919050565b60006020820190508181036000830152614ffb816149b1565b9050919050565b6000602082019050818103600083015261501b816149d4565b9050919050565b6000602082019050818103600083015261503b816149f7565b9050919050565b6000602082019050818103600083015261505b81614a1a565b9050919050565b6000602082019050818103600083015261507b81614a3d565b9050919050565b6000602082019050818103600083015261509b81614a60565b9050919050565b600060208201905081810360008301526150bb81614a83565b9050919050565b60006020820190506150d76000830184614aa6565b92915050565b60006020820190506150f26000830184614ac4565b92915050565b600060408201905061510d6000830185614ac4565b61511a6020830184614ac4565b9392505050565b600061512b61513c565b90506151378282615441565b919050565b6000604051905090565b600067ffffffffffffffff82111561516157615160615544565b5b602082029050602081019050919050565b600067ffffffffffffffff82111561518d5761518c615544565b5b602082029050602081019050919050565b600067ffffffffffffffff8211156151b9576151b8615544565b5b6151c282615595565b9050602081019050919050565b6000819050602082019050919050565b6000819050602082019050919050565b600081519050919050565b600081519050919050565b600081519050919050565b600081519050919050565b6000602082019050919050565b6000602082019050919050565b600082825260208201905092915050565b600082825260208201905092915050565b600082825260208201905092915050565b600082825260208201905092915050565b60006152848261537b565b915061528f8361537b565b9250827fffffffffffffffffffffffffffffffffffffffffffffffffffffffffffffffff038211156152c4576152c36154e6565b5b828201905092915050565b60006152da8261537b565b91506152e58361537b565b9250828210156152f8576152f76154e6565b5b828203905092915050565b600061530e8261535b565b9050919050565b60008115159050919050565b60007fffffffff0000000000000000000000000000000000000000000000000000000082169050919050565b600061ffff82169050919050565b600073ffffffffffffffffffffffffffffffffffffffff82169050919050565b6000819050919050565b6000615390826153a9565b9050919050565b60006153a28261537b565b9050919050565b60006153b4826153bb565b9050919050565b60006153c68261535b565b9050919050565b82818337600083830152505050565b60005b838110156153fa5780820151818401526020810190506153df565b83811115615409576000848401525b50505050565b6000600282049050600182168061542757607f821691505b6020821081141561543b5761543a615515565b5b50919050565b61544a82615595565b810181811067ffffffffffffffff8211171561546957615468615544565b5b80604052505050565b600061547d8261534d565b915061ffff821415615492576154916154e6565b5b600182019050919050565b60006154a88261537b565b91507fffffffffffffffffffffffffffffffffffffffffffffffffffffffffffffffff8214156154db576154da6154e6565b5b600182019050919050565b7f4e487b7100000000000000000000000000000000000000000000000000000000600052601160045260246000fd5b7f4e487b7100000000000000000000000000000000000000000000000000000000600052602260045260246000fd5b7f4e487b7100000000000000000000000000000000000000000000000000000000600052604160045260246000fd5b600060033d11156155925760046000803e61558f6000516155a6565b90505b90565b6000601f19601f8301169050919050565b60008160e01c9050919050565b7f455243313135353a207472616e7366657220746f206e6f6e204552433131353560008201527f526563656976657220696d706c656d656e746572000000000000000000000000602082015250565b7f455243313135353a204552433131353552656365697665722072656a6563746560008201527f6420746f6b656e73000000000000000000000000000000000000000000000000602082015250565b7f455243313135353a2062616c616e636520717565727920666f7220746865207a60008201527f65726f2061646472657373000000000000000000000000000000000000000000602082015250565b7f455243313135353a206275726e20616d6f756e7420657863656564732062616c60008201527f616e636500000000000000000000000000000000000000000000000000000000602082015250565b7f616d6f756e742077726f6e670000000000000000000000000000000000000000600082015250565b7f696e646578207573656400000000000000000000000000000000000000000000600082015250565b7f455243313135353a2063616c6c6572206973206e6f74206f776e6572206e6f7260008201527f20617070726f7665640000000000000000000000000000000000000000000000602082015250565b7f6672616b74696f6e616c697a6564000000000000000000000000000000000000600082015250565b7f455243313136373a20637265617465206661696c656400000000000000000000600082015250565b7f455243313135353a207472616e7366657220746f20746865207a65726f20616460008201527f6472657373000000000000000000000000000000000000000000000000000000602082015250565b7f455243313135353a207472616e736665722063616c6c6572206973206e6f742060008201527f6f776e6572206e6f7220617070726f7665640000000000000000000000000000602082015250565b7f496e697469616c697a61626c653a20636f6e747261637420697320616c72656160008201527f647920696e697469616c697a6564000000000000000000000000000000000000602082015250565b7f455243313135353a206275726e2066726f6d20746865207a65726f206164647260008201527f6573730000000000000000000000000000000000000000000000000000000000602082015250565b7f455243313135353a20696e73756666696369656e742062616c616e636520666f60008201527f72207472616e7366657200000000000000000000000000000000000000000000602082015250565b7f6e6f7420617070726f76616c0000000000000000000000000000000000000000600082015250565b7f4e6f742062616c616e6365000000000000000000000000000000000000000000600082015250565b7f4e6f74206672616b74696f6e616c697a61626c65000000000000000000000000600082015250565b7f6e6f7420617070726f7665640000000000000000000000000000000000000000600082015250565b7f456e756d657261626c654d61703a206e6f6e6578697374656e74206b65790000600082015250565b7f6974656d20736f6c640000000000000000000000000000000000000000000000600082015250565b7f455243313135353a2073657474696e6720617070726f76616c2073746174757360008201527f20666f722073656c660000000000000000000000000000000000000000000000602082015250565b7f455243313135353a206163636f756e747320616e6420696473206c656e67746860008201527f206d69736d617463680000000000000000000000000000000000000000000000602082015250565b7f455243313135353a2069647320616e6420616d6f756e7473206c656e6774682060008201527f6d69736d61746368000000000000000000000000000000000000000000000000602082015250565b7f455243313135353a206d696e7420746f20746865207a65726f2061646472657360008201527f7300000000000000000000000000000000000000000000000000000000000000602082015250565b7f6974656d20697320736f6c640000000000000000000000000000000000000000600082015250565b7f6e6f74206f776e65720000000000000000000000000000000000000000000000600082015250565b600060443d1015615c0157615c84565b615c0961513c565b60043d036004823e80513d602482011167ffffffffffffffff82111715615c31575050615c84565b808201805167ffffffffffffffff811115615c4f5750505050615c84565b80602083010160043d038501811115615c6c575050505050615c84565b615c7b82602001850186615441565b82955050505050505b90565b615c9081615303565b8114615c9b57600080fd5b50565b615ca781615315565b8114615cb257600080fd5b50565b615cbe81615321565b8114615cc957600080fd5b50565b615cd58161534d565b8114615ce057600080fd5b50565b615cec8161537b565b8114615cf757600080fd5b5056fea2646970667358221220d0567e0238dd7af043a7fb2bb2c7d5c94746bfda139ba4f0a7a93b91b5cbbe4964736f6c63430008040033",
  "linkReferences": {},
  "deployedLinkReferences": {}
}