{
  "_format": "hh-sol-artifact-1",
  "contractName": "PaymentSplitterUpgradeable",
  "sourceName": "contracts/PaymentSplitterUpgradeable.sol",
  "abi": [
    {
      "anonymous": false,
      "inputs": [
        {
          "indexed": false,
          "internalType": "address",
          "name": "account",
          "type": "address"
        },
        {
          "indexed": false,
          "internalType": "uint256",
          "name": "shares",
          "type": "uint256"
        }
      ],
      "name": "PayeeAdded",
      "type": "event"
    },
    {
      "anonymous": false,
      "inputs": [
        {
          "indexed": false,
          "internalType": "address",
          "name": "from",
          "type": "address"
        },
        {
          "indexed": false,
          "internalType": "uint256",
          "name": "amount",
          "type": "uint256"
        }
      ],
      "name": "PaymentReceived",
      "type": "event"
    },
    {
      "anonymous": false,
      "inputs": [
        {
          "indexed": false,
          "internalType": "address",
          "name": "to",
          "type": "address"
        },
        {
          "indexed": false,
          "internalType": "uint256",
          "name": "amount",
          "type": "uint256"
        }
      ],
      "name": "PaymentReleased",
      "type": "event"
    },
    {
      "inputs": [],
      "name": "buyout",
      "outputs": [
        {
          "internalType": "bool",
          "name": "",
          "type": "bool"
        }
      ],
      "stateMutability": "view",
      "type": "function"
    },
    {
      "inputs": [
        {
          "internalType": "address[]",
          "name": "payees",
          "type": "address[]"
        },
        {
          "internalType": "uint256[]",
          "name": "shares_",
          "type": "uint256[]"
        }
      ],
      "name": "init",
      "outputs": [],
      "stateMutability": "nonpayable",
      "type": "function"
    },
    {
      "inputs": [
        {
          "internalType": "uint256",
          "name": "index",
          "type": "uint256"
        }
      ],
      "name": "payee",
      "outputs": [
        {
          "internalType": "address",
          "name": "",
          "type": "address"
        }
      ],
      "stateMutability": "view",
      "type": "function"
    },
    {
      "inputs": [],
      "name": "release",
      "outputs": [],
      "stateMutability": "nonpayable",
      "type": "function"
    },
    {
      "inputs": [
        {
          "internalType": "address",
          "name": "account",
          "type": "address"
        }
      ],
      "name": "released",
      "outputs": [
        {
          "internalType": "uint256",
          "name": "",
          "type": "uint256"
        }
      ],
      "stateMutability": "view",
      "type": "function"
    },
    {
      "inputs": [
        {
          "internalType": "address",
          "name": "account",
          "type": "address"
        }
      ],
      "name": "shares",
      "outputs": [
        {
          "internalType": "uint256",
          "name": "",
          "type": "uint256"
        }
      ],
      "stateMutability": "view",
      "type": "function"
    },
    {
      "inputs": [],
      "name": "totalReleased",
      "outputs": [
        {
          "internalType": "uint256",
          "name": "",
          "type": "uint256"
        }
      ],
      "stateMutability": "view",
      "type": "function"
    },
    {
      "inputs": [],
      "name": "totalShares",
      "outputs": [
        {
          "internalType": "uint256",
          "name": "",
          "type": "uint256"
        }
      ],
      "stateMutability": "view",
      "type": "function"
    },
    {
      "stateMutability": "payable",
      "type": "receive"
    }
  ],
  "bytecode": "0x608060405234801561001057600080fd5b50611d79806100206000396000f3fe60806040526004361061007f5760003560e01c80638b83209b1161004e5780638b83209b146101615780639852595c1461019e578063ce7c2ac2146101db578063e33b7de314610218576100c6565b8063371aa158146100cb5780633a98ef39146100f45780635c4bfa101461011f57806386d1a69f1461014a576100c6565b366100c6577f6ef95f06320e7a25a04a175ca677b7052bdd97131872c2192525a629f51be7706100ad610243565b346040516100bc92919061153d565b60405180910390a1005b600080fd5b3480156100d757600080fd5b506100f260048036038101906100ed9190611240565b61024b565b005b34801561010057600080fd5b506101096104a1565b60405161011691906116f8565b60405180910390f35b34801561012b57600080fd5b506101346104ab565b604051610141919061159d565b60405180910390f35b34801561015657600080fd5b5061015f6104be565b005b34801561016d57600080fd5b50610188600480360381019061018391906112d5565b610899565b60405161019591906114f9565b60405180910390f35b3480156101aa57600080fd5b506101c560048036038101906101c09190611217565b610907565b6040516101d291906116f8565b60405180910390f35b3480156101e757600080fd5b5061020260048036038101906101fd9190611217565b610950565b60405161020f91906116f8565b60405180910390f35b34801561022457600080fd5b5061022d610999565b60405161023a91906116f8565b60405180910390f35b600033905090565b600060019054906101000a900460ff1680610271575060008054906101000a900460ff16155b6102b0576040517f08c379a00000000000000000000000000000000000000000000000000000000081526004016102a790611658565b60405180910390fd5b60008060019054906101000a900460ff161590508015610300576001600060016101000a81548160ff02191690831515021790555060016000806101000a81548160ff0219169083151502179055505b61030a83836109a3565b610312610243565b603860006101000a81548173ffffffffffffffffffffffffffffffffffffffff021916908373ffffffffffffffffffffffffffffffffffffffff16021790555061035a610243565b73ffffffffffffffffffffffffffffffffffffffff1663fdc6597a6040518163ffffffff1660e01b815260040160206040518083038186803b15801561039f57600080fd5b505afa1580156103b3573d6000803e3d6000fd5b505050506040513d601f19601f820116820180604052508101906103d791906112fe565b6039819055506103e5610243565b73ffffffffffffffffffffffffffffffffffffffff16634e69d5606040518163ffffffff1660e01b815260040160206040518083038186803b15801561042a57600080fd5b505afa15801561043e573d6000803e3d6000fd5b505050506040513d601f19601f8201168201806040525081019061046291906112ac565b603a60006101000a81548160ff021916908315150217905550801561049c5760008060016101000a81548160ff0219169083151502179055505b505050565b6000603354905090565b603a60009054906101000a900460ff1681565b60006104c8610243565b90506000603560008373ffffffffffffffffffffffffffffffffffffffff1673ffffffffffffffffffffffffffffffffffffffff168152602001908152602001600020541161054c576040517f08c379a0000000000000000000000000000000000000000000000000000000008152600401610543906115f8565b60405180910390fd5b603a60009054906101000a900460ff16156106b3576000603860009054906101000a900473ffffffffffffffffffffffffffffffffffffffff1673ffffffffffffffffffffffffffffffffffffffff16635fd715956105a9610243565b6040518263ffffffff1660e01b81526004016105c591906114f9565b60206040518083038186803b1580156105dd57600080fd5b505afa1580156105f1573d6000803e3d6000fd5b505050506040513d601f19601f8201168201806040525081019061061591906112fe565b9050603860009054906101000a900473ffffffffffffffffffffffffffffffffffffffff1673ffffffffffffffffffffffffffffffffffffffff16634b4b502561065d610243565b603954846040518463ffffffff1660e01b815260040161067f93929190611566565b600060405180830381600087803b15801561069957600080fd5b505af11580156106ad573d6000803e3d6000fd5b50505050505b6000603454476106c391906117ac565b90506000603660008473ffffffffffffffffffffffffffffffffffffffff1673ffffffffffffffffffffffffffffffffffffffff16815260200190815260200160002054603354603560008673ffffffffffffffffffffffffffffffffffffffff1673ffffffffffffffffffffffffffffffffffffffff16815260200190815260200160002054846107559190611833565b61075f9190611802565b610769919061188d565b905060008114156107af576040517f08c379a00000000000000000000000000000000000000000000000000000000081526004016107a6906115d8565b60405180910390fd5b80603660008573ffffffffffffffffffffffffffffffffffffffff1673ffffffffffffffffffffffffffffffffffffffff168152602001908152602001600020546107fa91906117ac565b603660008573ffffffffffffffffffffffffffffffffffffffff1673ffffffffffffffffffffffffffffffffffffffff168152602001908152602001600020819055508060345461084b91906117ac565b60348190555061085b8382610a90565b7fdf20fd1e76bc69d672e4814fafb2c449bba3a5369d8359adf9e05e6fde87b056838260405161088c929190611514565b60405180910390a1505050565b6000603782815481106108d5577f4e487b7100000000000000000000000000000000000000000000000000000000600052603260045260246000fd5b9060005260206000200160009054906101000a900473ffffffffffffffffffffffffffffffffffffffff169050919050565b6000603660008373ffffffffffffffffffffffffffffffffffffffff1673ffffffffffffffffffffffffffffffffffffffff168152602001908152602001600020549050919050565b6000603560008373ffffffffffffffffffffffffffffffffffffffff1673ffffffffffffffffffffffffffffffffffffffff168152602001908152602001600020549050919050565b6000603454905090565b600060019054906101000a900460ff16806109c9575060008054906101000a900460ff16155b610a08576040517f08c379a00000000000000000000000000000000000000000000000000000000081526004016109ff90611658565b60405180910390fd5b60008060019054906101000a900460ff161590508015610a58576001600060016101000a81548160ff02191690831515021790555060016000806101000a81548160ff0219169083151502179055505b610a60610b84565b610a6a8383610c5d565b8015610a8b5760008060016101000a81548160ff0219169083151502179055505b505050565b80471015610ad3576040517f08c379a0000000000000000000000000000000000000000000000000000000008152600401610aca90611638565b60405180910390fd5b60008273ffffffffffffffffffffffffffffffffffffffff1682604051610af9906114e4565b60006040518083038185875af1925050503d8060008114610b36576040519150601f19603f3d011682016040523d82523d6000602084013e610b3b565b606091505b5050905080610b7f576040517f08c379a0000000000000000000000000000000000000000000000000000000008152600401610b7690611618565b60405180910390fd5b505050565b600060019054906101000a900460ff1680610baa575060008054906101000a900460ff16155b610be9576040517f08c379a0000000000000000000000000000000000000000000000000000000008152600401610be090611658565b60405180910390fd5b60008060019054906101000a900460ff161590508015610c39576001600060016101000a81548160ff02191690831515021790555060016000806101000a81548160ff0219169083151502179055505b8015610c5a5760008060016101000a81548160ff0219169083151502179055505b50565b600060019054906101000a900460ff1680610c83575060008054906101000a900460ff16155b610cc2576040517f08c379a0000000000000000000000000000000000000000000000000000000008152600401610cb990611658565b60405180910390fd5b60008060019054906101000a900460ff161590508015610d12576001600060016101000a81548160ff02191690831515021790555060016000806101000a81548160ff0219169083151502179055505b8151835114610d56576040517f08c379a0000000000000000000000000000000000000000000000000000000008152600401610d4d90611678565b60405180910390fd5b6000835111610d9a576040517f08c379a0000000000000000000000000000000000000000000000000000000008152600401610d91906116b8565b60405180910390fd5b60005b8351811015610e4357610e30848281518110610de2577f4e487b7100000000000000000000000000000000000000000000000000000000600052603260045260246000fd5b6020026020010151848381518110610e23577f4e487b7100000000000000000000000000000000000000000000000000000000600052603260045260246000fd5b6020026020010151610e6a565b8080610e3b90611970565b915050610d9d565b508015610e655760008060016101000a81548160ff0219169083151502179055505b505050565b600073ffffffffffffffffffffffffffffffffffffffff168273ffffffffffffffffffffffffffffffffffffffff161415610eda576040517f08c379a0000000000000000000000000000000000000000000000000000000008152600401610ed1906115b8565b60405180910390fd5b60008111610f1d576040517f08c379a0000000000000000000000000000000000000000000000000000000008152600401610f14906116d8565b60405180910390fd5b6000603560008473ffffffffffffffffffffffffffffffffffffffff1673ffffffffffffffffffffffffffffffffffffffff1681526020019081526020016000205414610f9f576040517f08c379a0000000000000000000000000000000000000000000000000000000008152600401610f9690611698565b60405180910390fd5b6037829080600181540180825580915050600190039060005260206000200160009091909190916101000a81548173ffffffffffffffffffffffffffffffffffffffff021916908373ffffffffffffffffffffffffffffffffffffffff16021790555080603560008473ffffffffffffffffffffffffffffffffffffffff1673ffffffffffffffffffffffffffffffffffffffff168152602001908152602001600020819055508060335461105491906117ac565b6033819055507f40c340f65e17194d14ddddb073d3c9f888e3cb52b5aae0c6c7706b4fbc905fac828260405161108b92919061153d565b60405180910390a15050565b60006110aa6110a584611738565b611713565b905080838252602082019050828560208602820111156110c957600080fd5b60005b858110156110f957816110df888261116f565b8452602084019350602083019250506001810190506110cc565b5050509392505050565b600061111661111184611764565b611713565b9050808382526020820190508285602086028201111561113557600080fd5b60005b85811015611165578161114b88826111ed565b845260208401935060208301925050600181019050611138565b5050509392505050565b60008135905061117e81611cfe565b92915050565b600082601f83011261119557600080fd5b81356111a5848260208601611097565b91505092915050565b600082601f8301126111bf57600080fd5b81356111cf848260208601611103565b91505092915050565b6000815190506111e781611d15565b92915050565b6000813590506111fc81611d2c565b92915050565b60008151905061121181611d2c565b92915050565b60006020828403121561122957600080fd5b60006112378482850161116f565b91505092915050565b6000806040838503121561125357600080fd5b600083013567ffffffffffffffff81111561126d57600080fd5b61127985828601611184565b925050602083013567ffffffffffffffff81111561129657600080fd5b6112a2858286016111ae565b9150509250929050565b6000602082840312156112be57600080fd5b60006112cc848285016111d8565b91505092915050565b6000602082840312156112e757600080fd5b60006112f5848285016111ed565b91505092915050565b60006020828403121561131057600080fd5b600061131e84828501611202565b91505092915050565b61133081611909565b82525050565b61133f816118c1565b82525050565b61134e816118d3565b82525050565b6000611361602c8361179b565b915061136c82611a57565b604082019050919050565b6000611384602c8361179b565b915061138f82611aa6565b604082019050919050565b60006113a760268361179b565b91506113b282611af5565b604082019050919050565b60006113ca603a8361179b565b91506113d582611b44565b604082019050919050565b60006113ed601d8361179b565b91506113f882611b93565b602082019050919050565b6000611410602e8361179b565b915061141b82611bbc565b604082019050919050565b600061143360328361179b565b915061143e82611c0b565b604082019050919050565b6000611456600083611790565b915061146182611c5a565b600082019050919050565b6000611479602b8361179b565b915061148482611c5d565b604082019050919050565b600061149c601a8361179b565b91506114a782611cac565b602082019050919050565b60006114bf601d8361179b565b91506114ca82611cd5565b602082019050919050565b6114de816118ff565b82525050565b60006114ef82611449565b9150819050919050565b600060208201905061150e6000830184611336565b92915050565b60006040820190506115296000830185611327565b61153660208301846114d5565b9392505050565b60006040820190506115526000830185611336565b61155f60208301846114d5565b9392505050565b600060608201905061157b6000830186611336565b61158860208301856114d5565b61159560408301846114d5565b949350505050565b60006020820190506115b26000830184611345565b92915050565b600060208201905081810360008301526115d181611354565b9050919050565b600060208201905081810360008301526115f181611377565b9050919050565b600060208201905081810360008301526116118161139a565b9050919050565b60006020820190508181036000830152611631816113bd565b9050919050565b60006020820190508181036000830152611651816113e0565b9050919050565b6000602082019050818103600083015261167181611403565b9050919050565b6000602082019050818103600083015261169181611426565b9050919050565b600060208201905081810360008301526116b18161146c565b9050919050565b600060208201905081810360008301526116d18161148f565b9050919050565b600060208201905081810360008301526116f1816114b2565b9050919050565b600060208201905061170d60008301846114d5565b92915050565b600061171d61172e565b9050611729828261193f565b919050565b6000604051905090565b600067ffffffffffffffff82111561175357611752611a17565b5b602082029050602081019050919050565b600067ffffffffffffffff82111561177f5761177e611a17565b5b602082029050602081019050919050565b600081905092915050565b600082825260208201905092915050565b60006117b7826118ff565b91506117c2836118ff565b9250827fffffffffffffffffffffffffffffffffffffffffffffffffffffffffffffffff038211156117f7576117f66119b9565b5b828201905092915050565b600061180d826118ff565b9150611818836118ff565b925082611828576118276119e8565b5b828204905092915050565b600061183e826118ff565b9150611849836118ff565b9250817fffffffffffffffffffffffffffffffffffffffffffffffffffffffffffffffff0483118215151615611882576118816119b9565b5b828202905092915050565b6000611898826118ff565b91506118a3836118ff565b9250828210156118b6576118b56119b9565b5b828203905092915050565b60006118cc826118df565b9050919050565b60008115159050919050565b600073ffffffffffffffffffffffffffffffffffffffff82169050919050565b6000819050919050565b60006119148261191b565b9050919050565b60006119268261192d565b9050919050565b6000611938826118df565b9050919050565b61194882611a46565b810181811067ffffffffffffffff8211171561196757611966611a17565b5b80604052505050565b600061197b826118ff565b91507fffffffffffffffffffffffffffffffffffffffffffffffffffffffffffffffff8214156119ae576119ad6119b9565b5b600182019050919050565b7f4e487b7100000000000000000000000000000000000000000000000000000000600052601160045260246000fd5b7f4e487b7100000000000000000000000000000000000000000000000000000000600052601260045260246000fd5b7f4e487b7100000000000000000000000000000000000000000000000000000000600052604160045260246000fd5b6000601f19601f8301169050919050565b7f5061796d656e7453706c69747465723a206163636f756e74206973207468652060008201527f7a65726f20616464726573730000000000000000000000000000000000000000602082015250565b7f5061796d656e7453706c69747465723a206f70657261746f72206973206e6f7460008201527f20647565207061796d656e740000000000000000000000000000000000000000602082015250565b7f5061796d656e7453706c69747465723a206163636f756e7420686173206e6f2060008201527f7368617265730000000000000000000000000000000000000000000000000000602082015250565b7f416464726573733a20756e61626c6520746f2073656e642076616c75652c207260008201527f6563697069656e74206d61792068617665207265766572746564000000000000602082015250565b7f416464726573733a20696e73756666696369656e742062616c616e6365000000600082015250565b7f496e697469616c697a61626c653a20636f6e747261637420697320616c72656160008201527f647920696e697469616c697a6564000000000000000000000000000000000000602082015250565b7f5061796d656e7453706c69747465723a2070617965657320616e64207368617260008201527f6573206c656e677468206d69736d617463680000000000000000000000000000602082015250565b50565b7f5061796d656e7453706c69747465723a206163636f756e7420616c726561647960008201527f2068617320736861726573000000000000000000000000000000000000000000602082015250565b7f5061796d656e7453706c69747465723a206e6f20706179656573000000000000600082015250565b7f5061796d656e7453706c69747465723a20736861726573206172652030000000600082015250565b611d07816118c1565b8114611d1257600080fd5b50565b611d1e816118d3565b8114611d2957600080fd5b50565b611d35816118ff565b8114611d4057600080fd5b5056fea2646970667358221220b5a3ae342c9b4695ac43de4ffef5193679b679a7275b240949d5e7222900836f64736f6c63430008040033",
  "linkReferences": {},
  "deployedLinkReferences": {}
}