{
  "_format": "hh-sol-artifact-1",
  "contractName": "FraktalMarket",
  "sourceName": "contracts/FraktalMarket.sol",
  "abi": [
    {
      "anonymous": false,
      "inputs": [
        {
          "indexed": false,
          "internalType": "uint256",
          "name": "feesAccrued",
          "type": "uint256"
        }
      ],
      "name": "AdminWithdrawFees",
      "type": "event"
    },
    {
      "anonymous": false,
      "inputs": [
        {
          "indexed": false,
          "internalType": "address",
          "name": "buyer",
          "type": "address"
        },
        {
          "indexed": false,
          "internalType": "address",
          "name": "seller",
          "type": "address"
        },
        {
          "indexed": false,
          "internalType": "address",
          "name": "tokenAddress",
          "type": "address"
        },
        {
          "indexed": false,
          "internalType": "uint256",
          "name": "numberOfShares",
          "type": "uint256"
        }
      ],
      "name": "Bought",
      "type": "event"
    },
    {
      "anonymous": false,
      "inputs": [
        {
          "indexed": false,
          "internalType": "uint16",
          "name": "newFee",
          "type": "uint16"
        }
      ],
      "name": "FeeUpdated",
      "type": "event"
    },
    {
      "anonymous": false,
      "inputs": [
        {
          "indexed": false,
          "internalType": "address",
          "name": "owner",
          "type": "address"
        },
        {
          "indexed": false,
          "internalType": "address",
          "name": "tokenAddress",
          "type": "address"
        }
      ],
      "name": "FraktalClaimed",
      "type": "event"
    },
    {
      "anonymous": false,
      "inputs": [
        {
          "indexed": false,
          "internalType": "address",
          "name": "owner",
          "type": "address"
        },
        {
          "indexed": false,
          "internalType": "address",
          "name": "tokenAddress",
          "type": "address"
        },
        {
          "indexed": false,
          "internalType": "uint256",
          "name": "price",
          "type": "uint256"
        },
        {
          "indexed": false,
          "internalType": "uint256",
          "name": "amountOfShares",
          "type": "uint256"
        }
      ],
      "name": "ItemListed",
      "type": "event"
    },
    {
      "anonymous": false,
      "inputs": [
        {
          "indexed": false,
          "internalType": "address",
          "name": "offerer",
          "type": "address"
        },
        {
          "indexed": false,
          "internalType": "address",
          "name": "tokenAddress",
          "type": "address"
        },
        {
          "indexed": false,
          "internalType": "uint256",
          "name": "value",
          "type": "uint256"
        }
      ],
      "name": "OfferMade",
      "type": "event"
    },
    {
      "anonymous": false,
      "inputs": [
        {
          "indexed": true,
          "internalType": "address",
          "name": "previousOwner",
          "type": "address"
        },
        {
          "indexed": true,
          "internalType": "address",
          "name": "newOwner",
          "type": "address"
        }
      ],
      "name": "OwnershipTransferred",
      "type": "event"
    },
    {
      "anonymous": false,
      "inputs": [
        {
          "indexed": false,
          "internalType": "address",
          "name": "seller",
          "type": "address"
        },
        {
          "indexed": false,
          "internalType": "uint256",
          "name": "balance",
          "type": "uint256"
        }
      ],
      "name": "SellerPaymentPull",
      "type": "event"
    },
    {
      "inputs": [
        {
          "internalType": "address",
          "name": "from",
          "type": "address"
        },
        {
          "internalType": "address",
          "name": "tokenAddress",
          "type": "address"
        },
        {
          "internalType": "uint256",
          "name": "_numberOfShares",
          "type": "uint256"
        }
      ],
      "name": "buyFraktions",
      "outputs": [],
      "stateMutability": "payable",
      "type": "function"
    },
    {
      "inputs": [
        {
          "internalType": "address",
          "name": "tokenAddress",
          "type": "address"
        }
      ],
      "name": "claimFraktal",
      "outputs": [],
      "stateMutability": "nonpayable",
      "type": "function"
    },
    {
      "inputs": [],
      "name": "fee",
      "outputs": [
        {
          "internalType": "uint16",
          "name": "",
          "type": "uint16"
        }
      ],
      "stateMutability": "view",
      "type": "function"
    },
    {
      "inputs": [],
      "name": "getFee",
      "outputs": [
        {
          "internalType": "uint256",
          "name": "",
          "type": "uint256"
        }
      ],
      "stateMutability": "view",
      "type": "function"
    },
    {
      "inputs": [
        {
          "internalType": "address",
          "name": "_listOwner",
          "type": "address"
        },
        {
          "internalType": "address",
          "name": "tokenAddress",
          "type": "address"
        }
      ],
      "name": "getListingAmount",
      "outputs": [
        {
          "internalType": "uint256",
          "name": "",
          "type": "uint256"
        }
      ],
      "stateMutability": "view",
      "type": "function"
    },
    {
      "inputs": [
        {
          "internalType": "address",
          "name": "_listOwner",
          "type": "address"
        },
        {
          "internalType": "address",
          "name": "tokenAddress",
          "type": "address"
        }
      ],
      "name": "getListingPrice",
      "outputs": [
        {
          "internalType": "uint256",
          "name": "",
          "type": "uint256"
        }
      ],
      "stateMutability": "view",
      "type": "function"
    },
    {
      "inputs": [
        {
          "internalType": "address",
          "name": "offerer",
          "type": "address"
        },
        {
          "internalType": "address",
          "name": "tokenAddress",
          "type": "address"
        }
      ],
      "name": "getOffer",
      "outputs": [
        {
          "internalType": "uint256",
          "name": "",
          "type": "uint256"
        }
      ],
      "stateMutability": "view",
      "type": "function"
    },
    {
      "inputs": [
        {
          "internalType": "address",
          "name": "_who",
          "type": "address"
        }
      ],
      "name": "getSellerBalance",
      "outputs": [
        {
          "internalType": "uint256",
          "name": "",
          "type": "uint256"
        }
      ],
      "stateMutability": "view",
      "type": "function"
    },
    {
      "inputs": [
        {
          "internalType": "address",
          "name": "tokenAddress",
          "type": "address"
        },
        {
          "internalType": "uint256",
          "name": "fraktionsIndex",
          "type": "uint256"
        }
      ],
      "name": "importFraktal",
      "outputs": [],
      "stateMutability": "nonpayable",
      "type": "function"
    },
    {
      "inputs": [],
      "name": "initialize",
      "outputs": [],
      "stateMutability": "nonpayable",
      "type": "function"
    },
    {
      "inputs": [
        {
          "internalType": "address",
          "name": "_tokenAddress",
          "type": "address"
        },
        {
          "internalType": "uint256",
          "name": "_price",
          "type": "uint256"
        },
        {
          "internalType": "uint256",
          "name": "_numberOfShares",
          "type": "uint256"
        }
      ],
      "name": "listItem",
      "outputs": [
        {
          "internalType": "bool",
          "name": "",
          "type": "bool"
        }
      ],
      "stateMutability": "nonpayable",
      "type": "function"
    },
    {
      "inputs": [
        {
          "internalType": "address",
          "name": "tokenAddress",
          "type": "address"
        },
        {
          "internalType": "uint256",
          "name": "_value",
          "type": "uint256"
        }
      ],
      "name": "makeOffer",
      "outputs": [],
      "stateMutability": "payable",
      "type": "function"
    },
    {
      "inputs": [
        {
          "internalType": "address",
          "name": "",
          "type": "address"
        }
      ],
      "name": "maxPriceRegistered",
      "outputs": [
        {
          "internalType": "uint256",
          "name": "",
          "type": "uint256"
        }
      ],
      "stateMutability": "view",
      "type": "function"
    },
    {
      "inputs": [
        {
          "internalType": "address",
          "name": "",
          "type": "address"
        },
        {
          "internalType": "address",
          "name": "",
          "type": "address"
        }
      ],
      "name": "offers",
      "outputs": [
        {
          "internalType": "uint256",
          "name": "value",
          "type": "uint256"
        },
        {
          "internalType": "bool",
          "name": "winner",
          "type": "bool"
        }
      ],
      "stateMutability": "view",
      "type": "function"
    },
    {
      "inputs": [
        {
          "internalType": "address",
          "name": "",
          "type": "address"
        },
        {
          "internalType": "address",
          "name": "",
          "type": "address"
        },
        {
          "internalType": "uint256[]",
          "name": "",
          "type": "uint256[]"
        },
        {
          "internalType": "uint256[]",
          "name": "",
          "type": "uint256[]"
        },
        {
          "internalType": "bytes",
          "name": "",
          "type": "bytes"
        }
      ],
      "name": "onERC1155BatchReceived",
      "outputs": [
        {
          "internalType": "bytes4",
          "name": "",
          "type": "bytes4"
        }
      ],
      "stateMutability": "nonpayable",
      "type": "function"
    },
    {
      "inputs": [
        {
          "internalType": "address",
          "name": "",
          "type": "address"
        },
        {
          "internalType": "address",
          "name": "",
          "type": "address"
        },
        {
          "internalType": "uint256",
          "name": "",
          "type": "uint256"
        },
        {
          "internalType": "uint256",
          "name": "",
          "type": "uint256"
        },
        {
          "internalType": "bytes",
          "name": "",
          "type": "bytes"
        }
      ],
      "name": "onERC1155Received",
      "outputs": [
        {
          "internalType": "bytes4",
          "name": "",
          "type": "bytes4"
        }
      ],
      "stateMutability": "nonpayable",
      "type": "function"
    },
    {
      "inputs": [],
      "name": "owner",
      "outputs": [
        {
          "internalType": "address",
          "name": "",
          "type": "address"
        }
      ],
      "stateMutability": "view",
      "type": "function"
    },
    {
      "inputs": [],
      "name": "renounceOwnership",
      "outputs": [],
      "stateMutability": "nonpayable",
      "type": "function"
    },
    {
      "inputs": [],
      "name": "rescueEth",
      "outputs": [],
      "stateMutability": "nonpayable",
      "type": "function"
    },
    {
      "inputs": [
        {
          "internalType": "address",
          "name": "",
          "type": "address"
        }
      ],
      "name": "sellersBalance",
      "outputs": [
        {
          "internalType": "uint256",
          "name": "",
          "type": "uint256"
        }
      ],
      "stateMutability": "view",
      "type": "function"
    },
    {
      "inputs": [
        {
          "internalType": "uint16",
          "name": "_newFee",
          "type": "uint16"
        }
      ],
      "name": "setFee",
      "outputs": [],
      "stateMutability": "nonpayable",
      "type": "function"
    },
    {
      "inputs": [
        {
          "internalType": "bytes4",
          "name": "interfaceId",
          "type": "bytes4"
        }
      ],
      "name": "supportsInterface",
      "outputs": [
        {
          "internalType": "bool",
          "name": "",
          "type": "bool"
        }
      ],
      "stateMutability": "view",
      "type": "function"
    },
    {
      "inputs": [
        {
          "internalType": "address",
          "name": "newOwner",
          "type": "address"
        }
      ],
      "name": "transferOwnership",
      "outputs": [],
      "stateMutability": "nonpayable",
      "type": "function"
    },
    {
      "inputs": [
        {
          "internalType": "address",
          "name": "tokenAddress",
          "type": "address"
        }
      ],
      "name": "unlistItem",
      "outputs": [],
      "stateMutability": "nonpayable",
      "type": "function"
    },
    {
      "inputs": [
        {
          "internalType": "address",
          "name": "offerer",
          "type": "address"
        },
        {
          "internalType": "address",
          "name": "tokenAddress",
          "type": "address"
        }
      ],
      "name": "voteOffer",
      "outputs": [],
      "stateMutability": "nonpayable",
      "type": "function"
    },
    {
      "inputs": [],
      "name": "withdrawAccruedFees",
      "outputs": [
        {
          "internalType": "bool",
          "name": "",
          "type": "bool"
        }
      ],
      "stateMutability": "nonpayable",
      "type": "function"
    }
  ],
  "bytecode": "0x60806040523480156200001157600080fd5b5062000032620000266200003f60201b60201c565b6200004760201b60201c565b600180819055506200010b565b600033905090565b60008060009054906101000a900473ffffffffffffffffffffffffffffffffffffffff169050816000806101000a81548173ffffffffffffffffffffffffffffffffffffffff021916908373ffffffffffffffffffffffffffffffffffffffff1602179055508173ffffffffffffffffffffffffffffffffffffffff168173ffffffffffffffffffffffffffffffffffffffff167f8be0079c531659141344cd1fd0a4f28419497f9722a3daafe3b4186f6b6457e060405160405180910390a35050565b61417e806200011b6000396000f3fe6080604052600436106101815760003560e01c8063967b82cf116100d1578063c9c61cc91161008a578063ddca3f4311610064578063ddca3f431461058b578063f23a6e61146105b6578063f2fde38b146105f3578063fa0e1d1c1461061c57610181565b8063c9c61cc91461050c578063ce31a06b14610549578063ced72f871461056057610181565b8063967b82cf146103e4578063a25700a214610422578063a4b488281461044b578063ada82c7d14610488578063b2a4706e146104b3578063bc197c81146104cf57610181565b806373758fef1161013e57806389bfd38f1161011857806389bfd38f146103165780638b38f3d2146103535780638da5cb5b146103905780638e005553146103bb57610181565b806373758fef146102995780637a641528146102d65780638129fc1c146102ff57610181565b806301ffc9a714610186578063077c8413146101c35780632148893f146101ec5780633af3eff114610229578063415e284114610266578063715018a614610282575b600080fd5b34801561019257600080fd5b506101ad60048036038101906101a89190613033565b610645565b6040516101ba91906136da565b60405180910390f35b3480156101cf57600080fd5b506101ea60048036038101906101e59190612d54565b6106bf565b005b3480156101f857600080fd5b50610213600480360381019061020e9190612d54565b610b5a565b604051610220919061396b565b60405180910390f35b34801561023557600080fd5b50610250600480360381019061024b9190612da6565b610ba3565b60405161025d919061396b565b60405180910390f35b610280600480360381019061027b9190612ea1565b610c2d565b005b34801561028e57600080fd5b50610297611125565b005b3480156102a557600080fd5b506102c060048036038101906102bb9190612da6565b6111ad565b6040516102cd919061396b565b60405180910390f35b3480156102e257600080fd5b506102fd60048036038101906102f89190612f7f565b611237565b005b34801561030b57600080fd5b50610314611415565b005b34801561032257600080fd5b5061033d60048036038101906103389190612fbb565b611510565b60405161034a91906136da565b60405180910390f35b34801561035f57600080fd5b5061037a60048036038101906103759190612d54565b611a9d565b604051610387919061396b565b60405180910390f35b34801561039c57600080fd5b506103a5611ab5565b6040516103b29190613420565b60405180910390f35b3480156103c757600080fd5b506103e260048036038101906103dd919061305c565b611ade565b005b3480156103f057600080fd5b5061040b60048036038101906104069190612da6565b611bf8565b6040516104199291906139af565b60405180910390f35b34801561042e57600080fd5b5061044960048036038101906104449190612da6565b611c36565b005b34801561045757600080fd5b50610472600480360381019061046d9190612da6565b612083565b60405161047f919061396b565b60405180910390f35b34801561049457600080fd5b5061049d61210d565b6040516104aa91906136da565b60405180910390f35b6104cd60048036038101906104c89190612f7f565b612245565b005b3480156104db57600080fd5b506104f660048036038101906104f19190612de2565b61254a565b60405161050391906136f5565b60405180910390f35b34801561051857600080fd5b50610533600480360381019061052e9190612d54565b61255f565b604051610540919061396b565b60405180910390f35b34801561055557600080fd5b5061055e612577565b005b34801561056c57600080fd5b50610575612746565b604051610582919061396b565b60405180910390f35b34801561059757600080fd5b506105a0612760565b6040516105ad9190613950565b60405180910390f35b3480156105c257600080fd5b506105dd60048036038101906105d89190612ef0565b612772565b6040516105ea91906136f5565b60405180910390f35b3480156105ff57600080fd5b5061061a60048036038101906106159190612d54565b612787565b005b34801561062857600080fd5b50610643600480360381019061063e9190612d54565b61287f565b005b60007f4e2312e0000000000000000000000000000000000000000000000000000000007bffffffffffffffffffffffffffffffffffffffffffffffffffffffff1916827bffffffffffffffffffffffffffffffffffffffffffffffffffffffff191614806106b857506106b782612984565b5b9050919050565b60008173ffffffffffffffffffffffffffffffffffffffff166368e984096040518163ffffffff1660e01b815260040160206040518083038186803b15801561070757600080fd5b505afa15801561071b573d6000803e3d6000fd5b505050506040513d601f19601f8201168201806040525081019061073f91906130ae565b90508173ffffffffffffffffffffffffffffffffffffffff166302c7e7af6040518163ffffffff1660e01b815260040160206040518083038186803b15801561078757600080fd5b505afa15801561079b573d6000803e3d6000fd5b505050506040513d601f19601f820116820180604052508101906107bf919061300a565b15610a9c576000600560006107d26129ee565b73ffffffffffffffffffffffffffffffffffffffff1673ffffffffffffffffffffffffffffffffffffffff16815260200190815260200160002060008473ffffffffffffffffffffffffffffffffffffffff1673ffffffffffffffffffffffffffffffffffffffff168152602001908152602001600020604051806040016040529081600082015481526020016001820160009054906101000a900460ff16151515158152505090508273ffffffffffffffffffffffffffffffffffffffff1663b6e54bdf6040518163ffffffff1660e01b815260040160206040518083038186803b1580156108c157600080fd5b505afa1580156108d5573d6000803e3d6000fd5b505050506040513d601f19601f820116820180604052508101906108f99190613085565b61ffff168373ffffffffffffffffffffffffffffffffffffffff1663820d3db9846109226129ee565b6040518363ffffffff1660e01b815260040161093f929190613986565b60206040518083038186803b15801561095757600080fd5b505afa15801561096b573d6000803e3d6000fd5b505050506040513d601f19601f8201168201806040525081019061098f91906130ae565b116109cf576040517f08c379a00000000000000000000000000000000000000000000000000000000081526004016109c690613810565b60405180910390fd5b8273ffffffffffffffffffffffffffffffffffffffff1663b3a4692c82600001516040518263ffffffff1660e01b81526004016020604051808303818588803b158015610a1b57600080fd5b505af1158015610a2f573d6000803e3d6000fd5b50505050506040513d601f19601f82011682018060405250810190610a549190612d7d565b506000600760008573ffffffffffffffffffffffffffffffffffffffff1673ffffffffffffffffffffffffffffffffffffffff16815260200190815260200160002081905550505b8173ffffffffffffffffffffffffffffffffffffffff1663f242432a30610ac16129ee565b600060016040518563ffffffff1660e01b8152600401610ae494939291906134ee565b600060405180830381600087803b158015610afe57600080fd5b505af1158015610b12573d6000803e3d6000fd5b505050507fb73e3428dd7e5858fa36c55a8bdaba9c60cd953ae72c4d2dc48eeaa1e224d52a610b3f6129ee565b83604051610b4e92919061343b565b60405180910390a15050565b6000600660008373ffffffffffffffffffffffffffffffffffffffff1673ffffffffffffffffffffffffffffffffffffffff168152602001908152602001600020549050919050565b6000600460008373ffffffffffffffffffffffffffffffffffffffff1673ffffffffffffffffffffffffffffffffffffffff16815260200190815260200160002060008473ffffffffffffffffffffffffffffffffffffffff1673ffffffffffffffffffffffffffffffffffffffff16815260200190815260200160002060020154905092915050565b60026001541415610c73576040517f08c379a0000000000000000000000000000000000000000000000000000000008152600401610c6a90613930565b60405180910390fd5b60026001819055506000600460008473ffffffffffffffffffffffffffffffffffffffff1673ffffffffffffffffffffffffffffffffffffffff16815260200190815260200160002060008573ffffffffffffffffffffffffffffffffffffffff1673ffffffffffffffffffffffffffffffffffffffff16815260200190815260200160002090508273ffffffffffffffffffffffffffffffffffffffff166302c7e7af6040518163ffffffff1660e01b815260040160206040518083038186803b158015610d4157600080fd5b505afa158015610d55573d6000803e3d6000fd5b505050506040513d601f19601f82011682018060405250810190610d79919061300a565b15610db9576040517f08c379a0000000000000000000000000000000000000000000000000000000008152600401610db0906138d0565b60405180910390fd5b8181600201541015610e00576040517f08c379a0000000000000000000000000000000000000000000000000000000008152600401610df7906138f0565b60405180910390fd5b6000828260010154610e129190613b0e565b9050600061271060028054906101000a900461ffff1661ffff1683610e379190613b0e565b610e419190613add565b905060008183610e519190613b68565b905060008673ffffffffffffffffffffffffffffffffffffffff166368e984096040518163ffffffff1660e01b815260040160206040518083038186803b158015610e9b57600080fd5b505afa158015610eaf573d6000803e3d6000fd5b505050506040513d601f19601f82011682018060405250810190610ed391906130ae565b905083341015610f18576040517f08c379a0000000000000000000000000000000000000000000000000000000008152600401610f0f90613890565b60405180910390fd5b858560020154610f289190613b68565b8560020181905550600760008873ffffffffffffffffffffffffffffffffffffffff1673ffffffffffffffffffffffffffffffffffffffff168152602001908152602001600020546127108660010154610f829190613b0e565b1115610fde576127108560010154610f9a9190613b0e565b600760008973ffffffffffffffffffffffffffffffffffffffff1673ffffffffffffffffffffffffffffffffffffffff168152602001908152602001600020819055505b8673ffffffffffffffffffffffffffffffffffffffff1663f242432a896110036129ee565b848a6040518563ffffffff1660e01b815260040161102494939291906135c2565b600060405180830381600087803b15801561103e57600080fd5b505af1158015611052573d6000803e3d6000fd5b5050505081346110629190613b68565b600360008282546110739190613a87565b9250508190555081600660008a73ffffffffffffffffffffffffffffffffffffffff1673ffffffffffffffffffffffffffffffffffffffff16815260200190815260200160002060008282546110c99190613a87565b925050819055507ffa945eefd5c2ddf8beb4fb7e15e2b5f2f295ba939c584a8a849e199aa767860c6110f96129ee565b89898960405161110c9493929190613464565b60405180910390a1505050505060018081905550505050565b61112d6129ee565b73ffffffffffffffffffffffffffffffffffffffff1661114b611ab5565b73ffffffffffffffffffffffffffffffffffffffff16146111a1576040517f08c379a000000000000000000000000000000000000000000000000000000000815260040161119890613870565b60405180910390fd5b6111ab60006129f6565b565b6000600460008373ffffffffffffffffffffffffffffffffffffffff1673ffffffffffffffffffffffffffffffffffffffff16815260200190815260200160002060008473ffffffffffffffffffffffffffffffffffffffff1673ffffffffffffffffffffffffffffffffffffffff16815260200190815260200160002060010154905092915050565b8173ffffffffffffffffffffffffffffffffffffffff1663f242432a61125b6129ee565b30600060016040518563ffffffff1660e01b815260040161127f94939291906134ee565b600060405180830381600087803b15801561129957600080fd5b505af11580156112ad573d6000803e3d6000fd5b505050508173ffffffffffffffffffffffffffffffffffffffff16638b4ae68c6112d56129ee565b836040518363ffffffff1660e01b81526004016112f392919061367a565b600060405180830381600087803b15801561130d57600080fd5b505af1158015611321573d6000803e3d6000fd5b505050508173ffffffffffffffffffffffffffffffffffffffff1663811ce7606113496129ee565b612710306040518463ffffffff1660e01b815260040161136b93929190613643565b600060405180830381600087803b15801561138557600080fd5b505af1158015611399573d6000803e3d6000fd5b505050508173ffffffffffffffffffffffffffffffffffffffff1663066f39bf6113c16129ee565b306040518363ffffffff1660e01b81526004016113df92919061343b565b600060405180830381600087803b1580156113f957600080fd5b505af115801561140d573d6000803e3d6000fd5b505050505050565b600260019054906101000a900460ff168061143d5750600260009054906101000a900460ff16155b61147c576040517f08c379a0000000000000000000000000000000000000000000000000000000008152600401611473906137f0565b60405180910390fd5b6000600260019054906101000a900460ff1615905080156114ce576001600260016101000a81548160ff0219169083151502179055506001600260006101000a81548160ff0219169083151502179055505b60646002806101000a81548161ffff021916908361ffff160217905550801561150d576000600260016101000a81548160ff0219169083151502179055505b50565b6000808473ffffffffffffffffffffffffffffffffffffffff166368e984096040518163ffffffff1660e01b815260040160206040518083038186803b15801561155957600080fd5b505afa15801561156d573d6000803e3d6000fd5b505050506040513d601f19601f8201168201806040525081019061159191906130ae565b905060018573ffffffffffffffffffffffffffffffffffffffff1662fdd58e3060006040518363ffffffff1660e01b81526004016115d092919061361a565b60206040518083038186803b1580156115e857600080fd5b505afa1580156115fc573d6000803e3d6000fd5b505050506040513d601f19601f8201168201806040525081019061162091906130ae565b14611660576040517f08c379a000000000000000000000000000000000000000000000000000000000815260040161165790613770565b60405180910390fd5b8473ffffffffffffffffffffffffffffffffffffffff166302c7e7af6040518163ffffffff1660e01b815260040160206040518083038186803b1580156116a657600080fd5b505afa1580156116ba573d6000803e3d6000fd5b505050506040513d601f19601f820116820180604052508101906116de919061300a565b1561171e576040517f08c379a0000000000000000000000000000000000000000000000000000000008152600401611715906138d0565b60405180910390fd5b828573ffffffffffffffffffffffffffffffffffffffff1662fdd58e6117426129ee565b846040518363ffffffff1660e01b815260040161176092919061367a565b60206040518083038186803b15801561177857600080fd5b505afa15801561178c573d6000803e3d6000fd5b505050506040513d601f19601f820116820180604052508101906117b091906130ae565b10156117f1576040517f08c379a00000000000000000000000000000000000000000000000000000000081526004016117e8906138b0565b60405180910390fd5b6000600460008773ffffffffffffffffffffffffffffffffffffffff1673ffffffffffffffffffffffffffffffffffffffff168152602001908152602001600020600061183c6129ee565b73ffffffffffffffffffffffffffffffffffffffff1673ffffffffffffffffffffffffffffffffffffffff1681526020019081526020016000206040518060600160405290816000820160009054906101000a900473ffffffffffffffffffffffffffffffffffffffff1673ffffffffffffffffffffffffffffffffffffffff1673ffffffffffffffffffffffffffffffffffffffff1681526020016001820154815260200160028201548152505090506000816040015114611934576040517f08c379a000000000000000000000000000000000000000000000000000000000815260040161192b90613850565b60405180910390fd5b600060405180606001604052808873ffffffffffffffffffffffffffffffffffffffff16815260200187815260200186815250905080600460008973ffffffffffffffffffffffffffffffffffffffff1673ffffffffffffffffffffffffffffffffffffffff16815260200190815260200160002060006119b36129ee565b73ffffffffffffffffffffffffffffffffffffffff1673ffffffffffffffffffffffffffffffffffffffff16815260200190815260200160002060008201518160000160006101000a81548173ffffffffffffffffffffffffffffffffffffffff021916908373ffffffffffffffffffffffffffffffffffffffff16021790555060208201518160010155604082015181600201559050507fd547e933094f12a9159076970143ebe73234e64480317844b0dcb36117116de4611a746129ee565b888888604051611a87949392919061357d565b60405180910390a1600193505050509392505050565b60066020528060005260406000206000915090505481565b60008060009054906101000a900473ffffffffffffffffffffffffffffffffffffffff16905090565b611ae66129ee565b73ffffffffffffffffffffffffffffffffffffffff16611b04611ab5565b73ffffffffffffffffffffffffffffffffffffffff1614611b5a576040517f08c379a0000000000000000000000000000000000000000000000000000000008152600401611b5190613870565b60405180910390fd5b60008161ffff161015611ba2576040517f08c379a0000000000000000000000000000000000000000000000000000000008152600401611b9990613710565b60405180910390fd5b806002806101000a81548161ffff021916908361ffff1602179055507fc8fcf8ee1425e7e60b8af83735e1eb516d5b9ef05bfd6eece552ebaeb7c75b4881604051611bed9190613950565b60405180910390a150565b6005602052816000526040600020602052806000526040600020600091509150508060000154908060010160009054906101000a900460ff16905082565b60008173ffffffffffffffffffffffffffffffffffffffff166368e984096040518163ffffffff1660e01b815260040160206040518083038186803b158015611c7e57600080fd5b505afa158015611c92573d6000803e3d6000fd5b505050506040513d601f19601f82011682018060405250810190611cb691906130ae565b90506000600560008573ffffffffffffffffffffffffffffffffffffffff1673ffffffffffffffffffffffffffffffffffffffff16815260200190815260200160002060008473ffffffffffffffffffffffffffffffffffffffff1673ffffffffffffffffffffffffffffffffffffffff168152602001908152602001600020905060008373ffffffffffffffffffffffffffffffffffffffff1663669ee0b584611d5f6129ee565b6040518363ffffffff1660e01b8152600401611d7c929190613986565b60206040518083038186803b158015611d9457600080fd5b505afa158015611da8573d6000803e3d6000fd5b505050506040513d601f19601f82011682018060405250810190611dcc91906130ae565b90506000818573ffffffffffffffffffffffffffffffffffffffff1662fdd58e611df46129ee565b876040518363ffffffff1660e01b8152600401611e1292919061367a565b60206040518083038186803b158015611e2a57600080fd5b505afa158015611e3e573d6000803e3d6000fd5b505050506040513d601f19601f82011682018060405250810190611e6291906130ae565b611e6c9190613b68565b90508473ffffffffffffffffffffffffffffffffffffffff1663811ce760611e926129ee565b83896040518463ffffffff1660e01b8152600401611eb2939291906136a3565b600060405180830381600087803b158015611ecc57600080fd5b505af1158015611ee0573d6000803e3d6000fd5b5050505060008573ffffffffffffffffffffffffffffffffffffffff1663820d3db986896040518363ffffffff1660e01b8152600401611f21929190613986565b60206040518083038186803b158015611f3957600080fd5b505afa158015611f4d573d6000803e3d6000fd5b505050506040513d601f19601f82011682018060405250810190611f7191906130ae565b90508573ffffffffffffffffffffffffffffffffffffffff1663b6e54bdf6040518163ffffffff1660e01b815260040160206040518083038186803b158015611fb957600080fd5b505afa158015611fcd573d6000803e3d6000fd5b505050506040513d601f19601f82011682018060405250810190611ff19190613085565b61ffff1681111561207a578573ffffffffffffffffffffffffffffffffffffffff1663fd0c060d6040518163ffffffff1660e01b8152600401600060405180830381600087803b15801561204457600080fd5b505af1158015612058573d6000803e3d6000fd5b5050505060018460010160006101000a81548160ff0219169083151502179055505b50505050505050565b6000600560008473ffffffffffffffffffffffffffffffffffffffff1673ffffffffffffffffffffffffffffffffffffffff16815260200190815260200160002060008373ffffffffffffffffffffffffffffffffffffffff1673ffffffffffffffffffffffffffffffffffffffff16815260200190815260200160002060000154905092915050565b60006121176129ee565b73ffffffffffffffffffffffffffffffffffffffff16612135611ab5565b73ffffffffffffffffffffffffffffffffffffffff161461218b576040517f08c379a000000000000000000000000000000000000000000000000000000000815260040161218290613870565b60405180910390fd5b600260015414156121d1576040517f08c379a00000000000000000000000000000000000000000000000000000000081526004016121c890613930565b60405180910390fd5b600260018190555060006121e36129ee565b90506000600354905060006003819055506121fe8282612aba565b7f47044c5eb61cda68097ee96190b2eb1ef7ae3ef989d4b2491baffd8f7799f8638160405161222d919061396b565b60405180910390a16001925050506001808190555090565b80341015612288576040517f08c379a000000000000000000000000000000000000000000000000000000000815260040161227f90613830565b60405180910390fd5b6000600560006122966129ee565b73ffffffffffffffffffffffffffffffffffffffff1673ffffffffffffffffffffffffffffffffffffffff16815260200190815260200160002060008473ffffffffffffffffffffffffffffffffffffffff1673ffffffffffffffffffffffffffffffffffffffff168152602001908152602001600020905060006123196129ee565b90508160010160009054906101000a900460ff161561236d576040517f08c379a0000000000000000000000000000000000000000000000000000000008152600401612364906137d0565b60405180910390fd5b8160000154831061241b57600760008573ffffffffffffffffffffffffffffffffffffffff1673ffffffffffffffffffffffffffffffffffffffff168152602001908152602001600020548310156123fa576040517f08c379a00000000000000000000000000000000000000000000000000000000081526004016123f190613910565b60405180910390fd5b81600001548361240a9190613b68565b34101561241657600080fd5b61243a565b600082600001549050600083600001819055506124388282612aba565b505b6040518060400160405280848152602001600015158152506005600061245e6129ee565b73ffffffffffffffffffffffffffffffffffffffff1673ffffffffffffffffffffffffffffffffffffffff16815260200190815260200160002060008673ffffffffffffffffffffffffffffffffffffffff1673ffffffffffffffffffffffffffffffffffffffff1681526020019081526020016000206000820151816000015560208201518160010160006101000a81548160ff0219169083151502179055509050507fba7256c19ec578f17e4fb0a5c7728cbb7ec23e09e6fb1fa84fae19a46d9e7f2a61252b6129ee565b858560405161253c93929190613546565b60405180910390a150505050565b600063bc197c8160e01b905095945050505050565b60076020528060005260406000206000915090505481565b600260015414156125bd576040517f08c379a00000000000000000000000000000000000000000000000000000000081526004016125b490613930565b60405180910390fd5b60026001819055506000600660006125d36129ee565b73ffffffffffffffffffffffffffffffffffffffff1673ffffffffffffffffffffffffffffffffffffffff168152602001908152602001600020541161264e576040517f08c379a000000000000000000000000000000000000000000000000000000000815260040161264590613730565b60405180910390fd5b60006126586129ee565b90506000600660006126686129ee565b73ffffffffffffffffffffffffffffffffffffffff1673ffffffffffffffffffffffffffffffffffffffff1681526020019081526020016000205490506000600660006126b36129ee565b73ffffffffffffffffffffffffffffffffffffffff1673ffffffffffffffffffffffffffffffffffffffff168152602001908152602001600020819055506126fb8282612aba565b7f4a9428d8b62f07c6d93da0a20fa45c49487489d49fb929783ae3771d9cf65cbf6127246129ee565b8260405161273392919061367a565b60405180910390a1505060018081905550565b600060028054906101000a900461ffff1661ffff16905090565b60028054906101000a900461ffff1681565b600063f23a6e6160e01b905095945050505050565b61278f6129ee565b73ffffffffffffffffffffffffffffffffffffffff166127ad611ab5565b73ffffffffffffffffffffffffffffffffffffffff1614612803576040517f08c379a00000000000000000000000000000000000000000000000000000000081526004016127fa90613870565b60405180910390fd5b600073ffffffffffffffffffffffffffffffffffffffff168173ffffffffffffffffffffffffffffffffffffffff161415612873576040517f08c379a000000000000000000000000000000000000000000000000000000000815260040161286a90613750565b60405180910390fd5b61287c816129f6565b50565b600460008273ffffffffffffffffffffffffffffffffffffffff1673ffffffffffffffffffffffffffffffffffffffff16815260200190815260200160002060006128c86129ee565b73ffffffffffffffffffffffffffffffffffffffff1673ffffffffffffffffffffffffffffffffffffffff168152602001908152602001600020600080820160006101000a81549073ffffffffffffffffffffffffffffffffffffffff02191690556001820160009055600282016000905550507fd547e933094f12a9159076970143ebe73234e64480317844b0dcb36117116de46129656129ee565b8260008060405161297994939291906134a9565b60405180910390a150565b60007f01ffc9a7000000000000000000000000000000000000000000000000000000007bffffffffffffffffffffffffffffffffffffffffffffffffffffffff1916827bffffffffffffffffffffffffffffffffffffffffffffffffffffffff1916149050919050565b600033905090565b60008060009054906101000a900473ffffffffffffffffffffffffffffffffffffffff169050816000806101000a81548173ffffffffffffffffffffffffffffffffffffffff021916908373ffffffffffffffffffffffffffffffffffffffff1602179055508173ffffffffffffffffffffffffffffffffffffffff168173ffffffffffffffffffffffffffffffffffffffff167f8be0079c531659141344cd1fd0a4f28419497f9722a3daafe3b4186f6b6457e060405160405180910390a35050565b80471015612afd576040517f08c379a0000000000000000000000000000000000000000000000000000000008152600401612af4906137b0565b60405180910390fd5b60008273ffffffffffffffffffffffffffffffffffffffff1682604051612b239061340b565b60006040518083038185875af1925050503d8060008114612b60576040519150601f19603f3d011682016040523d82523d6000602084013e612b65565b606091505b5050905080612ba9576040517f08c379a0000000000000000000000000000000000000000000000000000000008152600401612ba090613790565b60405180910390fd5b505050565b6000612bc1612bbc846139fd565b6139d8565b90508083825260208201905082856020860282011115612be057600080fd5b60005b85811015612c105781612bf68882612d2a565b845260208401935060208301925050600181019050612be3565b5050509392505050565b6000612c2d612c2884613a29565b6139d8565b905082815260208101848484011115612c4557600080fd5b612c50848285613c54565b509392505050565b600081359050612c67816140d5565b92915050565b600081519050612c7c816140d5565b92915050565b600082601f830112612c9357600080fd5b8135612ca3848260208601612bae565b91505092915050565b600081519050612cbb816140ec565b92915050565b600081359050612cd081614103565b92915050565b600082601f830112612ce757600080fd5b8135612cf7848260208601612c1a565b91505092915050565b600081359050612d0f8161411a565b92915050565b600081519050612d248161411a565b92915050565b600081359050612d3981614131565b92915050565b600081519050612d4e81614131565b92915050565b600060208284031215612d6657600080fd5b6000612d7484828501612c58565b91505092915050565b600060208284031215612d8f57600080fd5b6000612d9d84828501612c6d565b91505092915050565b60008060408385031215612db957600080fd5b6000612dc785828601612c58565b9250506020612dd885828601612c58565b9150509250929050565b600080600080600060a08688031215612dfa57600080fd5b6000612e0888828901612c58565b9550506020612e1988828901612c58565b945050604086013567ffffffffffffffff811115612e3657600080fd5b612e4288828901612c82565b935050606086013567ffffffffffffffff811115612e5f57600080fd5b612e6b88828901612c82565b925050608086013567ffffffffffffffff811115612e8857600080fd5b612e9488828901612cd6565b9150509295509295909350565b600080600060608486031215612eb657600080fd5b6000612ec486828701612c58565b9350506020612ed586828701612c58565b9250506040612ee686828701612d2a565b9150509250925092565b600080600080600060a08688031215612f0857600080fd5b6000612f1688828901612c58565b9550506020612f2788828901612c58565b9450506040612f3888828901612d2a565b9350506060612f4988828901612d2a565b925050608086013567ffffffffffffffff811115612f6657600080fd5b612f7288828901612cd6565b9150509295509295909350565b60008060408385031215612f9257600080fd5b6000612fa085828601612c58565b9250506020612fb185828601612d2a565b9150509250929050565b600080600060608486031215612fd057600080fd5b6000612fde86828701612c58565b9350506020612fef86828701612d2a565b925050604061300086828701612d2a565b9150509250925092565b60006020828403121561301c57600080fd5b600061302a84828501612cac565b91505092915050565b60006020828403121561304557600080fd5b600061305384828501612cc1565b91505092915050565b60006020828403121561306e57600080fd5b600061307c84828501612d00565b91505092915050565b60006020828403121561309757600080fd5b60006130a584828501612d15565b91505092915050565b6000602082840312156130c057600080fd5b60006130ce84828501612d3f565b91505092915050565b6130e081613b9c565b82525050565b6130ef81613bae565b82525050565b6130fe81613bba565b82525050565b61310d81613c1e565b82525050565b61311c81613c30565b82525050565b61312b81613c42565b82525050565b600061313e602a83613a76565b915061314982613d32565b604082019050919050565b6000613161601a83613a76565b915061316c82613d81565b602082019050919050565b6000613184602683613a76565b915061318f82613daa565b604082019050919050565b60006131a7601183613a76565b91506131b282613df9565b602082019050919050565b60006131ca603a83613a76565b91506131d582613e22565b604082019050919050565b60006131ed601d83613a76565b91506131f882613e71565b602082019050919050565b6000613210600e83613a76565b915061321b82613e9a565b602082019050919050565b6000613233602e83613a76565b915061323e82613ec3565b604082019050919050565b6000613256600983613a76565b915061326182613f12565b602082019050919050565b6000613279600683613a76565b915061328482613f3b565b602082019050919050565b600061329c600c83613a76565b91506132a782613f64565b602082019050919050565b60006132bf602083613a76565b91506132ca82613f8d565b602082019050919050565b60006132e2602183613a76565b91506132ed82613fb6565b604082019050919050565b6000613305601283613a76565b915061331082614005565b602082019050919050565b6000613328600083613a5a565b91506133338261402e565b600082019050919050565b600061334b600083613a6b565b91506133568261402e565b600082019050919050565b600061336e600983613a76565b915061337982614031565b602082019050919050565b6000613391601c83613a76565b915061339c8261405a565b602082019050919050565b60006133b4600983613a76565b91506133bf82614083565b602082019050919050565b60006133d7601f83613a76565b91506133e2826140ac565b602082019050919050565b6133f681613be6565b82525050565b61340581613c14565b82525050565b60006134168261333e565b9150819050919050565b600060208201905061343560008301846130d7565b92915050565b600060408201905061345060008301856130d7565b61345d60208301846130d7565b9392505050565b600060808201905061347960008301876130d7565b61348660208301866130d7565b61349360408301856130d7565b6134a060608301846133fc565b95945050505050565b60006080820190506134be60008301876130d7565b6134cb60208301866130d7565b6134d86040830185613104565b6134e56060830184613104565b95945050505050565b600060a08201905061350360008301876130d7565b61351060208301866130d7565b61351d6040830185613104565b61352a6060830184613122565b818103608083015261353b8161331b565b905095945050505050565b600060608201905061355b60008301866130d7565b61356860208301856130d7565b61357560408301846133fc565b949350505050565b600060808201905061359260008301876130d7565b61359f60208301866130d7565b6135ac60408301856133fc565b6135b960608301846133fc565b95945050505050565b600060a0820190506135d760008301876130d7565b6135e460208301866130d7565b6135f160408301856133fc565b6135fe60608301846133fc565b818103608083015261360f8161331b565b905095945050505050565b600060408201905061362f60008301856130d7565b61363c6020830184613104565b9392505050565b600060608201905061365860008301866130d7565b6136656020830185613113565b61367260408301846130d7565b949350505050565b600060408201905061368f60008301856130d7565b61369c60208301846133fc565b9392505050565b60006060820190506136b860008301866130d7565b6136c560208301856133fc565b6136d260408301846130d7565b949350505050565b60006020820190506136ef60008301846130e6565b92915050565b600060208201905061370a60008301846130f5565b92915050565b6000602082019050818103600083015261372981613131565b9050919050565b6000602082019050818103600083015261374981613154565b9050919050565b6000602082019050818103600083015261376981613177565b9050919050565b600060208201905081810360008301526137898161319a565b9050919050565b600060208201905081810360008301526137a9816131bd565b9050919050565b600060208201905081810360008301526137c9816131e0565b9050919050565b600060208201905081810360008301526137e981613203565b9050919050565b6000602082019050818103600083015261380981613226565b9050919050565b6000602082019050818103600083015261382981613249565b9050919050565b600060208201905081810360008301526138498161326c565b9050919050565b600060208201905081810360008301526138698161328f565b9050919050565b60006020820190508181036000830152613889816132b2565b9050919050565b600060208201905081810360008301526138a9816132d5565b9050919050565b600060208201905081810360008301526138c9816132f8565b9050919050565b600060208201905081810360008301526138e981613361565b9050919050565b6000602082019050818103600083015261390981613384565b9050919050565b60006020820190508181036000830152613929816133a7565b9050919050565b60006020820190508181036000830152613949816133ca565b9050919050565b600060208201905061396560008301846133ed565b92915050565b600060208201905061398060008301846133fc565b92915050565b600060408201905061399b60008301856133fc565b6139a860208301846130d7565b9392505050565b60006040820190506139c460008301856133fc565b6139d160208301846130e6565b9392505050565b60006139e26139f3565b90506139ee8282613c63565b919050565b6000604051905090565b600067ffffffffffffffff821115613a1857613a17613cf2565b5b602082029050602081019050919050565b600067ffffffffffffffff821115613a4457613a43613cf2565b5b613a4d82613d21565b9050602081019050919050565b600082825260208201905092915050565b600081905092915050565b600082825260208201905092915050565b6000613a9282613c14565b9150613a9d83613c14565b9250827fffffffffffffffffffffffffffffffffffffffffffffffffffffffffffffffff03821115613ad257613ad1613c94565b5b828201905092915050565b6000613ae882613c14565b9150613af383613c14565b925082613b0357613b02613cc3565b5b828204905092915050565b6000613b1982613c14565b9150613b2483613c14565b9250817fffffffffffffffffffffffffffffffffffffffffffffffffffffffffffffffff0483118215151615613b5d57613b5c613c94565b5b828202905092915050565b6000613b7382613c14565b9150613b7e83613c14565b925082821015613b9157613b90613c94565b5b828203905092915050565b6000613ba782613bf4565b9050919050565b60008115159050919050565b60007fffffffff0000000000000000000000000000000000000000000000000000000082169050919050565b600061ffff82169050919050565b600073ffffffffffffffffffffffffffffffffffffffff82169050919050565b6000819050919050565b6000613c2982613c14565b9050919050565b6000613c3b82613c14565b9050919050565b6000613c4d82613c14565b9050919050565b82818337600083830152505050565b613c6c82613d21565b810181811067ffffffffffffffff82111715613c8b57613c8a613cf2565b5b80604052505050565b7f4e487b7100000000000000000000000000000000000000000000000000000000600052601160045260246000fd5b7f4e487b7100000000000000000000000000000000000000000000000000000000600052601260045260246000fd5b7f4e487b7100000000000000000000000000000000000000000000000000000000600052604160045260246000fd5b6000601f19601f8301169050919050565b7f4672616b74616c4d61726b65743a206e6567617469766520666565206e6f742060008201527f61636365707461626c6500000000000000000000000000000000000000000000602082015250565b7f596f7520646f6e74206861766520616e7920746f20636c61696d000000000000600082015250565b7f4f776e61626c653a206e6577206f776e657220697320746865207a65726f206160008201527f6464726573730000000000000000000000000000000000000000000000000000602082015250565b7f6e6674206e6f7420696e206d61726b6574000000000000000000000000000000600082015250565b7f416464726573733a20756e61626c6520746f2073656e642076616c75652c207260008201527f6563697069656e74206d61792068617665207265766572746564000000000000602082015250565b7f416464726573733a20696e73756666696369656e742062616c616e6365000000600082015250565b7f6f66666572206163636570746564000000000000000000000000000000000000600082015250565b7f496e697469616c697a61626c653a20636f6e747261637420697320616c72656160008201527f647920696e697469616c697a6564000000000000000000000000000000000000602082015250565b7f6e6f742062757965720000000000000000000000000000000000000000000000600082015250565b7f4e6f207061790000000000000000000000000000000000000000000000000000600082015250565b7f756e6c6973742066697273740000000000000000000000000000000000000000600082015250565b7f4f776e61626c653a2063616c6c6572206973206e6f7420746865206f776e6572600082015250565b7f4672616b74616c4d61726b65743a20696e73756666696369656e742066756e6460008201527f7300000000000000000000000000000000000000000000000000000000000000602082015250565b7f6e6f2076616c6964204672616b74696f6e730000000000000000000000000000600082015250565b50565b7f6974656d20736f6c640000000000000000000000000000000000000000000000600082015250565b7f4e6f7420656e6f756768204672616b74696f6e73206f6e2073616c6500000000600082015250565b7f4d696e206f666665720000000000000000000000000000000000000000000000600082015250565b7f5265656e7472616e637947756172643a207265656e7472616e742063616c6c00600082015250565b6140de81613b9c565b81146140e957600080fd5b50565b6140f581613bae565b811461410057600080fd5b50565b61410c81613bba565b811461411757600080fd5b50565b61412381613be6565b811461412e57600080fd5b50565b61413a81613c14565b811461414557600080fd5b5056fea264697066735822122076b70f0bc586abad7b37c251083359e24e7fdde35aa82b1e77a5a3d37aa3a41364736f6c63430008040033",
  "linkReferences": {},
  "deployedLinkReferences": {}
}