{
  "_format": "hh-sol-artifact-1",
  "contractName": "FraktalMarket",
  "sourceName": "contracts/FraktalMarket.sol",
  "abi": [
    {
      "anonymous": false,
      "inputs": [
        {
          "indexed": false,
          "internalType": "uint256",
          "name": "feesAccrued",
          "type": "uint256"
        }
      ],
      "name": "AdminWithdrawFees",
      "type": "event"
    },
    {
      "anonymous": false,
      "inputs": [
        {
          "indexed": false,
          "internalType": "address",
          "name": "buyer",
          "type": "address"
        },
        {
          "indexed": false,
          "internalType": "address",
          "name": "seller",
          "type": "address"
        },
        {
          "indexed": false,
          "internalType": "address",
          "name": "tokenAddress",
          "type": "address"
        },
        {
          "indexed": false,
          "internalType": "uint256",
          "name": "numberOfShares",
          "type": "uint256"
        }
      ],
      "name": "Bought",
      "type": "event"
    },
    {
      "anonymous": false,
      "inputs": [
        {
          "indexed": false,
          "internalType": "uint16",
          "name": "newFee",
          "type": "uint16"
        }
      ],
      "name": "FeeUpdated",
      "type": "event"
    },
    {
      "anonymous": false,
      "inputs": [
        {
          "indexed": false,
          "internalType": "address",
          "name": "owner",
          "type": "address"
        },
        {
          "indexed": false,
          "internalType": "address",
          "name": "tokenAddress",
          "type": "address"
        }
      ],
      "name": "FraktalClaimed",
      "type": "event"
    },
    {
      "anonymous": false,
      "inputs": [
        {
          "indexed": false,
          "internalType": "address",
          "name": "owner",
          "type": "address"
        },
        {
          "indexed": false,
          "internalType": "address",
          "name": "tokenAddress",
          "type": "address"
        },
        {
          "indexed": false,
          "internalType": "uint256",
          "name": "price",
          "type": "uint256"
        },
        {
          "indexed": false,
          "internalType": "uint256",
          "name": "amountOfShares",
          "type": "uint256"
        }
      ],
      "name": "ItemListed",
      "type": "event"
    },
    {
      "anonymous": false,
      "inputs": [
        {
          "indexed": false,
          "internalType": "address",
          "name": "offerer",
          "type": "address"
        },
        {
          "indexed": false,
          "internalType": "address",
          "name": "tokenAddress",
          "type": "address"
        },
        {
          "indexed": false,
          "internalType": "uint256",
          "name": "value",
          "type": "uint256"
        }
      ],
      "name": "OfferMade",
      "type": "event"
    },
    {
      "anonymous": false,
      "inputs": [
        {
          "indexed": true,
          "internalType": "address",
          "name": "previousOwner",
          "type": "address"
        },
        {
          "indexed": true,
          "internalType": "address",
          "name": "newOwner",
          "type": "address"
        }
      ],
      "name": "OwnershipTransferred",
      "type": "event"
    },
    {
      "anonymous": false,
      "inputs": [
        {
          "indexed": false,
          "internalType": "address",
          "name": "seller",
          "type": "address"
        },
        {
          "indexed": false,
          "internalType": "uint256",
          "name": "balance",
          "type": "uint256"
        }
      ],
      "name": "SellerPaymentPull",
      "type": "event"
    },
    {
      "inputs": [
        {
          "internalType": "address",
          "name": "from",
          "type": "address"
        },
        {
          "internalType": "address",
          "name": "tokenAddress",
          "type": "address"
        },
        {
          "internalType": "uint256",
          "name": "_numberOfShares",
          "type": "uint256"
        }
      ],
      "name": "buyFraktions",
      "outputs": [],
      "stateMutability": "payable",
      "type": "function"
    },
    {
      "inputs": [
        {
          "internalType": "address",
          "name": "tokenAddress",
          "type": "address"
        }
      ],
      "name": "claimFraktal",
      "outputs": [],
      "stateMutability": "nonpayable",
      "type": "function"
    },
    {
      "inputs": [],
      "name": "fee",
      "outputs": [
        {
          "internalType": "uint16",
          "name": "",
          "type": "uint16"
        }
      ],
      "stateMutability": "view",
      "type": "function"
    },
    {
      "inputs": [],
      "name": "getFee",
      "outputs": [
        {
          "internalType": "uint256",
          "name": "",
          "type": "uint256"
        }
      ],
      "stateMutability": "view",
      "type": "function"
    },
    {
      "inputs": [
        {
          "internalType": "address",
          "name": "_listOwner",
          "type": "address"
        },
        {
          "internalType": "address",
          "name": "tokenAddress",
          "type": "address"
        }
      ],
      "name": "getListingAmount",
      "outputs": [
        {
          "internalType": "uint256",
          "name": "",
          "type": "uint256"
        }
      ],
      "stateMutability": "view",
      "type": "function"
    },
    {
      "inputs": [
        {
          "internalType": "address",
          "name": "_listOwner",
          "type": "address"
        },
        {
          "internalType": "address",
          "name": "tokenAddress",
          "type": "address"
        }
      ],
      "name": "getListingPrice",
      "outputs": [
        {
          "internalType": "uint256",
          "name": "",
          "type": "uint256"
        }
      ],
      "stateMutability": "view",
      "type": "function"
    },
    {
      "inputs": [
        {
          "internalType": "address",
          "name": "offerer",
          "type": "address"
        },
        {
          "internalType": "address",
          "name": "tokenAddress",
          "type": "address"
        }
      ],
      "name": "getOffer",
      "outputs": [
        {
          "internalType": "uint256",
          "name": "",
          "type": "uint256"
        }
      ],
      "stateMutability": "view",
      "type": "function"
    },
    {
      "inputs": [
        {
          "internalType": "address",
          "name": "_who",
          "type": "address"
        }
      ],
      "name": "getSellerBalance",
      "outputs": [
        {
          "internalType": "uint256",
          "name": "",
          "type": "uint256"
        }
      ],
      "stateMutability": "view",
      "type": "function"
    },
    {
      "inputs": [
        {
          "internalType": "address",
          "name": "tokenAddress",
          "type": "address"
        },
        {
          "internalType": "uint256",
          "name": "fraktionsIndex",
          "type": "uint256"
        }
      ],
      "name": "importFraktal",
      "outputs": [],
      "stateMutability": "nonpayable",
      "type": "function"
    },
    {
      "inputs": [],
      "name": "initialize",
      "outputs": [],
      "stateMutability": "nonpayable",
      "type": "function"
    },
    {
      "inputs": [
        {
          "internalType": "address",
          "name": "_tokenAddress",
          "type": "address"
        },
        {
          "internalType": "uint256",
          "name": "_price",
          "type": "uint256"
        },
        {
          "internalType": "uint256",
          "name": "_numberOfShares",
          "type": "uint256"
        }
      ],
      "name": "listItem",
      "outputs": [
        {
          "internalType": "bool",
          "name": "",
          "type": "bool"
        }
      ],
      "stateMutability": "nonpayable",
      "type": "function"
    },
    {
      "inputs": [
        {
          "internalType": "address",
          "name": "tokenAddress",
          "type": "address"
        },
        {
          "internalType": "uint256",
          "name": "_value",
          "type": "uint256"
        }
      ],
      "name": "makeOffer",
      "outputs": [],
      "stateMutability": "payable",
      "type": "function"
    },
    {
      "inputs": [
        {
          "internalType": "address",
          "name": "",
          "type": "address"
        }
      ],
      "name": "maxPriceRegistered",
      "outputs": [
        {
          "internalType": "uint256",
          "name": "",
          "type": "uint256"
        }
      ],
      "stateMutability": "view",
      "type": "function"
    },
    {
      "inputs": [
        {
          "internalType": "address",
          "name": "",
          "type": "address"
        },
        {
          "internalType": "address",
          "name": "",
          "type": "address"
        }
      ],
      "name": "offers",
      "outputs": [
        {
          "internalType": "uint256",
          "name": "value",
          "type": "uint256"
        },
        {
          "internalType": "bool",
          "name": "winner",
          "type": "bool"
        }
      ],
      "stateMutability": "view",
      "type": "function"
    },
    {
      "inputs": [
        {
          "internalType": "address",
          "name": "",
          "type": "address"
        },
        {
          "internalType": "address",
          "name": "",
          "type": "address"
        },
        {
          "internalType": "uint256[]",
          "name": "",
          "type": "uint256[]"
        },
        {
          "internalType": "uint256[]",
          "name": "",
          "type": "uint256[]"
        },
        {
          "internalType": "bytes",
          "name": "",
          "type": "bytes"
        }
      ],
      "name": "onERC1155BatchReceived",
      "outputs": [
        {
          "internalType": "bytes4",
          "name": "",
          "type": "bytes4"
        }
      ],
      "stateMutability": "nonpayable",
      "type": "function"
    },
    {
      "inputs": [
        {
          "internalType": "address",
          "name": "",
          "type": "address"
        },
        {
          "internalType": "address",
          "name": "",
          "type": "address"
        },
        {
          "internalType": "uint256",
          "name": "",
          "type": "uint256"
        },
        {
          "internalType": "uint256",
          "name": "",
          "type": "uint256"
        },
        {
          "internalType": "bytes",
          "name": "",
          "type": "bytes"
        }
      ],
      "name": "onERC1155Received",
      "outputs": [
        {
          "internalType": "bytes4",
          "name": "",
          "type": "bytes4"
        }
      ],
      "stateMutability": "nonpayable",
      "type": "function"
    },
    {
      "inputs": [],
      "name": "owner",
      "outputs": [
        {
          "internalType": "address",
          "name": "",
          "type": "address"
        }
      ],
      "stateMutability": "view",
      "type": "function"
    },
    {
      "inputs": [],
      "name": "renounceOwnership",
      "outputs": [],
      "stateMutability": "nonpayable",
      "type": "function"
    },
    {
      "inputs": [],
      "name": "rescueEth",
      "outputs": [],
      "stateMutability": "nonpayable",
      "type": "function"
    },
    {
      "inputs": [
        {
          "internalType": "address",
          "name": "",
          "type": "address"
        }
      ],
      "name": "sellersBalance",
      "outputs": [
        {
          "internalType": "uint256",
          "name": "",
          "type": "uint256"
        }
      ],
      "stateMutability": "view",
      "type": "function"
    },
    {
      "inputs": [
        {
          "internalType": "uint16",
          "name": "_newFee",
          "type": "uint16"
        }
      ],
      "name": "setFee",
      "outputs": [],
      "stateMutability": "nonpayable",
      "type": "function"
    },
    {
      "inputs": [
        {
          "internalType": "bytes4",
          "name": "interfaceId",
          "type": "bytes4"
        }
      ],
      "name": "supportsInterface",
      "outputs": [
        {
          "internalType": "bool",
          "name": "",
          "type": "bool"
        }
      ],
      "stateMutability": "view",
      "type": "function"
    },
    {
      "inputs": [
        {
          "internalType": "address",
          "name": "newOwner",
          "type": "address"
        }
      ],
      "name": "transferOwnership",
      "outputs": [],
      "stateMutability": "nonpayable",
      "type": "function"
    },
    {
      "inputs": [
        {
          "internalType": "address",
          "name": "tokenAddress",
          "type": "address"
        }
      ],
      "name": "unlistItem",
      "outputs": [],
      "stateMutability": "nonpayable",
      "type": "function"
    },
    {
      "inputs": [
        {
          "internalType": "address",
          "name": "offerer",
          "type": "address"
        },
        {
          "internalType": "address",
          "name": "tokenAddress",
          "type": "address"
        }
      ],
      "name": "voteOffer",
      "outputs": [],
      "stateMutability": "nonpayable",
      "type": "function"
    },
    {
      "inputs": [],
      "name": "withdrawAccruedFees",
      "outputs": [
        {
          "internalType": "bool",
          "name": "",
          "type": "bool"
        }
      ],
      "stateMutability": "nonpayable",
      "type": "function"
    }
  ],
  "bytecode": "0x60806040523480156200001157600080fd5b5062000032620000266200003f60201b60201c565b6200004760201b60201c565b600180819055506200010b565b600033905090565b60008060009054906101000a900473ffffffffffffffffffffffffffffffffffffffff169050816000806101000a81548173ffffffffffffffffffffffffffffffffffffffff021916908373ffffffffffffffffffffffffffffffffffffffff1602179055508173ffffffffffffffffffffffffffffffffffffffff168173ffffffffffffffffffffffffffffffffffffffff167f8be0079c531659141344cd1fd0a4f28419497f9722a3daafe3b4186f6b6457e060405160405180910390a35050565b613f19806200011b6000396000f3fe6080604052600436106101815760003560e01c8063967b82cf116100d1578063c9c61cc91161008a578063ddca3f4311610064578063ddca3f431461058b578063f23a6e61146105b6578063f2fde38b146105f3578063fa0e1d1c1461061c57610181565b8063c9c61cc91461050c578063ce31a06b14610549578063ced72f871461056057610181565b8063967b82cf146103e4578063a25700a214610422578063a4b488281461044b578063ada82c7d14610488578063b2a4706e146104b3578063bc197c81146104cf57610181565b806373758fef1161013e57806389bfd38f1161011857806389bfd38f146103165780638b38f3d2146103535780638da5cb5b146103905780638e005553146103bb57610181565b806373758fef146102995780637a641528146102d65780638129fc1c146102ff57610181565b806301ffc9a714610186578063077c8413146101c35780632148893f146101ec5780633af3eff114610229578063415e284114610266578063715018a614610282575b600080fd5b34801561019257600080fd5b506101ad60048036038101906101a89190612fa1565b610645565b6040516101ba91906135a7565b60405180910390f35b3480156101cf57600080fd5b506101ea60048036038101906101e59190612cc2565b6106bf565b005b3480156101f857600080fd5b50610213600480360381019061020e9190612cc2565b610b5a565b60405161022091906137d8565b60405180910390f35b34801561023557600080fd5b50610250600480360381019061024b9190612d14565b610ba3565b60405161025d91906137d8565b60405180910390f35b610280600480360381019061027b9190612e0f565b610c2d565b005b34801561028e57600080fd5b50610297611125565b005b3480156102a557600080fd5b506102c060048036038101906102bb9190612d14565b6111ad565b6040516102cd91906137d8565b60405180910390f35b3480156102e257600080fd5b506102fd60048036038101906102f89190612eed565b611237565b005b34801561030b57600080fd5b50610314611415565b005b34801561032257600080fd5b5061033d60048036038101906103389190612f29565b611510565b60405161034a91906135a7565b60405180910390f35b34801561035f57600080fd5b5061037a60048036038101906103759190612cc2565b611a9d565b60405161038791906137d8565b60405180910390f35b34801561039c57600080fd5b506103a5611ab5565b6040516103b291906132ed565b60405180910390f35b3480156103c757600080fd5b506103e260048036038101906103dd9190612fca565b611ade565b005b3480156103f057600080fd5b5061040b60048036038101906104069190612d14565b611bb0565b60405161041992919061381c565b60405180910390f35b34801561042e57600080fd5b5061044960048036038101906104449190612d14565b611bee565b005b34801561045757600080fd5b50610472600480360381019061046d9190612d14565b61203b565b60405161047f91906137d8565b60405180910390f35b34801561049457600080fd5b5061049d6120c5565b6040516104aa91906135a7565b60405180910390f35b6104cd60048036038101906104c89190612eed565b61223c565b005b3480156104db57600080fd5b506104f660048036038101906104f19190612d50565b61256f565b60405161050391906135c2565b60405180910390f35b34801561051857600080fd5b50610533600480360381019061052e9190612cc2565b612584565b60405161054091906137d8565b60405180910390f35b34801561055557600080fd5b5061055e61259c565b005b34801561056c57600080fd5b506105756127a8565b60405161058291906137d8565b60405180910390f35b34801561059757600080fd5b506105a06127c2565b6040516105ad91906137bd565b60405180910390f35b3480156105c257600080fd5b506105dd60048036038101906105d89190612e5e565b6127d4565b6040516105ea91906135c2565b60405180910390f35b3480156105ff57600080fd5b5061061a60048036038101906106159190612cc2565b6127e9565b005b34801561062857600080fd5b50610643600480360381019061063e9190612cc2565b6128e1565b005b60007f4e2312e0000000000000000000000000000000000000000000000000000000007bffffffffffffffffffffffffffffffffffffffffffffffffffffffff1916827bffffffffffffffffffffffffffffffffffffffffffffffffffffffff191614806106b857506106b7826129e6565b5b9050919050565b60008173ffffffffffffffffffffffffffffffffffffffff166368e984096040518163ffffffff1660e01b815260040160206040518083038186803b15801561070757600080fd5b505afa15801561071b573d6000803e3d6000fd5b505050506040513d601f19601f8201168201806040525081019061073f919061301c565b90508173ffffffffffffffffffffffffffffffffffffffff166302c7e7af6040518163ffffffff1660e01b815260040160206040518083038186803b15801561078757600080fd5b505afa15801561079b573d6000803e3d6000fd5b505050506040513d601f19601f820116820180604052508101906107bf9190612f78565b15610a9c576000600560006107d2612a50565b73ffffffffffffffffffffffffffffffffffffffff1673ffffffffffffffffffffffffffffffffffffffff16815260200190815260200160002060008473ffffffffffffffffffffffffffffffffffffffff1673ffffffffffffffffffffffffffffffffffffffff168152602001908152602001600020604051806040016040529081600082015481526020016001820160009054906101000a900460ff16151515158152505090508273ffffffffffffffffffffffffffffffffffffffff1663b6e54bdf6040518163ffffffff1660e01b815260040160206040518083038186803b1580156108c157600080fd5b505afa1580156108d5573d6000803e3d6000fd5b505050506040513d601f19601f820116820180604052508101906108f99190612ff3565b61ffff168373ffffffffffffffffffffffffffffffffffffffff1663820d3db984610922612a50565b6040518363ffffffff1660e01b815260040161093f9291906137f3565b60206040518083038186803b15801561095757600080fd5b505afa15801561096b573d6000803e3d6000fd5b505050506040513d601f19601f8201168201806040525081019061098f919061301c565b116109cf576040517f08c379a00000000000000000000000000000000000000000000000000000000081526004016109c69061367d565b60405180910390fd5b8273ffffffffffffffffffffffffffffffffffffffff1663b3a4692c82600001516040518263ffffffff1660e01b81526004016020604051808303818588803b158015610a1b57600080fd5b505af1158015610a2f573d6000803e3d6000fd5b50505050506040513d601f19601f82011682018060405250810190610a549190612ceb565b506000600760008573ffffffffffffffffffffffffffffffffffffffff1673ffffffffffffffffffffffffffffffffffffffff16815260200190815260200160002081905550505b8173ffffffffffffffffffffffffffffffffffffffff1663f242432a30610ac1612a50565b600060016040518563ffffffff1660e01b8152600401610ae494939291906133bb565b600060405180830381600087803b158015610afe57600080fd5b505af1158015610b12573d6000803e3d6000fd5b505050507fb73e3428dd7e5858fa36c55a8bdaba9c60cd953ae72c4d2dc48eeaa1e224d52a610b3f612a50565b83604051610b4e929190613308565b60405180910390a15050565b6000600660008373ffffffffffffffffffffffffffffffffffffffff1673ffffffffffffffffffffffffffffffffffffffff168152602001908152602001600020549050919050565b6000600460008373ffffffffffffffffffffffffffffffffffffffff1673ffffffffffffffffffffffffffffffffffffffff16815260200190815260200160002060008473ffffffffffffffffffffffffffffffffffffffff1673ffffffffffffffffffffffffffffffffffffffff16815260200190815260200160002060020154905092915050565b60026001541415610c73576040517f08c379a0000000000000000000000000000000000000000000000000000000008152600401610c6a9061379d565b60405180910390fd5b60026001819055506000600460008473ffffffffffffffffffffffffffffffffffffffff1673ffffffffffffffffffffffffffffffffffffffff16815260200190815260200160002060008573ffffffffffffffffffffffffffffffffffffffff1673ffffffffffffffffffffffffffffffffffffffff16815260200190815260200160002090508273ffffffffffffffffffffffffffffffffffffffff166302c7e7af6040518163ffffffff1660e01b815260040160206040518083038186803b158015610d4157600080fd5b505afa158015610d55573d6000803e3d6000fd5b505050506040513d601f19601f82011682018060405250810190610d799190612f78565b15610db9576040517f08c379a0000000000000000000000000000000000000000000000000000000008152600401610db09061373d565b60405180910390fd5b8181600201541015610e00576040517f08c379a0000000000000000000000000000000000000000000000000000000008152600401610df79061375d565b60405180910390fd5b6000828260010154610e129190613970565b9050600061271060028054906101000a900461ffff1661ffff1683610e379190613970565b610e41919061393f565b905060008183610e5191906139ca565b905060008673ffffffffffffffffffffffffffffffffffffffff166368e984096040518163ffffffff1660e01b815260040160206040518083038186803b158015610e9b57600080fd5b505afa158015610eaf573d6000803e3d6000fd5b505050506040513d601f19601f82011682018060405250810190610ed3919061301c565b905083341015610f18576040517f08c379a0000000000000000000000000000000000000000000000000000000008152600401610f0f906136fd565b60405180910390fd5b858560020154610f2891906139ca565b8560020181905550600760008873ffffffffffffffffffffffffffffffffffffffff1673ffffffffffffffffffffffffffffffffffffffff168152602001908152602001600020546127108660010154610f829190613970565b1115610fde576127108560010154610f9a9190613970565b600760008973ffffffffffffffffffffffffffffffffffffffff1673ffffffffffffffffffffffffffffffffffffffff168152602001908152602001600020819055505b8673ffffffffffffffffffffffffffffffffffffffff1663f242432a89611003612a50565b848a6040518563ffffffff1660e01b8152600401611024949392919061348f565b600060405180830381600087803b15801561103e57600080fd5b505af1158015611052573d6000803e3d6000fd5b50505050813461106291906139ca565b6003600082825461107391906138e9565b9250508190555081600660008a73ffffffffffffffffffffffffffffffffffffffff1673ffffffffffffffffffffffffffffffffffffffff16815260200190815260200160002060008282546110c991906138e9565b925050819055507ffa945eefd5c2ddf8beb4fb7e15e2b5f2f295ba939c584a8a849e199aa767860c6110f9612a50565b89898960405161110c9493929190613331565b60405180910390a1505050505060018081905550505050565b61112d612a50565b73ffffffffffffffffffffffffffffffffffffffff1661114b611ab5565b73ffffffffffffffffffffffffffffffffffffffff16146111a1576040517f08c379a0000000000000000000000000000000000000000000000000000000008152600401611198906136dd565b60405180910390fd5b6111ab6000612a58565b565b6000600460008373ffffffffffffffffffffffffffffffffffffffff1673ffffffffffffffffffffffffffffffffffffffff16815260200190815260200160002060008473ffffffffffffffffffffffffffffffffffffffff1673ffffffffffffffffffffffffffffffffffffffff16815260200190815260200160002060010154905092915050565b8173ffffffffffffffffffffffffffffffffffffffff1663f242432a61125b612a50565b30600060016040518563ffffffff1660e01b815260040161127f94939291906133bb565b600060405180830381600087803b15801561129957600080fd5b505af11580156112ad573d6000803e3d6000fd5b505050508173ffffffffffffffffffffffffffffffffffffffff16638b4ae68c6112d5612a50565b836040518363ffffffff1660e01b81526004016112f3929190613547565b600060405180830381600087803b15801561130d57600080fd5b505af1158015611321573d6000803e3d6000fd5b505050508173ffffffffffffffffffffffffffffffffffffffff1663811ce760611349612a50565b612710306040518463ffffffff1660e01b815260040161136b93929190613510565b600060405180830381600087803b15801561138557600080fd5b505af1158015611399573d6000803e3d6000fd5b505050508173ffffffffffffffffffffffffffffffffffffffff1663066f39bf6113c1612a50565b306040518363ffffffff1660e01b81526004016113df929190613308565b600060405180830381600087803b1580156113f957600080fd5b505af115801561140d573d6000803e3d6000fd5b505050505050565b600260019054906101000a900460ff168061143d5750600260009054906101000a900460ff16155b61147c576040517f08c379a00000000000000000000000000000000000000000000000000000000081526004016114739061365d565b60405180910390fd5b6000600260019054906101000a900460ff1615905080156114ce576001600260016101000a81548160ff0219169083151502179055506001600260006101000a81548160ff0219169083151502179055505b60646002806101000a81548161ffff021916908361ffff160217905550801561150d576000600260016101000a81548160ff0219169083151502179055505b50565b6000808473ffffffffffffffffffffffffffffffffffffffff166368e984096040518163ffffffff1660e01b815260040160206040518083038186803b15801561155957600080fd5b505afa15801561156d573d6000803e3d6000fd5b505050506040513d601f19601f82011682018060405250810190611591919061301c565b905060018573ffffffffffffffffffffffffffffffffffffffff1662fdd58e3060006040518363ffffffff1660e01b81526004016115d09291906134e7565b60206040518083038186803b1580156115e857600080fd5b505afa1580156115fc573d6000803e3d6000fd5b505050506040513d601f19601f82011682018060405250810190611620919061301c565b14611660576040517f08c379a00000000000000000000000000000000000000000000000000000000081526004016116579061361d565b60405180910390fd5b8473ffffffffffffffffffffffffffffffffffffffff166302c7e7af6040518163ffffffff1660e01b815260040160206040518083038186803b1580156116a657600080fd5b505afa1580156116ba573d6000803e3d6000fd5b505050506040513d601f19601f820116820180604052508101906116de9190612f78565b1561171e576040517f08c379a00000000000000000000000000000000000000000000000000000000081526004016117159061373d565b60405180910390fd5b828573ffffffffffffffffffffffffffffffffffffffff1662fdd58e611742612a50565b846040518363ffffffff1660e01b8152600401611760929190613547565b60206040518083038186803b15801561177857600080fd5b505afa15801561178c573d6000803e3d6000fd5b505050506040513d601f19601f820116820180604052508101906117b0919061301c565b10156117f1576040517f08c379a00000000000000000000000000000000000000000000000000000000081526004016117e89061371d565b60405180910390fd5b6000600460008773ffffffffffffffffffffffffffffffffffffffff1673ffffffffffffffffffffffffffffffffffffffff168152602001908152602001600020600061183c612a50565b73ffffffffffffffffffffffffffffffffffffffff1673ffffffffffffffffffffffffffffffffffffffff1681526020019081526020016000206040518060600160405290816000820160009054906101000a900473ffffffffffffffffffffffffffffffffffffffff1673ffffffffffffffffffffffffffffffffffffffff1673ffffffffffffffffffffffffffffffffffffffff1681526020016001820154815260200160028201548152505090506000816040015114611934576040517f08c379a000000000000000000000000000000000000000000000000000000000815260040161192b906136bd565b60405180910390fd5b600060405180606001604052808873ffffffffffffffffffffffffffffffffffffffff16815260200187815260200186815250905080600460008973ffffffffffffffffffffffffffffffffffffffff1673ffffffffffffffffffffffffffffffffffffffff16815260200190815260200160002060006119b3612a50565b73ffffffffffffffffffffffffffffffffffffffff1673ffffffffffffffffffffffffffffffffffffffff16815260200190815260200160002060008201518160000160006101000a81548173ffffffffffffffffffffffffffffffffffffffff021916908373ffffffffffffffffffffffffffffffffffffffff16021790555060208201518160010155604082015181600201559050507fd547e933094f12a9159076970143ebe73234e64480317844b0dcb36117116de4611a74612a50565b888888604051611a87949392919061344a565b60405180910390a1600193505050509392505050565b60066020528060005260406000206000915090505481565b60008060009054906101000a900473ffffffffffffffffffffffffffffffffffffffff16905090565b611ae6612a50565b73ffffffffffffffffffffffffffffffffffffffff16611b04611ab5565b73ffffffffffffffffffffffffffffffffffffffff1614611b5a576040517f08c379a0000000000000000000000000000000000000000000000000000000008152600401611b51906136dd565b60405180910390fd5b806002806101000a81548161ffff021916908361ffff1602179055507fc8fcf8ee1425e7e60b8af83735e1eb516d5b9ef05bfd6eece552ebaeb7c75b4881604051611ba591906137bd565b60405180910390a150565b6005602052816000526040600020602052806000526040600020600091509150508060000154908060010160009054906101000a900460ff16905082565b60008173ffffffffffffffffffffffffffffffffffffffff166368e984096040518163ffffffff1660e01b815260040160206040518083038186803b158015611c3657600080fd5b505afa158015611c4a573d6000803e3d6000fd5b505050506040513d601f19601f82011682018060405250810190611c6e919061301c565b90506000600560008573ffffffffffffffffffffffffffffffffffffffff1673ffffffffffffffffffffffffffffffffffffffff16815260200190815260200160002060008473ffffffffffffffffffffffffffffffffffffffff1673ffffffffffffffffffffffffffffffffffffffff168152602001908152602001600020905060008373ffffffffffffffffffffffffffffffffffffffff1663669ee0b584611d17612a50565b6040518363ffffffff1660e01b8152600401611d349291906137f3565b60206040518083038186803b158015611d4c57600080fd5b505afa158015611d60573d6000803e3d6000fd5b505050506040513d601f19601f82011682018060405250810190611d84919061301c565b90506000818573ffffffffffffffffffffffffffffffffffffffff1662fdd58e611dac612a50565b876040518363ffffffff1660e01b8152600401611dca929190613547565b60206040518083038186803b158015611de257600080fd5b505afa158015611df6573d6000803e3d6000fd5b505050506040513d601f19601f82011682018060405250810190611e1a919061301c565b611e2491906139ca565b90508473ffffffffffffffffffffffffffffffffffffffff1663811ce760611e4a612a50565b83896040518463ffffffff1660e01b8152600401611e6a93929190613570565b600060405180830381600087803b158015611e8457600080fd5b505af1158015611e98573d6000803e3d6000fd5b5050505060008573ffffffffffffffffffffffffffffffffffffffff1663820d3db986896040518363ffffffff1660e01b8152600401611ed99291906137f3565b60206040518083038186803b158015611ef157600080fd5b505afa158015611f05573d6000803e3d6000fd5b505050506040513d601f19601f82011682018060405250810190611f29919061301c565b90508573ffffffffffffffffffffffffffffffffffffffff1663b6e54bdf6040518163ffffffff1660e01b815260040160206040518083038186803b158015611f7157600080fd5b505afa158015611f85573d6000803e3d6000fd5b505050506040513d601f19601f82011682018060405250810190611fa99190612ff3565b61ffff16811115612032578573ffffffffffffffffffffffffffffffffffffffff1663fd0c060d6040518163ffffffff1660e01b8152600401600060405180830381600087803b158015611ffc57600080fd5b505af1158015612010573d6000803e3d6000fd5b5050505060018460010160006101000a81548160ff0219169083151502179055505b50505050505050565b6000600560008473ffffffffffffffffffffffffffffffffffffffff1673ffffffffffffffffffffffffffffffffffffffff16815260200190815260200160002060008373ffffffffffffffffffffffffffffffffffffffff1673ffffffffffffffffffffffffffffffffffffffff16815260200190815260200160002060000154905092915050565b60006120cf612a50565b73ffffffffffffffffffffffffffffffffffffffff166120ed611ab5565b73ffffffffffffffffffffffffffffffffffffffff1614612143576040517f08c379a000000000000000000000000000000000000000000000000000000000815260040161213a906136dd565b60405180910390fd5b60026001541415612189576040517f08c379a00000000000000000000000000000000000000000000000000000000081526004016121809061379d565b60405180910390fd5b6002600181905550600061219b612a50565b905060008190508073ffffffffffffffffffffffffffffffffffffffff166108fc6003549081150290604051600060405180830381858888f193505050501580156121ea573d6000803e3d6000fd5b507f47044c5eb61cda68097ee96190b2eb1ef7ae3ef989d4b2491baffd8f7799f86360035460405161221c91906137d8565b60405180910390a160006003819055506001925050506001808190555090565b8034101561227f576040517f08c379a00000000000000000000000000000000000000000000000000000000081526004016122769061369d565b60405180910390fd5b60006005600061228d612a50565b73ffffffffffffffffffffffffffffffffffffffff1673ffffffffffffffffffffffffffffffffffffffff16815260200190815260200160002060008473ffffffffffffffffffffffffffffffffffffffff1673ffffffffffffffffffffffffffffffffffffffff16815260200190815260200160002090506000612310612a50565b90508160010160009054906101000a900460ff1615612364576040517f08c379a000000000000000000000000000000000000000000000000000000000815260040161235b9061363d565b60405180910390fd5b816000015483111561241357600760008573ffffffffffffffffffffffffffffffffffffffff1673ffffffffffffffffffffffffffffffffffffffff168152602001908152602001600020548310156123f2576040517f08c379a00000000000000000000000000000000000000000000000000000000081526004016123e99061377d565b60405180910390fd5b81600001548361240291906139ca565b34101561240e57600080fd5b61245f565b8073ffffffffffffffffffffffffffffffffffffffff166108fc83600001549081150290604051600060405180830381858888f1935050505015801561245d573d6000803e3d6000fd5b505b60405180604001604052808481526020016000151581525060056000612483612a50565b73ffffffffffffffffffffffffffffffffffffffff1673ffffffffffffffffffffffffffffffffffffffff16815260200190815260200160002060008673ffffffffffffffffffffffffffffffffffffffff1673ffffffffffffffffffffffffffffffffffffffff1681526020019081526020016000206000820151816000015560208201518160010160006101000a81548160ff0219169083151502179055509050507fba7256c19ec578f17e4fb0a5c7728cbb7ec23e09e6fb1fa84fae19a46d9e7f2a612550612a50565b858560405161256193929190613413565b60405180910390a150505050565b600063bc197c8160e01b905095945050505050565b60076020528060005260406000206000915090505481565b600260015414156125e2576040517f08c379a00000000000000000000000000000000000000000000000000000000081526004016125d99061379d565b60405180910390fd5b60026001819055506000600660006125f8612a50565b73ffffffffffffffffffffffffffffffffffffffff1673ffffffffffffffffffffffffffffffffffffffff1681526020019081526020016000205411612673576040517f08c379a000000000000000000000000000000000000000000000000000000000815260040161266a906135dd565b60405180910390fd5b600061267d612a50565b905060006006600061268d612a50565b73ffffffffffffffffffffffffffffffffffffffff1673ffffffffffffffffffffffffffffffffffffffff1681526020019081526020016000205490508173ffffffffffffffffffffffffffffffffffffffff166108fc829081150290604051600060405180830381858888f19350505050158015612710573d6000803e3d6000fd5b5060006006600061271f612a50565b73ffffffffffffffffffffffffffffffffffffffff1673ffffffffffffffffffffffffffffffffffffffff168152602001908152602001600020819055507f4a9428d8b62f07c6d93da0a20fa45c49487489d49fb929783ae3771d9cf65cbf612786612a50565b82604051612795929190613547565b60405180910390a1505060018081905550565b600060028054906101000a900461ffff1661ffff16905090565b60028054906101000a900461ffff1681565b600063f23a6e6160e01b905095945050505050565b6127f1612a50565b73ffffffffffffffffffffffffffffffffffffffff1661280f611ab5565b73ffffffffffffffffffffffffffffffffffffffff1614612865576040517f08c379a000000000000000000000000000000000000000000000000000000000815260040161285c906136dd565b60405180910390fd5b600073ffffffffffffffffffffffffffffffffffffffff168173ffffffffffffffffffffffffffffffffffffffff1614156128d5576040517f08c379a00000000000000000000000000000000000000000000000000000000081526004016128cc906135fd565b60405180910390fd5b6128de81612a58565b50565b600460008273ffffffffffffffffffffffffffffffffffffffff1673ffffffffffffffffffffffffffffffffffffffff168152602001908152602001600020600061292a612a50565b73ffffffffffffffffffffffffffffffffffffffff1673ffffffffffffffffffffffffffffffffffffffff168152602001908152602001600020600080820160006101000a81549073ffffffffffffffffffffffffffffffffffffffff02191690556001820160009055600282016000905550507fd547e933094f12a9159076970143ebe73234e64480317844b0dcb36117116de46129c7612a50565b826000806040516129db9493929190613376565b60405180910390a150565b60007f01ffc9a7000000000000000000000000000000000000000000000000000000007bffffffffffffffffffffffffffffffffffffffffffffffffffffffff1916827bffffffffffffffffffffffffffffffffffffffffffffffffffffffff1916149050919050565b600033905090565b60008060009054906101000a900473ffffffffffffffffffffffffffffffffffffffff169050816000806101000a81548173ffffffffffffffffffffffffffffffffffffffff021916908373ffffffffffffffffffffffffffffffffffffffff1602179055508173ffffffffffffffffffffffffffffffffffffffff168173ffffffffffffffffffffffffffffffffffffffff167f8be0079c531659141344cd1fd0a4f28419497f9722a3daafe3b4186f6b6457e060405160405180910390a35050565b6000612b2f612b2a8461386a565b613845565b90508083825260208201905082856020860282011115612b4e57600080fd5b60005b85811015612b7e5781612b648882612c98565b845260208401935060208301925050600181019050612b51565b5050509392505050565b6000612b9b612b9684613896565b613845565b905082815260208101848484011115612bb357600080fd5b612bbe848285613ab6565b509392505050565b600081359050612bd581613e70565b92915050565b600081519050612bea81613e70565b92915050565b600082601f830112612c0157600080fd5b8135612c11848260208601612b1c565b91505092915050565b600081519050612c2981613e87565b92915050565b600081359050612c3e81613e9e565b92915050565b600082601f830112612c5557600080fd5b8135612c65848260208601612b88565b91505092915050565b600081359050612c7d81613eb5565b92915050565b600081519050612c9281613eb5565b92915050565b600081359050612ca781613ecc565b92915050565b600081519050612cbc81613ecc565b92915050565b600060208284031215612cd457600080fd5b6000612ce284828501612bc6565b91505092915050565b600060208284031215612cfd57600080fd5b6000612d0b84828501612bdb565b91505092915050565b60008060408385031215612d2757600080fd5b6000612d3585828601612bc6565b9250506020612d4685828601612bc6565b9150509250929050565b600080600080600060a08688031215612d6857600080fd5b6000612d7688828901612bc6565b9550506020612d8788828901612bc6565b945050604086013567ffffffffffffffff811115612da457600080fd5b612db088828901612bf0565b935050606086013567ffffffffffffffff811115612dcd57600080fd5b612dd988828901612bf0565b925050608086013567ffffffffffffffff811115612df657600080fd5b612e0288828901612c44565b9150509295509295909350565b600080600060608486031215612e2457600080fd5b6000612e3286828701612bc6565b9350506020612e4386828701612bc6565b9250506040612e5486828701612c98565b9150509250925092565b600080600080600060a08688031215612e7657600080fd5b6000612e8488828901612bc6565b9550506020612e9588828901612bc6565b9450506040612ea688828901612c98565b9350506060612eb788828901612c98565b925050608086013567ffffffffffffffff811115612ed457600080fd5b612ee088828901612c44565b9150509295509295909350565b60008060408385031215612f0057600080fd5b6000612f0e85828601612bc6565b9250506020612f1f85828601612c98565b9150509250929050565b600080600060608486031215612f3e57600080fd5b6000612f4c86828701612bc6565b9350506020612f5d86828701612c98565b9250506040612f6e86828701612c98565b9150509250925092565b600060208284031215612f8a57600080fd5b6000612f9884828501612c1a565b91505092915050565b600060208284031215612fb357600080fd5b6000612fc184828501612c2f565b91505092915050565b600060208284031215612fdc57600080fd5b6000612fea84828501612c6e565b91505092915050565b60006020828403121561300557600080fd5b600061301384828501612c83565b91505092915050565b60006020828403121561302e57600080fd5b600061303c84828501612cad565b91505092915050565b61304e816139fe565b82525050565b61305d81613a10565b82525050565b61306c81613a1c565b82525050565b61307b81613a80565b82525050565b61308a81613a92565b82525050565b61309981613aa4565b82525050565b60006130ac601a836138d8565b91506130b782613b94565b602082019050919050565b60006130cf6026836138d8565b91506130da82613bbd565b604082019050919050565b60006130f26011836138d8565b91506130fd82613c0c565b602082019050919050565b6000613115600e836138d8565b915061312082613c35565b602082019050919050565b6000613138602e836138d8565b915061314382613c5e565b604082019050919050565b600061315b6009836138d8565b915061316682613cad565b602082019050919050565b600061317e6006836138d8565b915061318982613cd6565b602082019050919050565b60006131a1600c836138d8565b91506131ac82613cff565b602082019050919050565b60006131c46020836138d8565b91506131cf82613d28565b602082019050919050565b60006131e76021836138d8565b91506131f282613d51565b604082019050919050565b600061320a6012836138d8565b915061321582613da0565b602082019050919050565b600061322d6000836138c7565b915061323882613dc9565b600082019050919050565b60006132506009836138d8565b915061325b82613dcc565b602082019050919050565b6000613273601c836138d8565b915061327e82613df5565b602082019050919050565b60006132966009836138d8565b91506132a182613e1e565b602082019050919050565b60006132b9601f836138d8565b91506132c482613e47565b602082019050919050565b6132d881613a48565b82525050565b6132e781613a76565b82525050565b60006020820190506133026000830184613045565b92915050565b600060408201905061331d6000830185613045565b61332a6020830184613045565b9392505050565b60006080820190506133466000830187613045565b6133536020830186613045565b6133606040830185613045565b61336d60608301846132de565b95945050505050565b600060808201905061338b6000830187613045565b6133986020830186613045565b6133a56040830185613072565b6133b26060830184613072565b95945050505050565b600060a0820190506133d06000830187613045565b6133dd6020830186613045565b6133ea6040830185613072565b6133f76060830184613090565b818103608083015261340881613220565b905095945050505050565b60006060820190506134286000830186613045565b6134356020830185613045565b61344260408301846132de565b949350505050565b600060808201905061345f6000830187613045565b61346c6020830186613045565b61347960408301856132de565b61348660608301846132de565b95945050505050565b600060a0820190506134a46000830187613045565b6134b16020830186613045565b6134be60408301856132de565b6134cb60608301846132de565b81810360808301526134dc81613220565b905095945050505050565b60006040820190506134fc6000830185613045565b6135096020830184613072565b9392505050565b60006060820190506135256000830186613045565b6135326020830185613081565b61353f6040830184613045565b949350505050565b600060408201905061355c6000830185613045565b61356960208301846132de565b9392505050565b60006060820190506135856000830186613045565b61359260208301856132de565b61359f6040830184613045565b949350505050565b60006020820190506135bc6000830184613054565b92915050565b60006020820190506135d76000830184613063565b92915050565b600060208201905081810360008301526135f68161309f565b9050919050565b60006020820190508181036000830152613616816130c2565b9050919050565b60006020820190508181036000830152613636816130e5565b9050919050565b6000602082019050818103600083015261365681613108565b9050919050565b600060208201905081810360008301526136768161312b565b9050919050565b600060208201905081810360008301526136968161314e565b9050919050565b600060208201905081810360008301526136b681613171565b9050919050565b600060208201905081810360008301526136d681613194565b9050919050565b600060208201905081810360008301526136f6816131b7565b9050919050565b60006020820190508181036000830152613716816131da565b9050919050565b60006020820190508181036000830152613736816131fd565b9050919050565b6000602082019050818103600083015261375681613243565b9050919050565b6000602082019050818103600083015261377681613266565b9050919050565b6000602082019050818103600083015261379681613289565b9050919050565b600060208201905081810360008301526137b6816132ac565b9050919050565b60006020820190506137d260008301846132cf565b92915050565b60006020820190506137ed60008301846132de565b92915050565b600060408201905061380860008301856132de565b6138156020830184613045565b9392505050565b600060408201905061383160008301856132de565b61383e6020830184613054565b9392505050565b600061384f613860565b905061385b8282613ac5565b919050565b6000604051905090565b600067ffffffffffffffff82111561388557613884613b54565b5b602082029050602081019050919050565b600067ffffffffffffffff8211156138b1576138b0613b54565b5b6138ba82613b83565b9050602081019050919050565b600082825260208201905092915050565b600082825260208201905092915050565b60006138f482613a76565b91506138ff83613a76565b9250827fffffffffffffffffffffffffffffffffffffffffffffffffffffffffffffffff0382111561393457613933613af6565b5b828201905092915050565b600061394a82613a76565b915061395583613a76565b92508261396557613964613b25565b5b828204905092915050565b600061397b82613a76565b915061398683613a76565b9250817fffffffffffffffffffffffffffffffffffffffffffffffffffffffffffffffff04831182151516156139bf576139be613af6565b5b828202905092915050565b60006139d582613a76565b91506139e083613a76565b9250828210156139f3576139f2613af6565b5b828203905092915050565b6000613a0982613a56565b9050919050565b60008115159050919050565b60007fffffffff0000000000000000000000000000000000000000000000000000000082169050919050565b600061ffff82169050919050565b600073ffffffffffffffffffffffffffffffffffffffff82169050919050565b6000819050919050565b6000613a8b82613a76565b9050919050565b6000613a9d82613a76565b9050919050565b6000613aaf82613a76565b9050919050565b82818337600083830152505050565b613ace82613b83565b810181811067ffffffffffffffff82111715613aed57613aec613b54565b5b80604052505050565b7f4e487b7100000000000000000000000000000000000000000000000000000000600052601160045260246000fd5b7f4e487b7100000000000000000000000000000000000000000000000000000000600052601260045260246000fd5b7f4e487b7100000000000000000000000000000000000000000000000000000000600052604160045260246000fd5b6000601f19601f8301169050919050565b7f596f7520646f6e74206861766520616e7920746f20636c61696d000000000000600082015250565b7f4f776e61626c653a206e6577206f776e657220697320746865207a65726f206160008201527f6464726573730000000000000000000000000000000000000000000000000000602082015250565b7f6e6674206e6f7420696e206d61726b6574000000000000000000000000000000600082015250565b7f6f66666572206163636570746564000000000000000000000000000000000000600082015250565b7f496e697469616c697a61626c653a20636f6e747261637420697320616c72656160008201527f647920696e697469616c697a6564000000000000000000000000000000000000602082015250565b7f6e6f742062757965720000000000000000000000000000000000000000000000600082015250565b7f4e6f207061790000000000000000000000000000000000000000000000000000600082015250565b7f756e6c6973742066697273740000000000000000000000000000000000000000600082015250565b7f4f776e61626c653a2063616c6c6572206973206e6f7420746865206f776e6572600082015250565b7f4672616b74616c4d61726b65743a20696e73756666696369656e742066756e6460008201527f7300000000000000000000000000000000000000000000000000000000000000602082015250565b7f6e6f2076616c6964204672616b74696f6e730000000000000000000000000000600082015250565b50565b7f6974656d20736f6c640000000000000000000000000000000000000000000000600082015250565b7f4e6f7420656e6f756768204672616b74696f6e73206f6e2073616c6500000000600082015250565b7f4d696e206f666665720000000000000000000000000000000000000000000000600082015250565b7f5265656e7472616e637947756172643a207265656e7472616e742063616c6c00600082015250565b613e79816139fe565b8114613e8457600080fd5b50565b613e9081613a10565b8114613e9b57600080fd5b50565b613ea781613a1c565b8114613eb257600080fd5b50565b613ebe81613a48565b8114613ec957600080fd5b50565b613ed581613a76565b8114613ee057600080fd5b5056fea2646970667358221220ec4f8fca29a78425ff9c1314459a05282abe4bd2d03134f82c5e23bf4d85adac64736f6c63430008040033",
  "linkReferences": {},
  "deployedLinkReferences": {}
}