{
  "_format": "hh-sol-artifact-1",
  "contractName": "Contract",
  "sourceName": "contracts/Fraktal1155.sol",
  "abi": [
    {
      "anonymous": false,
      "inputs": [
        {
          "indexed": false,
          "internalType": "address",
          "name": "buyer",
          "type": "address"
        },
        {
          "indexed": false,
          "internalType": "address",
          "name": "seller",
          "type": "address"
        },
        {
          "indexed": false,
          "internalType": "uint256",
          "name": "tokenId",
          "type": "uint256"
        },
        {
          "indexed": false,
          "internalType": "uint256",
          "name": "numberOfShares",
          "type": "uint256"
        }
      ],
      "name": "Bought",
      "type": "event"
    },
    {
      "anonymous": false,
      "inputs": [
        {
          "indexed": false,
          "internalType": "uint256",
          "name": "newFee",
          "type": "uint256"
        }
      ],
      "name": "FeeUpdated",
      "type": "event"
    },
    {
      "anonymous": false,
      "inputs": [
        {
          "indexed": false,
          "internalType": "address",
          "name": "owner",
          "type": "address"
        },
        {
          "indexed": false,
          "internalType": "uint256",
          "name": "tokenId",
          "type": "uint256"
        },
        {
          "indexed": false,
          "internalType": "uint256",
          "name": "price",
          "type": "uint256"
        },
        {
          "indexed": false,
          "internalType": "uint256",
          "name": "amountOfShares",
          "type": "uint256"
        },
        {
          "indexed": false,
          "internalType": "string",
          "name": "typeList",
          "type": "string"
        }
      ],
      "name": "ItemListed",
      "type": "event"
    },
    {
      "anonymous": false,
      "inputs": [
        {
          "indexed": false,
          "internalType": "address",
          "name": "owner",
          "type": "address"
        },
        {
          "indexed": false,
          "internalType": "uint256",
          "name": "tokenId",
          "type": "uint256"
        },
        {
          "indexed": false,
          "internalType": "uint256",
          "name": "newPrice",
          "type": "uint256"
        }
      ],
      "name": "ItemPriceUpdated",
      "type": "event"
    },
    {
      "anonymous": false,
      "inputs": [
        {
          "indexed": false,
          "internalType": "address",
          "name": "shareOwner",
          "type": "address"
        },
        {
          "indexed": false,
          "internalType": "address",
          "name": "to",
          "type": "address"
        },
        {
          "indexed": false,
          "internalType": "uint256",
          "name": "numShares",
          "type": "uint256"
        }
      ],
      "name": "LockedSharesForTransfer",
      "type": "event"
    },
    {
      "anonymous": false,
      "inputs": [
        {
          "indexed": false,
          "internalType": "address",
          "name": "creator",
          "type": "address"
        },
        {
          "indexed": false,
          "internalType": "string",
          "name": "urlIpfs",
          "type": "string"
        },
        {
          "indexed": false,
          "internalType": "uint256",
          "name": "nftId",
          "type": "uint256"
        }
      ],
      "name": "Minted",
      "type": "event"
    },
    {
      "anonymous": false,
      "inputs": [
        {
          "indexed": true,
          "internalType": "address",
          "name": "previousOwner",
          "type": "address"
        },
        {
          "indexed": true,
          "internalType": "address",
          "name": "newOwner",
          "type": "address"
        }
      ],
      "name": "OwnershipTransferred",
      "type": "event"
    },
    {
      "anonymous": false,
      "inputs": [
        {
          "indexed": false,
          "internalType": "address",
          "name": "sender",
          "type": "address"
        },
        {
          "indexed": false,
          "internalType": "address",
          "name": "recipient",
          "type": "address"
        },
        {
          "indexed": false,
          "internalType": "uint256",
          "name": "tokenId",
          "type": "uint256"
        },
        {
          "indexed": false,
          "internalType": "uint256",
          "name": "tokenSubId",
          "type": "uint256"
        },
        {
          "indexed": false,
          "internalType": "uint256",
          "name": "numberOfShares",
          "type": "uint256"
        }
      ],
      "name": "TokenTransfered",
      "type": "event"
    },
    {
      "anonymous": false,
      "inputs": [
        {
          "indexed": false,
          "internalType": "address",
          "name": "shareOwner",
          "type": "address"
        },
        {
          "indexed": false,
          "internalType": "address",
          "name": "to",
          "type": "address"
        },
        {
          "indexed": false,
          "internalType": "uint256",
          "name": "numShares",
          "type": "uint256"
        }
      ],
      "name": "UnlockedSharesForTransfer",
      "type": "event"
    },
    {
      "inputs": [
        {
          "internalType": "address",
          "name": "from",
          "type": "address"
        },
        {
          "internalType": "uint256",
          "name": "_tokenId",
          "type": "uint256"
        },
        {
          "internalType": "uint256",
          "name": "_numberOfShares",
          "type": "uint256"
        }
      ],
      "name": "buy",
      "outputs": [],
      "stateMutability": "payable",
      "type": "function"
    },
    {
      "inputs": [
        {
          "internalType": "uint256",
          "name": "_tokenId",
          "type": "uint256"
        }
      ],
      "name": "claimNft",
      "outputs": [],
      "stateMutability": "nonpayable",
      "type": "function"
    },
    {
      "inputs": [
        {
          "internalType": "uint256",
          "name": "",
          "type": "uint256"
        }
      ],
      "name": "creators",
      "outputs": [
        {
          "internalType": "address",
          "name": "",
          "type": "address"
        }
      ],
      "stateMutability": "view",
      "type": "function"
    },
    {
      "inputs": [],
      "name": "fee",
      "outputs": [
        {
          "internalType": "uint256",
          "name": "",
          "type": "uint256"
        }
      ],
      "stateMutability": "view",
      "type": "function"
    },
    {
      "inputs": [
        {
          "internalType": "uint256",
          "name": "",
          "type": "uint256"
        }
      ],
      "name": "fraktalNFTs",
      "outputs": [
        {
          "internalType": "contract Fraktal1155",
          "name": "",
          "type": "address"
        }
      ],
      "stateMutability": "view",
      "type": "function"
    },
    {
      "inputs": [
        {
          "internalType": "address",
          "name": "_who",
          "type": "address"
        },
        {
          "internalType": "uint256",
          "name": "_id",
          "type": "uint256"
        }
      ],
      "name": "getBalanceOf",
      "outputs": [
        {
          "internalType": "uint256",
          "name": "",
          "type": "uint256"
        }
      ],
      "stateMutability": "view",
      "type": "function"
    },
    {
      "inputs": [
        {
          "internalType": "uint256",
          "name": "_tokenId",
          "type": "uint256"
        }
      ],
      "name": "getFraktalAddress",
      "outputs": [
        {
          "internalType": "address",
          "name": "",
          "type": "address"
        }
      ],
      "stateMutability": "view",
      "type": "function"
    },
    {
      "inputs": [],
      "name": "getFraktalsLength",
      "outputs": [
        {
          "internalType": "uint256",
          "name": "",
          "type": "uint256"
        }
      ],
      "stateMutability": "view",
      "type": "function"
    },
    {
      "inputs": [
        {
          "internalType": "address",
          "name": "_listOwner",
          "type": "address"
        },
        {
          "internalType": "uint256",
          "name": "_tokenId",
          "type": "uint256"
        }
      ],
      "name": "getListingAmount",
      "outputs": [
        {
          "internalType": "uint256",
          "name": "",
          "type": "uint256"
        }
      ],
      "stateMutability": "view",
      "type": "function"
    },
    {
      "inputs": [
        {
          "internalType": "address",
          "name": "_listOwner",
          "type": "address"
        },
        {
          "internalType": "uint256",
          "name": "_tokenId",
          "type": "uint256"
        }
      ],
      "name": "getListingPrice",
      "outputs": [
        {
          "internalType": "uint256",
          "name": "",
          "type": "uint256"
        }
      ],
      "stateMutability": "view",
      "type": "function"
    },
    {
      "inputs": [
        {
          "internalType": "address",
          "name": "_whom",
          "type": "address"
        },
        {
          "internalType": "uint256",
          "name": "_tokenId",
          "type": "uint256"
        }
      ],
      "name": "getLockedShares",
      "outputs": [
        {
          "internalType": "uint256",
          "name": "",
          "type": "uint256"
        }
      ],
      "stateMutability": "view",
      "type": "function"
    },
    {
      "inputs": [
        {
          "internalType": "uint256",
          "name": "_tokenId",
          "type": "uint256"
        },
        {
          "internalType": "address",
          "name": "_to",
          "type": "address"
        }
      ],
      "name": "getLockedTo",
      "outputs": [
        {
          "internalType": "uint256",
          "name": "",
          "type": "uint256"
        }
      ],
      "stateMutability": "view",
      "type": "function"
    },
    {
      "inputs": [
        {
          "internalType": "uint256",
          "name": "_id",
          "type": "uint256"
        }
      ],
      "name": "getTicketUri",
      "outputs": [
        {
          "internalType": "string",
          "name": "",
          "type": "string"
        }
      ],
      "stateMutability": "view",
      "type": "function"
    },
    {
      "inputs": [
        {
          "internalType": "address",
          "name": "_who",
          "type": "address"
        },
        {
          "internalType": "uint256",
          "name": "_id",
          "type": "uint256"
        }
      ],
      "name": "gotNFT",
      "outputs": [
        {
          "internalType": "uint256",
          "name": "",
          "type": "uint256"
        }
      ],
      "stateMutability": "view",
      "type": "function"
    },
    {
      "inputs": [
        {
          "internalType": "uint256",
          "name": "_tokenId",
          "type": "uint256"
        },
        {
          "internalType": "uint256",
          "name": "_price",
          "type": "uint256"
        },
        {
          "internalType": "uint256",
          "name": "_numberOfShares",
          "type": "uint256"
        },
        {
          "internalType": "string",
          "name": "_type",
          "type": "string"
        }
      ],
      "name": "listItem",
      "outputs": [
        {
          "internalType": "bool",
          "name": "",
          "type": "bool"
        }
      ],
      "stateMutability": "nonpayable",
      "type": "function"
    },
    {
      "inputs": [
        {
          "internalType": "uint256",
          "name": "_tokenId",
          "type": "uint256"
        },
        {
          "internalType": "uint256",
          "name": "_amount",
          "type": "uint256"
        },
        {
          "internalType": "address",
          "name": "_to",
          "type": "address"
        }
      ],
      "name": "lockShares",
      "outputs": [],
      "stateMutability": "nonpayable",
      "type": "function"
    },
    {
      "inputs": [
        {
          "internalType": "address",
          "name": "_to",
          "type": "address"
        },
        {
          "internalType": "uint256",
          "name": "_tokenId",
          "type": "uint256"
        },
        {
          "internalType": "uint256",
          "name": "_subId",
          "type": "uint256"
        },
        {
          "internalType": "uint256",
          "name": "_amount",
          "type": "uint256"
        }
      ],
      "name": "makeSafeTransfer",
      "outputs": [],
      "stateMutability": "nonpayable",
      "type": "function"
    },
    {
      "inputs": [
        {
          "internalType": "string",
          "name": "urlIpfs",
          "type": "string"
        }
      ],
      "name": "mint",
      "outputs": [],
      "stateMutability": "nonpayable",
      "type": "function"
    },
    {
      "inputs": [
        {
          "internalType": "address",
          "name": "",
          "type": "address"
        },
        {
          "internalType": "address",
          "name": "",
          "type": "address"
        },
        {
          "internalType": "uint256[]",
          "name": "",
          "type": "uint256[]"
        },
        {
          "internalType": "uint256[]",
          "name": "",
          "type": "uint256[]"
        },
        {
          "internalType": "bytes",
          "name": "",
          "type": "bytes"
        }
      ],
      "name": "onERC1155BatchReceived",
      "outputs": [
        {
          "internalType": "bytes4",
          "name": "",
          "type": "bytes4"
        }
      ],
      "stateMutability": "nonpayable",
      "type": "function"
    },
    {
      "inputs": [
        {
          "internalType": "address",
          "name": "",
          "type": "address"
        },
        {
          "internalType": "address",
          "name": "",
          "type": "address"
        },
        {
          "internalType": "uint256",
          "name": "",
          "type": "uint256"
        },
        {
          "internalType": "uint256",
          "name": "",
          "type": "uint256"
        },
        {
          "internalType": "bytes",
          "name": "",
          "type": "bytes"
        }
      ],
      "name": "onERC1155Received",
      "outputs": [
        {
          "internalType": "bytes4",
          "name": "",
          "type": "bytes4"
        }
      ],
      "stateMutability": "nonpayable",
      "type": "function"
    },
    {
      "inputs": [],
      "name": "owner",
      "outputs": [
        {
          "internalType": "address",
          "name": "",
          "type": "address"
        }
      ],
      "stateMutability": "view",
      "type": "function"
    },
    {
      "inputs": [],
      "name": "renounceOwnership",
      "outputs": [],
      "stateMutability": "nonpayable",
      "type": "function"
    },
    {
      "inputs": [
        {
          "internalType": "uint256",
          "name": "_tokenId",
          "type": "uint256"
        }
      ],
      "name": "rescueEth",
      "outputs": [],
      "stateMutability": "nonpayable",
      "type": "function"
    },
    {
      "inputs": [
        {
          "internalType": "address",
          "name": "",
          "type": "address"
        },
        {
          "internalType": "uint256",
          "name": "",
          "type": "uint256"
        }
      ],
      "name": "sellersBalance",
      "outputs": [
        {
          "internalType": "uint256",
          "name": "",
          "type": "uint256"
        }
      ],
      "stateMutability": "view",
      "type": "function"
    },
    {
      "inputs": [
        {
          "internalType": "uint256",
          "name": "_newFee",
          "type": "uint256"
        }
      ],
      "name": "setFee",
      "outputs": [],
      "stateMutability": "nonpayable",
      "type": "function"
    },
    {
      "inputs": [
        {
          "internalType": "bytes4",
          "name": "interfaceId",
          "type": "bytes4"
        }
      ],
      "name": "supportsInterface",
      "outputs": [
        {
          "internalType": "bool",
          "name": "",
          "type": "bool"
        }
      ],
      "stateMutability": "view",
      "type": "function"
    },
    {
      "inputs": [
        {
          "internalType": "address",
          "name": "newOwner",
          "type": "address"
        }
      ],
      "name": "transferOwnership",
      "outputs": [],
      "stateMutability": "nonpayable",
      "type": "function"
    },
    {
      "inputs": [
        {
          "internalType": "uint256",
          "name": "_tokenId",
          "type": "uint256"
        }
      ],
      "name": "unlistItem",
      "outputs": [],
      "stateMutability": "nonpayable",
      "type": "function"
    },
    {
      "inputs": [
        {
          "internalType": "uint256",
          "name": "_tokenId",
          "type": "uint256"
        },
        {
          "internalType": "uint256",
          "name": "_amount",
          "type": "uint256"
        },
        {
          "internalType": "address",
          "name": "_to",
          "type": "address"
        }
      ],
      "name": "unlockShares",
      "outputs": [],
      "stateMutability": "nonpayable",
      "type": "function"
    },
    {
      "inputs": [
        {
          "internalType": "uint256",
          "name": "_tokenId",
          "type": "uint256"
        },
        {
          "internalType": "uint256",
          "name": "_newPrice",
          "type": "uint256"
        }
      ],
      "name": "updatePrice",
      "outputs": [],
      "stateMutability": "nonpayable",
      "type": "function"
    }
  ],
  "bytecode": "0x60806040523480156200001157600080fd5b5062000032620000266200003f60201b60201c565b6200004760201b60201c565b600180819055506200010b565b600033905090565b60008060009054906101000a900473ffffffffffffffffffffffffffffffffffffffff169050816000806101000a81548173ffffffffffffffffffffffffffffffffffffffff021916908373ffffffffffffffffffffffffffffffffffffffff1602179055508173ffffffffffffffffffffffffffffffffffffffff168173ffffffffffffffffffffffffffffffffffffffff167f8be0079c531659141344cd1fd0a4f28419497f9722a3daafe3b4186f6b6457e060405160405180910390a35050565b61af05806200011b6000396000f3fe608060405260043610620001fa5760003560e01c806394d45b59116200010f578063cd53d08e11620000a3578063e59b825b116200006d578063e59b825b1462000797578063f23a6e6114620007db578063f2fde38b146200081f578063f7f1b464146200084d57620001fa565b8063cd53d08e14620006c7578063d85d3d27146200070b578063ddca3f431462000739578063e13da4f2146200076957620001fa565b8063a6b6918311620000e5578063a6b6918314620005e1578063ac3ca4181462000611578063bc197c811462000655578063c652bf44146200069957620001fa565b806394d45b59146200053957806395e37f88146200057d578063a59ac6dd14620005c157620001fa565b806352be1e161162000193578063715018a6116200015d578063715018a61462000493578063739f08c814620004ad57806382367b2d14620004db5780638da5cb5b146200050957620001fa565b806352be1e1614620003af5780635a599da814620003f357806369fe0e2d14620004215780636f400aa0146200044f57620001fa565b806304d2992c11620001d557806304d2992c14620002cb57806306d78397146200030f57806315245c6914620003535780632ec09d39146200038157620001fa565b806301ffc9a714620001ff5780630246c11c146200024357806302e73c5e1462000287575b600080fd5b3480156200020c57600080fd5b506200022b600480360381019062000225919062002d18565b62000891565b6040516200023a919062003601565b60405180910390f35b3480156200025057600080fd5b506200026f600480360381019062000269919062002e26565b6200090e565b6040516200027e91906200380f565b60405180910390f35b3480156200029457600080fd5b50620002b36004803603810190620002ad919062002c15565b62000a0c565b604051620002c291906200380f565b60405180910390f35b348015620002d857600080fd5b50620002f76004803603810190620002f1919062002dce565b62000a31565b6040516200030691906200363b565b60405180910390f35b3480156200031c57600080fd5b506200033b600480360381019062000335919062002c15565b62000a71565b6040516200034a91906200380f565b60405180910390f35b3480156200036057600080fd5b506200037f600480360381019062000379919062002ea8565b62000acf565b005b3480156200038e57600080fd5b50620003ad6004803603810190620003a7919062002dce565b62000bf0565b005b348015620003bc57600080fd5b50620003db6004803603810190620003d5919062002dce565b62000e13565b604051620003ea919062003675565b60405180910390f35b3480156200040057600080fd5b506200041f600480360381019062000419919062002dce565b62000f16565b005b3480156200042e57600080fd5b506200044d600480360381019062000447919062002dce565b62000fe8565b005b3480156200045c57600080fd5b506200047b600480360381019062000475919062002dce565b620010ae565b6040516200048a919062003236565b60405180910390f35b348015620004a057600080fd5b50620004ab6200111d565b005b348015620004ba57600080fd5b50620004d96004803603810190620004d3919062002dce565b620011ae565b005b348015620004e857600080fd5b5062000507600480360381019062000501919062002e67565b6200135a565b005b3480156200051657600080fd5b506200052162001455565b60405162000530919062003236565b60405180910390f35b3480156200054657600080fd5b506200056560048036038101906200055f919062002c15565b6200147e565b6040516200057491906200380f565b60405180910390f35b3480156200058a57600080fd5b50620005a96004803603810190620005a3919062002c15565b6200157e565b604051620005b891906200380f565b60405180910390f35b620005df6004803603810190620005d9919062002c56565b6200167c565b005b348015620005ee57600080fd5b50620005f962001ade565b6040516200060891906200380f565b60405180910390f35b3480156200061e57600080fd5b506200063d600480360381019062000637919062002c15565b62001aeb565b6040516200064c91906200380f565b60405180910390f35b3480156200066257600080fd5b506200068160048036038101906200067b919062002aad565b62001b49565b6040516200069091906200361e565b60405180910390f35b348015620006a657600080fd5b50620006c56004803603810190620006bf919062002cac565b62001b5e565b005b348015620006d457600080fd5b50620006f36004803603810190620006ed919062002dce565b62001c91565b60405162000702919062003236565b60405180910390f35b3480156200071857600080fd5b5062000737600480360381019062000731919062002d44565b62001cc4565b005b3480156200074657600080fd5b506200075162001e13565b6040516200076091906200380f565b60405180910390f35b3480156200077657600080fd5b506200079560048036038101906200078f919062002ea8565b62001e19565b005b348015620007a457600080fd5b50620007c36004803603810190620007bd919062002c15565b62001f3a565b604051620007d291906200380f565b60405180910390f35b348015620007e857600080fd5b5062000807600480360381019062000801919062002b7a565b6200203a565b6040516200081691906200361e565b60405180910390f35b3480156200082c57600080fd5b506200084b600480360381019062000845919062002a81565b6200204f565b005b3480156200085a57600080fd5b5062000879600480360381019062000873919062002efe565b62002153565b60405162000888919062003601565b60405180910390f35b60007f4e2312e0000000000000000000000000000000000000000000000000000000007bffffffffffffffffffffffffffffffffffffffffffffffffffffffff1916827bffffffffffffffffffffffffffffffffffffffffffffffffffffffff191614806200090757506200090682620025f3565b5b9050919050565b6000600283815481106200094b577f4e487b7100000000000000000000000000000000000000000000000000000000600052603260045260246000fd5b9060005260206000200160009054906101000a900473ffffffffffffffffffffffffffffffffffffffff1673ffffffffffffffffffffffffffffffffffffffff1663f0480f71836040518263ffffffff1660e01b8152600401620009b0919062003236565b60206040518083038186803b158015620009c957600080fd5b505afa158015620009de573d6000803e3d6000fd5b505050506040513d601f19601f8201168201806040525081019062000a04919062002dfa565b905092915050565b6004602052816000526040600020602052806000526040600020600091509150505481565b6002818154811062000a4257600080fd5b906000526020600020016000915054906101000a900473ffffffffffffffffffffffffffffffffffffffff1681565b60006006600083815260200190815260200160002060008473ffffffffffffffffffffffffffffffffffffffff1673ffffffffffffffffffffffffffffffffffffffff16815260200190815260200160002060010154905092915050565b6002838154811062000b0a577f4e487b7100000000000000000000000000000000000000000000000000000000600052603260045260246000fd5b9060005260206000200160009054906101000a900473ffffffffffffffffffffffffffffffffffffffff1673ffffffffffffffffffffffffffffffffffffffff1663f7ba7c3983836040518363ffffffff1660e01b815260040162000b719291906200382c565b600060405180830381600087803b15801562000b8c57600080fd5b505af115801562000ba1573d6000803e3d6000fd5b505050507fc96c0e287b716e32a977881429bd8d3ae124d50cf4e49e60948d3a8c4882eec362000bd06200265d565b828460405162000be39392919062003317565b60405180910390a1505050565b60016002828154811062000c2d577f4e487b7100000000000000000000000000000000000000000000000000000000600052603260045260246000fd5b9060005260206000200160009054906101000a900473ffffffffffffffffffffffffffffffffffffffff1673ffffffffffffffffffffffffffffffffffffffff1662fdd58e3060006040518363ffffffff1660e01b815260040162000c9492919062003460565b60206040518083038186803b15801562000cad57600080fd5b505afa15801562000cc2573d6000803e3d6000fd5b505050506040513d601f19601f8201168201806040525081019062000ce8919062002dfa565b1462000d2b576040517f08c379a000000000000000000000000000000000000000000000000000000000815260040162000d229062003721565b60405180910390fd5b6002818154811062000d66577f4e487b7100000000000000000000000000000000000000000000000000000000600052603260045260246000fd5b9060005260206000200160009054906101000a900473ffffffffffffffffffffffffffffffffffffffff1673ffffffffffffffffffffffffffffffffffffffff1663f242432a62000db66200265d565b30600060016040518563ffffffff1660e01b815260040162000ddc949392919062003253565b600060405180830381600087803b15801562000df757600080fd5b505af115801562000e0c573d6000803e3d6000fd5b5050505050565b60606002828154811062000e50577f4e487b7100000000000000000000000000000000000000000000000000000000600052603260045260246000fd5b9060005260206000200160009054906101000a900473ffffffffffffffffffffffffffffffffffffffff1673ffffffffffffffffffffffffffffffffffffffff16630e89341c60006040518263ffffffff1660e01b815260040162000eb6919062003658565b60006040518083038186803b15801562000ecf57600080fd5b505afa15801562000ee4573d6000803e3d6000fd5b505050506040513d6000823e3d601f19601f8201168201806040525081019062000f0f919062002d89565b9050919050565b60066000828152602001908152602001600020600062000f356200265d565b73ffffffffffffffffffffffffffffffffffffffff1673ffffffffffffffffffffffffffffffffffffffff1681526020019081526020016000206000808201600090556001820160009055600282016000905560038201600062000f9a919062002729565b50507fa1c2cf7b455a0ff88a9acdc647f6d3337a03a959f116847851f869d4c02ccbd762000fc76200265d565b8260008060405162000fdd9493929190620034fe565b60405180910390a150565b62000ff26200265d565b73ffffffffffffffffffffffffffffffffffffffff166200101262001455565b73ffffffffffffffffffffffffffffffffffffffff16146200106b576040517f08c379a0000000000000000000000000000000000000000000000000000000008152600401620010629062003787565b60405180910390fd5b806005819055507f8c4d35e54a3f2ef1134138fd8ea3daee6a3c89e10d2665996babdf70261e2c7681604051620010a391906200380f565b60405180910390a150565b600060028281548110620010eb577f4e487b7100000000000000000000000000000000000000000000000000000000600052603260045260246000fd5b9060005260206000200160009054906101000a900473ffffffffffffffffffffffffffffffffffffffff169050919050565b620011276200265d565b73ffffffffffffffffffffffffffffffffffffffff166200114762001455565b73ffffffffffffffffffffffffffffffffffffffff1614620011a0576040517f08c379a0000000000000000000000000000000000000000000000000000000008152600401620011979062003787565b60405180910390fd5b620011ac600062002665565b565b600060046000620011be6200265d565b73ffffffffffffffffffffffffffffffffffffffff1673ffffffffffffffffffffffffffffffffffffffff168152602001908152602001600020600083815260200190815260200160002054116200124d576040517f08c379a0000000000000000000000000000000000000000000000000000000008152600401620012449062003699565b60405180910390fd5b600033905060008190508073ffffffffffffffffffffffffffffffffffffffff166108fc600460006200127f6200265d565b73ffffffffffffffffffffffffffffffffffffffff1673ffffffffffffffffffffffffffffffffffffffff1681526020019081526020016000206000868152602001908152602001600020549081150290604051600060405180830381858888f19350505050158015620012f7573d6000803e3d6000fd5b50600060046000620013086200265d565b73ffffffffffffffffffffffffffffffffffffffff1673ffffffffffffffffffffffffffffffffffffffff16815260200190815260200160002060008581526020019081526020016000205050505050565b60006006600084815260200190815260200160002060006200137b6200265d565b73ffffffffffffffffffffffffffffffffffffffff1673ffffffffffffffffffffffffffffffffffffffff1681526020019081526020016000209050600081600201541162001401576040517f08c379a0000000000000000000000000000000000000000000000000000000008152600401620013f890620037a9565b60405180910390fd5b8181600101819055507f214cd32736984a3947fe983e4ffeeaf7c20d9b97360cb4415d8014922faaac3b620014356200265d565b8484604051620014489392919062003560565b60405180910390a1505050565b60008060009054906101000a900473ffffffffffffffffffffffffffffffffffffffff16905090565b600060028281548110620014bb577f4e487b7100000000000000000000000000000000000000000000000000000000600052603260045260246000fd5b9060005260206000200160009054906101000a900473ffffffffffffffffffffffffffffffffffffffff1673ffffffffffffffffffffffffffffffffffffffff1662fdd58e8460016040518363ffffffff1660e01b8152600401620015229291906200348d565b60206040518083038186803b1580156200153b57600080fd5b505afa15801562001550573d6000803e3d6000fd5b505050506040513d601f19601f8201168201806040525081019062001576919062002dfa565b905092915050565b600060028281548110620015bb577f4e487b7100000000000000000000000000000000000000000000000000000000600052603260045260246000fd5b9060005260206000200160009054906101000a900473ffffffffffffffffffffffffffffffffffffffff1673ffffffffffffffffffffffffffffffffffffffff1663bc22fd1b846040518263ffffffff1660e01b815260040162001620919062003236565b60206040518083038186803b1580156200163957600080fd5b505afa1580156200164e573d6000803e3d6000fd5b505050506040513d601f19601f8201168201806040525081019062001674919062002dfa565b905092915050565b60026001541415620016c5576040517f08c379a0000000000000000000000000000000000000000000000000000000008152600401620016bc90620037ed565b60405180910390fd5b600260018190555060006006600084815260200190815260200160002060008573ffffffffffffffffffffffffffffffffffffffff1673ffffffffffffffffffffffffffffffffffffffff16815260200190815260200160002090506000600554838360010154620017389190620039a7565b6200174491906200394a565b90508034116200178b576040517f08c379a00000000000000000000000000000000000000000000000000000000081526004016200178290620037cb565b60405180910390fd5b8282600201541015620017d5576040517f08c379a0000000000000000000000000000000000000000000000000000000008152600401620017cc9062003765565b60405180910390fd5b826002858154811062001811577f4e487b7100000000000000000000000000000000000000000000000000000000600052603260045260246000fd5b9060005260206000200160009054906101000a900473ffffffffffffffffffffffffffffffffffffffff1673ffffffffffffffffffffffffffffffffffffffff1662fdd58e8760016040518363ffffffff1660e01b8152600401620018789291906200348d565b60206040518083038186803b1580156200189157600080fd5b505afa158015620018a6573d6000803e3d6000fd5b505050506040513d601f19601f82011682018060405250810190620018cc919062002dfa565b101562001910576040517f08c379a0000000000000000000000000000000000000000000000000000000008152600401620019079062003743565b60405180910390fd5b82826002015462001922919062003a08565b82600201819055506002848154811062001965577f4e487b7100000000000000000000000000000000000000000000000000000000600052603260045260246000fd5b9060005260206000200160009054906101000a900473ffffffffffffffffffffffffffffffffffffffff1673ffffffffffffffffffffffffffffffffffffffff1663f242432a620019b56200265d565b876001876040518563ffffffff1660e01b8152600401620019da9493929190620032b5565b600060405180830381600087803b158015620019f557600080fd5b505af115801562001a0a573d6000803e3d6000fd5b5050505082826001015462001a209190620039a7565b600460008773ffffffffffffffffffffffffffffffffffffffff1673ffffffffffffffffffffffffffffffffffffffff1681526020019081526020016000206000868152602001908152602001600020600082825462001a8191906200394a565b925050819055507fbf77fd13a39d14dc0da779342c14105c38d9a5d0c60f2caa22f5fd1d5525416d62001ab36200265d565b86868660405162001ac8949392919062003354565b60405180910390a1505060018081905550505050565b6000600280549050905090565b60006006600083815260200190815260200160002060008473ffffffffffffffffffffffffffffffffffffffff1673ffffffffffffffffffffffffffffffffffffffff16815260200190815260200160002060020154905092915050565b600063bc197c8160e01b905095945050505050565b6002838154811062001b99577f4e487b7100000000000000000000000000000000000000000000000000000000600052603260045260246000fd5b9060005260206000200160009054906101000a900473ffffffffffffffffffffffffffffffffffffffff1673ffffffffffffffffffffffffffffffffffffffff1663f242432a8562001bea6200265d565b85856040518563ffffffff1660e01b815260040162001c0d9493929190620033a1565b600060405180830381600087803b15801562001c2857600080fd5b505af115801562001c3d573d6000803e3d6000fd5b505050507fa28eec1e85a46c263c6095e4904166e207a7faf30a633d3d13e812051d87714362001c6c6200265d565b8585858560405162001c8395949392919062003403565b60405180910390a150505050565b60036020528060005260406000206000915054906101000a900473ffffffffffffffffffffffffffffffffffffffff1681565b60008160405162001cd5906200276f565b62001ce1919062003675565b604051809103906000f08015801562001cfe573d6000803e3d6000fd5b50905062001d0b6200265d565b60036000600280549050815260200190815260200160002060006101000a81548173ffffffffffffffffffffffffffffffffffffffff021916908373ffffffffffffffffffffffffffffffffffffffff1602179055506002819080600181540180825580915050600190039060005260206000200160009091909190916101000a81548173ffffffffffffffffffffffffffffffffffffffff021916908373ffffffffffffffffffffffffffffffffffffffff1602179055507fe678c8da3d2d6082f140bbbaa1ee822f0c7072ab604536db4a3e0315f8a9277662001def6200265d565b8360028054905060405162001e0793929190620034ba565b60405180910390a15050565b60055481565b6002838154811062001e54577f4e487b7100000000000000000000000000000000000000000000000000000000600052603260045260246000fd5b9060005260206000200160009054906101000a900473ffffffffffffffffffffffffffffffffffffffff1673ffffffffffffffffffffffffffffffffffffffff1663540358b183836040518363ffffffff1660e01b815260040162001ebb9291906200382c565b600060405180830381600087803b15801562001ed657600080fd5b505af115801562001eeb573d6000803e3d6000fd5b505050507f1487cf914d0d048518844aa2edc6821fdc6bf7d53edffc84322b4b3ef2bbde9962001f1a6200265d565b828460405162001f2d9392919062003317565b60405180910390a1505050565b60006002828154811062001f77577f4e487b7100000000000000000000000000000000000000000000000000000000600052603260045260246000fd5b9060005260206000200160009054906101000a900473ffffffffffffffffffffffffffffffffffffffff1673ffffffffffffffffffffffffffffffffffffffff1662fdd58e8460006040518363ffffffff1660e01b815260040162001fde92919062003460565b60206040518083038186803b15801562001ff757600080fd5b505afa1580156200200c573d6000803e3d6000fd5b505050506040513d601f19601f8201168201806040525081019062002032919062002dfa565b905092915050565b600063f23a6e6160e01b905095945050505050565b620020596200265d565b73ffffffffffffffffffffffffffffffffffffffff166200207962001455565b73ffffffffffffffffffffffffffffffffffffffff1614620020d2576040517f08c379a0000000000000000000000000000000000000000000000000000000008152600401620020c99062003787565b60405180910390fd5b600073ffffffffffffffffffffffffffffffffffffffff168173ffffffffffffffffffffffffffffffffffffffff16141562002145576040517f08c379a00000000000000000000000000000000000000000000000000000000081526004016200213c90620036dd565b60405180910390fd5b620021508162002665565b50565b600060016002868154811062002192577f4e487b7100000000000000000000000000000000000000000000000000000000600052603260045260246000fd5b9060005260206000200160009054906101000a900473ffffffffffffffffffffffffffffffffffffffff1673ffffffffffffffffffffffffffffffffffffffff1662fdd58e3060006040518363ffffffff1660e01b8152600401620021f992919062003460565b60206040518083038186803b1580156200221257600080fd5b505afa15801562002227573d6000803e3d6000fd5b505050506040513d601f19601f820116820180604052508101906200224d919062002dfa565b1462002290576040517f08c379a00000000000000000000000000000000000000000000000000000000081526004016200228790620036ff565b60405180910390fd5b8260028681548110620022cc577f4e487b7100000000000000000000000000000000000000000000000000000000600052603260045260246000fd5b9060005260206000200160009054906101000a900473ffffffffffffffffffffffffffffffffffffffff1673ffffffffffffffffffffffffffffffffffffffff1663bc22fd1b6200231c6200265d565b6040518263ffffffff1660e01b81526004016200233a919062003236565b60206040518083038186803b1580156200235357600080fd5b505afa15801562002368573d6000803e3d6000fd5b505050506040513d601f19601f820116820180604052508101906200238e919062002dfa565b60028781548110620023c9577f4e487b7100000000000000000000000000000000000000000000000000000000600052603260045260246000fd5b9060005260206000200160009054906101000a900473ffffffffffffffffffffffffffffffffffffffff1673ffffffffffffffffffffffffffffffffffffffff1662fdd58e620024186200265d565b60016040518363ffffffff1660e01b8152600401620024399291906200348d565b60206040518083038186803b1580156200245257600080fd5b505afa15801562002467573d6000803e3d6000fd5b505050506040513d601f19601f820116820180604052508101906200248d919062002dfa565b62002499919062003a08565b1015620024dd576040517f08c379a0000000000000000000000000000000000000000000000000000000008152600401620024d490620036bb565b60405180910390fd5b6000604051806080016040528087815260200186815260200185815260200184815250905080600660008881526020019081526020016000206000620025226200265d565b73ffffffffffffffffffffffffffffffffffffffff1673ffffffffffffffffffffffffffffffffffffffff1681526020019081526020016000206000820151816000015560208201518160010155604082015181600201556060820151816003019080519060200190620025989291906200277d565b509050507fa1c2cf7b455a0ff88a9acdc647f6d3337a03a959f116847851f869d4c02ccbd7620025c76200265d565b87878787604051620025de9594939291906200359d565b60405180910390a16001915050949350505050565b60007f01ffc9a7000000000000000000000000000000000000000000000000000000007bffffffffffffffffffffffffffffffffffffffffffffffffffffffff1916827bffffffffffffffffffffffffffffffffffffffffffffffffffffffff1916149050919050565b600033905090565b60008060009054906101000a900473ffffffffffffffffffffffffffffffffffffffff169050816000806101000a81548173ffffffffffffffffffffffffffffffffffffffff021916908373ffffffffffffffffffffffffffffffffffffffff1602179055508173ffffffffffffffffffffffffffffffffffffffff168173ffffffffffffffffffffffffffffffffffffffff167f8be0079c531659141344cd1fd0a4f28419497f9722a3daafe3b4186f6b6457e060405160405180910390a35050565b508054620027379062003b4e565b6000825580601f106200274b57506200276c565b601f0160209004906000526020600020908101906200276b91906200280e565b5b50565b616fa58062003f2b83390190565b8280546200278b9062003b4e565b90600052602060002090601f016020900481019282620027af5760008555620027fb565b82601f10620027ca57805160ff1916838001178555620027fb565b82800160010185558215620027fb579182015b82811115620027fa578251825591602001919060010190620027dd565b5b5090506200280a91906200280e565b5090565b5b80821115620028295760008160009055506001016200280f565b5090565b6000620028446200283e8462003882565b62003859565b905080838252602082019050828560208602820111156200286457600080fd5b60005b858110156200289857816200287d888262002a53565b84526020840193506020830192505060018101905062002867565b5050509392505050565b6000620028b9620028b384620038b1565b62003859565b905082815260208101848484011115620028d257600080fd5b620028df84828562003b09565b509392505050565b6000620028fe620028f884620038e7565b62003859565b9050828152602081018484840111156200291757600080fd5b6200292484828562003b09565b509392505050565b6000620029436200293d84620038e7565b62003859565b9050828152602081018484840111156200295c57600080fd5b6200296984828562003b18565b509392505050565b600081359050620029828162003edc565b92915050565b600082601f8301126200299a57600080fd5b8135620029ac8482602086016200282d565b91505092915050565b600081359050620029c68162003ef6565b92915050565b600082601f830112620029de57600080fd5b8135620029f0848260208601620028a2565b91505092915050565b600082601f83011262002a0b57600080fd5b813562002a1d848260208601620028e7565b91505092915050565b600082601f83011262002a3857600080fd5b815162002a4a8482602086016200292c565b91505092915050565b60008135905062002a648162003f10565b92915050565b60008151905062002a7b8162003f10565b92915050565b60006020828403121562002a9457600080fd5b600062002aa48482850162002971565b91505092915050565b600080600080600060a0868803121562002ac657600080fd5b600062002ad68882890162002971565b955050602062002ae98882890162002971565b945050604086013567ffffffffffffffff81111562002b0757600080fd5b62002b158882890162002988565b935050606086013567ffffffffffffffff81111562002b3357600080fd5b62002b418882890162002988565b925050608086013567ffffffffffffffff81111562002b5f57600080fd5b62002b6d88828901620029cc565b9150509295509295909350565b600080600080600060a0868803121562002b9357600080fd5b600062002ba38882890162002971565b955050602062002bb68882890162002971565b945050604062002bc98882890162002a53565b935050606062002bdc8882890162002a53565b925050608086013567ffffffffffffffff81111562002bfa57600080fd5b62002c0888828901620029cc565b9150509295509295909350565b6000806040838503121562002c2957600080fd5b600062002c398582860162002971565b925050602062002c4c8582860162002a53565b9150509250929050565b60008060006060848603121562002c6c57600080fd5b600062002c7c8682870162002971565b935050602062002c8f8682870162002a53565b925050604062002ca28682870162002a53565b9150509250925092565b6000806000806080858703121562002cc357600080fd5b600062002cd38782880162002971565b945050602062002ce68782880162002a53565b935050604062002cf98782880162002a53565b925050606062002d0c8782880162002a53565b91505092959194509250565b60006020828403121562002d2b57600080fd5b600062002d3b84828501620029b5565b91505092915050565b60006020828403121562002d5757600080fd5b600082013567ffffffffffffffff81111562002d7257600080fd5b62002d8084828501620029f9565b91505092915050565b60006020828403121562002d9c57600080fd5b600082015167ffffffffffffffff81111562002db757600080fd5b62002dc58482850162002a26565b91505092915050565b60006020828403121562002de157600080fd5b600062002df18482850162002a53565b91505092915050565b60006020828403121562002e0d57600080fd5b600062002e1d8482850162002a6a565b91505092915050565b6000806040838503121562002e3a57600080fd5b600062002e4a8582860162002a53565b925050602062002e5d8582860162002971565b9150509250929050565b6000806040838503121562002e7b57600080fd5b600062002e8b8582860162002a53565b925050602062002e9e8582860162002a53565b9150509250929050565b60008060006060848603121562002ebe57600080fd5b600062002ece8682870162002a53565b935050602062002ee18682870162002a53565b925050604062002ef48682870162002971565b9150509250925092565b6000806000806080858703121562002f1557600080fd5b600062002f258782880162002a53565b945050602062002f388782880162002a53565b935050604062002f4b8782880162002a53565b925050606085013567ffffffffffffffff81111562002f6957600080fd5b62002f7787828801620029f9565b91505092959194509250565b62002f8e8162003a43565b82525050565b62002f9f8162003a57565b82525050565b62002fb08162003a63565b82525050565b62002fc18162003ab9565b82525050565b62002fd28162003ae1565b82525050565b62002fe38162003af5565b82525050565b600062002ff6826200391d565b62003002818562003939565b93506200301481856020860162003b18565b6200301f8162003c47565b840191505092915050565b600062003039601a8362003939565b9150620030468262003c58565b602082019050919050565b600062003060601d8362003939565b91506200306d8262003c81565b602082019050919050565b60006200308760268362003939565b9150620030948262003caa565b604082019050919050565b6000620030ae60368362003939565b9150620030bb8262003cf9565b604082019050919050565b6000620030d560198362003939565b9150620030e28262003d48565b602082019050919050565b6000620030fc60238362003939565b9150620031098262003d71565b604082019050919050565b60006200312360358362003939565b9150620031308262003dc0565b604082019050919050565b60006200314a60208362003939565b9150620031578262003e0f565b602082019050919050565b60006200317160148362003939565b91506200317e8262003e38565b602082019050919050565b60006200319860218362003939565b9150620031a58262003e61565b604082019050919050565b6000620031bf60008362003928565b9150620031cc8262003eb0565b600082019050919050565b6000620031e660008362003939565b9150620031f38262003eb0565b600082019050919050565b60006200320d601f8362003939565b91506200321a8262003eb3565b602082019050919050565b620032308162003aaf565b82525050565b60006020820190506200324d600083018462002f83565b92915050565b600060a0820190506200326a600083018762002f83565b62003279602083018662002f83565b62003288604083018562002fc7565b62003297606083018462002fd8565b8181036080830152620032aa81620031b0565b905095945050505050565b600060a082019050620032cc600083018762002f83565b620032db602083018662002f83565b620032ea604083018562002fd8565b620032f9606083018462003225565b81810360808301526200330c81620031b0565b905095945050505050565b60006060820190506200332e600083018662002f83565b6200333d602083018562002f83565b6200334c604083018462003225565b949350505050565b60006080820190506200336b600083018762002f83565b6200337a602083018662002f83565b62003389604083018562003225565b62003398606083018462003225565b95945050505050565b600060a082019050620033b8600083018762002f83565b620033c7602083018662002f83565b620033d6604083018562003225565b620033e5606083018462003225565b8181036080830152620033f881620031b0565b905095945050505050565b600060a0820190506200341a600083018862002f83565b62003429602083018762002f83565b62003438604083018662003225565b62003447606083018562003225565b62003456608083018462003225565b9695505050505050565b600060408201905062003477600083018562002f83565b62003486602083018462002fc7565b9392505050565b6000604082019050620034a4600083018562002f83565b620034b3602083018462002fd8565b9392505050565b6000606082019050620034d1600083018662002f83565b8181036020830152620034e5818562002fe9565b9050620034f6604083018462003225565b949350505050565b600060a08201905062003515600083018762002f83565b62003524602083018662003225565b62003533604083018562002fc7565b62003542606083018462002fc7565b81810360808301526200355581620031d7565b905095945050505050565b600060608201905062003577600083018662002f83565b62003586602083018562003225565b62003595604083018462003225565b949350505050565b600060a082019050620035b4600083018862002f83565b620035c3602083018762003225565b620035d2604083018662003225565b620035e1606083018562003225565b8181036080830152620035f5818462002fe9565b90509695505050505050565b600060208201905062003618600083018462002f94565b92915050565b600060208201905062003635600083018462002fa5565b92915050565b600060208201905062003652600083018462002fb6565b92915050565b60006020820190506200366f600083018462002fc7565b92915050565b6000602082019050818103600083015262003691818462002fe9565b905092915050565b60006020820190508181036000830152620036b4816200302a565b9050919050565b60006020820190508181036000830152620036d68162003051565b9050919050565b60006020820190508181036000830152620036f88162003078565b9050919050565b600060208201905081810360008301526200371a816200309f565b9050919050565b600060208201905081810360008301526200373c81620030c6565b9050919050565b600060208201905081810360008301526200375e81620030ed565b9050919050565b60006020820190508181036000830152620037808162003114565b9050919050565b60006020820190508181036000830152620037a2816200313b565b9050919050565b60006020820190508181036000830152620037c48162003162565b9050919050565b60006020820190508181036000830152620037e68162003189565b9050919050565b600060208201905081810360008301526200380881620031fe565b9050919050565b600060208201905062003826600083018462003225565b92915050565b600060408201905062003843600083018562003225565b62003852602083018462002f83565b9392505050565b60006200386562003878565b905062003873828262003b84565b919050565b6000604051905090565b600067ffffffffffffffff821115620038a0576200389f62003c18565b5b602082029050602081019050919050565b600067ffffffffffffffff821115620038cf57620038ce62003c18565b5b620038da8262003c47565b9050602081019050919050565b600067ffffffffffffffff82111562003905576200390462003c18565b5b620039108262003c47565b9050602081019050919050565b600081519050919050565b600082825260208201905092915050565b600082825260208201905092915050565b6000620039578262003aaf565b9150620039648362003aaf565b9250827fffffffffffffffffffffffffffffffffffffffffffffffffffffffffffffffff038211156200399c576200399b62003bba565b5b828201905092915050565b6000620039b48262003aaf565b9150620039c18362003aaf565b9250817fffffffffffffffffffffffffffffffffffffffffffffffffffffffffffffffff0483118215151615620039fd57620039fc62003bba565b5b828202905092915050565b600062003a158262003aaf565b915062003a228362003aaf565b92508282101562003a385762003a3762003bba565b5b828203905092915050565b600062003a508262003a8f565b9050919050565b60008115159050919050565b60007fffffffff0000000000000000000000000000000000000000000000000000000082169050919050565b600073ffffffffffffffffffffffffffffffffffffffff82169050919050565b6000819050919050565b600062003ac68262003acd565b9050919050565b600062003ada8262003a8f565b9050919050565b600062003aee8262003aaf565b9050919050565b600062003b028262003aaf565b9050919050565b82818337600083830152505050565b60005b8381101562003b3857808201518184015260208101905062003b1b565b8381111562003b48576000848401525b50505050565b6000600282049050600182168062003b6757607f821691505b6020821081141562003b7e5762003b7d62003be9565b5b50919050565b62003b8f8262003c47565b810181811067ffffffffffffffff8211171562003bb15762003bb062003c18565b5b80604052505050565b7f4e487b7100000000000000000000000000000000000000000000000000000000600052601160045260246000fd5b7f4e487b7100000000000000000000000000000000000000000000000000000000600052602260045260246000fd5b7f4e487b7100000000000000000000000000000000000000000000000000000000600052604160045260246000fd5b6000601f19601f8301169050919050565b7f596f7520646f6e74206861766520616e7920746f20636c61696d000000000000600082015250565b7f596f7520646f6e74206861766520656e6f756768206672616b74616c73000000600082015250565b7f4f776e61626c653a206e6577206f776e657220697320746865207a65726f206160008201527f6464726573730000000000000000000000000000000000000000000000000000602082015250565b7f596f75206e65656420746f2070757420746865206e667420696e20657363726f60008201527f7720746f206c69737420746865206672616b74616c7300000000000000000000602082015250565b7f54686973206974656d206973206e6f7420666f722073616c6500000000000000600082015250565b7f4f776e657220686173206e6f7420656e6f7567682073686172657320746f207360008201527f656c6c0000000000000000000000000000000000000000000000000000000000602082015250565b7f4672616b74616c4d61726b65743a20726571756573746420736861726573206160008201527f6d6f756e7420657863656564732062616c616e63650000000000000000000000602082015250565b7f4f776e61626c653a2063616c6c6572206973206e6f7420746865206f776e6572600082015250565b7f4e6f20616d6f756e74206973206c697374656421000000000000000000000000600082015250565b7f4672616b74616c4d61726b65743a20696e73756666696369656e742066756e6460008201527f7300000000000000000000000000000000000000000000000000000000000000602082015250565b50565b7f5265656e7472616e637947756172643a207265656e7472616e742063616c6c00600082015250565b62003ee78162003a43565b811462003ef357600080fd5b50565b62003f018162003a63565b811462003f0d57600080fd5b50565b62003f1b8162003aaf565b811462003f2757600080fd5b5056fe60806040523480156200001157600080fd5b5060405162006fa538038062006fa5833981810160405281019062000037919062000d09565b80806200004a816200023e60201b60201c565b506000600560006101000a81548160ff0219169083151502179055506200008a6000801b6200007e6200025a60201b60201c565b6200026260201b60201c565b620000cb7f9f2df0fed2c77648de5860a4cc508cd0818c85b8b8a1ab4ceeef8d981c8956a6620000bf6200025a60201b60201c565b6200026260201b60201c565b6200010c7f65d7a28e3265b37a6474929f336521b332c1681b933f6cb9f3376673440d862a620001006200025a60201b60201c565b6200026260201b60201c565b506040518060400160405280600060ff168152602001600160ff1681525060069060026200013c92919062000af5565b506040518060400160405280600161ffff16815260200161271061ffff1681525060079060026200016f92919062000b4c565b5062000237326006805480602002602001604051908101604052809291908181526020018280548015620001c357602002820191906000526020600020905b815481526020019060010190808311620001ae575b505050505060078054806020026020016040519081016040528092919081815260200182805480156200021657602002820191906000526020600020905b81548152602001906001019080831162000201575b505050505060405180602001604052806000815250620002aa60201b60201c565b50620016ea565b80600490805190602001906200025692919062000ba4565b5050565b600033905090565b6200027982826200034760201b620018311760201c565b620002a581600160008581526020019081526020016000206200035d60201b6200183f1790919060201c565b505050565b620002eb7f9f2df0fed2c77648de5860a4cc508cd0818c85b8b8a1ab4ceeef8d981c8956a6620002df6200025a60201b60201c565b6200039560201b60201c565b6200032d576040517f08c379a0000000000000000000000000000000000000000000000000000000008152600401620003249062001097565b60405180910390fd5b6200034184848484620003ff60201b60201c565b50505050565b6200035982826200069260201b60201c565b5050565b60006200038d836000018373ffffffffffffffffffffffffffffffffffffffff1660001b6200078360201b60201c565b905092915050565b600080600084815260200190815260200160002060000160008373ffffffffffffffffffffffffffffffffffffffff1673ffffffffffffffffffffffffffffffffffffffff16815260200190815260200160002060009054906101000a900460ff16905092915050565b600073ffffffffffffffffffffffffffffffffffffffff168473ffffffffffffffffffffffffffffffffffffffff16141562000472576040517f08c379a00000000000000000000000000000000000000000000000000000000081526004016200046990620010db565b60405180910390fd5b8151835114620004b9576040517f08c379a0000000000000000000000000000000000000000000000000000000008152600401620004b090620010b9565b60405180910390fd5b6000620004cb6200025a60201b60201c565b9050620004e481600087878787620007fd60201b60201c565b60005b8451811015620005f2578381815181106200052b577f4e487b7100000000000000000000000000000000000000000000000000000000600052603260045260246000fd5b60200260200101516002600087848151811062000571577f4e487b7100000000000000000000000000000000000000000000000000000000600052603260045260246000fd5b6020026020010151815260200190815260200160002060008873ffffffffffffffffffffffffffffffffffffffff1673ffffffffffffffffffffffffffffffffffffffff1681526020019081526020016000206000828254620005d59190620011cd565b925050819055508080620005e99062001336565b915050620004e7565b508473ffffffffffffffffffffffffffffffffffffffff16600073ffffffffffffffffffffffffffffffffffffffff168273ffffffffffffffffffffffffffffffffffffffff167f4a39dc06d4c0dbc64b70af90fd698a233a518aa5d07e595d983b8c0526c8f7fb87876040516200066c92919062000fd2565b60405180910390a46200068b816000878787876200082060201b60201c565b5050505050565b620006a482826200039560201b60201c565b6200077f57600160008084815260200190815260200160002060000160008373ffffffffffffffffffffffffffffffffffffffff1673ffffffffffffffffffffffffffffffffffffffff16815260200190815260200160002060006101000a81548160ff021916908315150217905550620007246200025a60201b60201c565b73ffffffffffffffffffffffffffffffffffffffff168173ffffffffffffffffffffffffffffffffffffffff16837f2f8788117e7eff1d82e926ec794901d17c78024a50270940304540a733656f0d60405160405180910390a45b5050565b600062000797838362000a2a60201b60201c565b620007f2578260000182908060018154018082558091505060019003906000526020600020016000909190919091505582600001805490508360010160008481526020019081526020016000208190555060019050620007f7565b600090505b92915050565b6200081886868686868662000a4d60201b6200186f1760201c565b505050505050565b6200084c8473ffffffffffffffffffffffffffffffffffffffff1662000ac360201b620018cd1760201c565b1562000a22578373ffffffffffffffffffffffffffffffffffffffff1663bc197c8187878686866040518663ffffffff1660e01b81526004016200089595949392919062000f60565b602060405180830381600087803b158015620008b057600080fd5b505af1925050508015620008e457506040513d601f19601f82011682018060405250810190620008e1919062000cdd565b60015b6200099657620008f362001411565b806308c379a014156200095757506200090b6200162e565b8062000918575062000959565b806040517f08c379a00000000000000000000000000000000000000000000000000000000081526004016200094e91906200100d565b60405180910390fd5b505b6040517f08c379a00000000000000000000000000000000000000000000000000000000081526004016200098d9062001031565b60405180910390fd5b63bc197c8160e01b7bffffffffffffffffffffffffffffffffffffffffffffffffffffffff1916817bffffffffffffffffffffffffffffffffffffffffffffffffffffffff19161462000a20576040517f08c379a000000000000000000000000000000000000000000000000000000000815260040162000a179062001053565b60405180910390fd5b505b505050505050565b600080836001016000848152602001908152602001600020541415905092915050565b62000a6886868686868662000ad660201b620018e01760201c565b62000a7862000ade60201b60201c565b1562000abb576040517f08c379a000000000000000000000000000000000000000000000000000000000815260040162000ab29062001075565b60405180910390fd5b505050505050565b600080823b905060008111915050919050565b505050505050565b6000600560009054906101000a900460ff16905090565b82805482825590600052602060002090810192821562000b39579160200282015b8281111562000b38578251829060ff1690559160200191906001019062000b16565b5b50905062000b48919062000c35565b5090565b82805482825590600052602060002090810192821562000b91579160200282015b8281111562000b90578251829061ffff1690559160200191906001019062000b6d565b5b50905062000ba0919062000c35565b5090565b82805462000bb290620012ca565b90600052602060002090601f01602090048101928262000bd6576000855562000c22565b82601f1062000bf157805160ff191683800117855562000c22565b8280016001018555821562000c22579182015b8281111562000c2157825182559160200191906001019062000c04565b5b50905062000c31919062000c35565b5090565b5b8082111562000c5057600081600090555060010162000c36565b5090565b600062000c6b62000c658462001126565b620010fd565b90508281526020810184848401111562000c8457600080fd5b62000c9184828562001294565b509392505050565b60008151905062000caa81620016d0565b92915050565b600082601f83011262000cc257600080fd5b815162000cd484826020860162000c54565b91505092915050565b60006020828403121562000cf057600080fd5b600062000d008482850162000c99565b91505092915050565b60006020828403121562000d1c57600080fd5b600082015167ffffffffffffffff81111562000d3757600080fd5b62000d458482850162000cb0565b91505092915050565b600062000d5c838362000f4f565b60208301905092915050565b62000d73816200122a565b82525050565b600062000d86826200116c565b62000d9281856200119a565b935062000d9f836200115c565b8060005b8381101562000dd657815162000dba888262000d4e565b975062000dc7836200118d565b92505060018101905062000da3565b5085935050505092915050565b600062000df08262001177565b62000dfc8185620011ab565b935062000e0e81856020860162001294565b62000e198162001436565b840191505092915050565b600062000e318262001182565b62000e3d8185620011bc565b935062000e4f81856020860162001294565b62000e5a8162001436565b840191505092915050565b600062000e74603483620011bc565b915062000e818262001454565b604082019050919050565b600062000e9b602883620011bc565b915062000ea882620014a3565b604082019050919050565b600062000ec2602c83620011bc565b915062000ecf82620014f2565b604082019050919050565b600062000ee9603883620011bc565b915062000ef68262001541565b604082019050919050565b600062000f10602883620011bc565b915062000f1d8262001590565b604082019050919050565b600062000f37602183620011bc565b915062000f4482620015df565b604082019050919050565b62000f5a816200128a565b82525050565b600060a08201905062000f77600083018862000d68565b62000f86602083018762000d68565b818103604083015262000f9a818662000d79565b9050818103606083015262000fb0818562000d79565b9050818103608083015262000fc6818462000de3565b90509695505050505050565b6000604082019050818103600083015262000fee818562000d79565b9050818103602083015262001004818462000d79565b90509392505050565b6000602082019050818103600083015262001029818462000e24565b905092915050565b600060208201905081810360008301526200104c8162000e65565b9050919050565b600060208201905081810360008301526200106e8162000e8c565b9050919050565b60006020820190508181036000830152620010908162000eb3565b9050919050565b60006020820190508181036000830152620010b28162000eda565b9050919050565b60006020820190508181036000830152620010d48162000f01565b9050919050565b60006020820190508181036000830152620010f68162000f28565b9050919050565b6000620011096200111c565b905062001117828262001300565b919050565b6000604051905090565b600067ffffffffffffffff821115620011445762001143620013e2565b5b6200114f8262001436565b9050602081019050919050565b6000819050602082019050919050565b600081519050919050565b600081519050919050565b600081519050919050565b6000602082019050919050565b600082825260208201905092915050565b600082825260208201905092915050565b600082825260208201905092915050565b6000620011da826200128a565b9150620011e7836200128a565b9250827fffffffffffffffffffffffffffffffffffffffffffffffffffffffffffffffff038211156200121f576200121e62001384565b5b828201905092915050565b600062001237826200126a565b9050919050565b60007fffffffff0000000000000000000000000000000000000000000000000000000082169050919050565b600073ffffffffffffffffffffffffffffffffffffffff82169050919050565b6000819050919050565b60005b83811015620012b457808201518184015260208101905062001297565b83811115620012c4576000848401525b50505050565b60006002820490506001821680620012e357607f821691505b60208210811415620012fa57620012f9620013b3565b5b50919050565b6200130b8262001436565b810181811067ffffffffffffffff821117156200132d576200132c620013e2565b5b80604052505050565b600062001343826200128a565b91507fffffffffffffffffffffffffffffffffffffffffffffffffffffffffffffffff82141562001379576200137862001384565b5b600182019050919050565b7f4e487b7100000000000000000000000000000000000000000000000000000000600052601160045260246000fd5b7f4e487b7100000000000000000000000000000000000000000000000000000000600052602260045260246000fd5b7f4e487b7100000000000000000000000000000000000000000000000000000000600052604160045260246000fd5b600060033d1115620014335760046000803e6200143060005162001447565b90505b90565b6000601f19601f8301169050919050565b60008160e01c9050919050565b7f455243313135353a207472616e7366657220746f206e6f6e204552433131353560008201527f526563656976657220696d706c656d656e746572000000000000000000000000602082015250565b7f455243313135353a204552433131353552656365697665722072656a6563746560008201527f6420746f6b656e73000000000000000000000000000000000000000000000000602082015250565b7f455243313135355061757361626c653a20746f6b656e207472616e736665722060008201527f7768696c65207061757365640000000000000000000000000000000000000000602082015250565b7f455243313135355072657365744d696e7465725061757365723a206d7573742060008201527f68617665206d696e74657220726f6c6520746f206d696e740000000000000000602082015250565b7f455243313135353a2069647320616e6420616d6f756e7473206c656e6774682060008201527f6d69736d61746368000000000000000000000000000000000000000000000000602082015250565b7f455243313135353a206d696e7420746f20746865207a65726f2061646472657360008201527f7300000000000000000000000000000000000000000000000000000000000000602082015250565b600060443d10156200164057620016cd565b6200164a6200111c565b60043d036004823e80513d602482011167ffffffffffffffff8211171562001674575050620016cd565b808201805167ffffffffffffffff811115620016945750505050620016cd565b80602083010160043d038501811115620016b3575050505050620016cd565b620016c48260200185018662001300565b82955050505050505b90565b620016db816200123e565b8114620016e757600080fd5b50565b6158ab80620016fa6000396000f3fe608060405234801561001057600080fd5b50600436106101fa5760003560e01c80638456cb591161011a578063d5391393116100ad578063e985e9c51161007c578063e985e9c5146105f7578063f0480f7114610627578063f242432a14610657578063f5298aca14610673578063f7ba7c391461068f576101fa565b8063d53913931461056f578063d547741f1461058d578063e336ac44146105a9578063e63ab1e9146105d9576101fa565b8063a217fddf116100e9578063a217fddf146104d5578063a22cb465146104f3578063bc22fd1b1461050f578063ca15c8731461053f576101fa565b80638456cb591461043b5780639010d07c1461044557806391d14854146104755780639633867d146104a5576101fa565b806336568abe11610192578063540358b111610161578063540358b1146103c95780635c975abb146103e55780636b20c45414610403578063731133e91461041f576101fa565b806336568abe146103435780633f4ba83a1461035f57806345f0a44f146103695780634e1273f414610399576101fa565b8063248a9ca3116101ce578063248a9ca3146102ab57806325fb21d7146102db5780632eb2c2d61461030b5780632f2ff15d14610327576101fa565b8062fdd58e146101ff57806301ffc9a71461022f5780630e89341c1461025f5780631f7fdffa1461028f575b600080fd5b61021960048036038101906102149190613e59565b6106ab565b6040516102269190614b20565b60405180910390f35b6102496004803603810190610244919061406c565b610775565b60405161025691906147a8565b60405180910390f35b610279600480360381019061027491906140be565b610787565b60405161028691906147de565b60405180910390f35b6102a960048036038101906102a49190613d72565b61081b565b005b6102c560048036038101906102c09190613fcb565b61089d565b6040516102d291906147c3565b60405180910390f35b6102f560048036038101906102f09190613b69565b6108bc565b6040516103029190614b20565b60405180910390f35b61032560048036038101906103209190613ba5565b6108e1565b005b610341600480360381019061033c9190613ff4565b610982565b005b61035d60048036038101906103589190613ff4565b6109b6565b005b6103676109ea565b005b610383600480360381019061037e91906140be565b610a64565b6040516103909190614b20565b60405180910390f35b6103b360048036038101906103ae9190613f5f565b610a88565b6040516103c0919061474f565b60405180910390f35b6103e360048036038101906103de91906140e7565b610c39565b005b6103ed610e13565b6040516103fa91906147a8565b60405180910390f35b61041d60048036038101906104189190613cf3565b610e2a565b005b61043960048036038101906104349190613ee4565b610ec7565b005b610443610f49565b005b61045f600480360381019061045a9190614030565b610fc3565b60405161046c9190614672565b60405180910390f35b61048f600480360381019061048a9190613ff4565b610ff2565b60405161049c91906147a8565b60405180910390f35b6104bf60048036038101906104ba91906140be565b61105c565b6040516104cc9190614b20565b60405180910390f35b6104dd611080565b6040516104ea91906147c3565b60405180910390f35b61050d60048036038101906105089190613e1d565b611087565b005b61052960048036038101906105249190613b40565b611208565b6040516105369190614b20565b60405180910390f35b61055960048036038101906105549190613fcb565b611251565b6040516105669190614b20565b60405180910390f35b610577611275565b60405161058491906147c3565b60405180910390f35b6105a760048036038101906105a29190613ff4565b611299565b005b6105c360048036038101906105be9190613b40565b6112cd565b6040516105d09190614b20565b60405180910390f35b6105e16112e5565b6040516105ee91906147c3565b60405180910390f35b610611600480360381019061060c9190613b69565b611309565b60405161061e91906147a8565b60405180910390f35b610641600480360381019061063c9190613b40565b61139d565b60405161064e9190614b20565b60405180910390f35b610671600480360381019061066c9190613c64565b6113e6565b005b61068d60048036038101906106889190613e95565b611592565b005b6106a960048036038101906106a491906140e7565b61162f565b005b60008073ffffffffffffffffffffffffffffffffffffffff168373ffffffffffffffffffffffffffffffffffffffff16141561071c576040517f08c379a000000000000000000000000000000000000000000000000000000000815260040161071390614880565b60405180910390fd5b6002600083815260200190815260200160002060008473ffffffffffffffffffffffffffffffffffffffff1673ffffffffffffffffffffffffffffffffffffffff16815260200190815260200160002054905092915050565b6000610780826118e8565b9050919050565b60606004805461079690614e5c565b80601f01602080910402602001604051908101604052809291908181526020018280546107c290614e5c565b801561080f5780601f106107e45761010080835404028352916020019161080f565b820191906000526020600020905b8154815290600101906020018083116107f257829003601f168201915b50505050509050919050565b61084c7f9f2df0fed2c77648de5860a4cc508cd0818c85b8b8a1ab4ceeef8d981c8956a66108476119ca565b610ff2565b61088b576040517f08c379a0000000000000000000000000000000000000000000000000000000008152600401610882906149e0565b60405180910390fd5b610897848484846119d2565b50505050565b6000806000838152602001908152602001600020600101549050919050565b6009602052816000526040600020602052806000526040600020600091509150505481565b6108e96119ca565b73ffffffffffffffffffffffffffffffffffffffff168573ffffffffffffffffffffffffffffffffffffffff16148061092f575061092e856109296119ca565b611309565b5b61096e576040517f08c379a0000000000000000000000000000000000000000000000000000000008152600401610965906149a0565b60405180910390fd5b61097b8585858585611c3d565b5050505050565b61098c8282611fa0565b6109b1816001600085815260200190815260200160002061183f90919063ffffffff16565b505050565b6109c08282611fc9565b6109e5816001600085815260200190815260200160002061204c90919063ffffffff16565b505050565b610a1b7f65d7a28e3265b37a6474929f336521b332c1681b933f6cb9f3376673440d862a610a166119ca565b610ff2565b610a5a576040517f08c379a0000000000000000000000000000000000000000000000000000000008152600401610a5190614a40565b60405180910390fd5b610a6261207c565b565b60078181548110610a7457600080fd5b906000526020600020016000915090505481565b60608151835114610ace576040517f08c379a0000000000000000000000000000000000000000000000000000000008152600401610ac590614aa0565b60405180910390fd5b6000835167ffffffffffffffff811115610b11577f4e487b7100000000000000000000000000000000000000000000000000000000600052604160045260246000fd5b604051908082528060200260200182016040528015610b3f5781602001602082028036833780820191505090505b50905060005b8451811015610c2e57610bd8858281518110610b8a577f4e487b7100000000000000000000000000000000000000000000000000000000600052603260045260246000fd5b6020026020010151858381518110610bcb577f4e487b7100000000000000000000000000000000000000000000000000000000600052603260045260246000fd5b60200260200101516106ab565b828281518110610c11577f4e487b7100000000000000000000000000000000000000000000000000000000600052603260045260246000fd5b60200260200101818152505080610c2790614ebf565b9050610b45565b508091505092915050565b81600860003273ffffffffffffffffffffffffffffffffffffffff1673ffffffffffffffffffffffffffffffffffffffff16815260200190815260200160002054610c853260016106ab565b610c8f9190614d3e565b1015610cd0576040517f08c379a0000000000000000000000000000000000000000000000000000000008152600401610cc790614a20565b60405180910390fd5b81600860003273ffffffffffffffffffffffffffffffffffffffff1673ffffffffffffffffffffffffffffffffffffffff1681526020019081526020016000206000828254610d1f9190614c8e565b9250508190555081600960003273ffffffffffffffffffffffffffffffffffffffff1673ffffffffffffffffffffffffffffffffffffffff16815260200190815260200160002060008373ffffffffffffffffffffffffffffffffffffffff1673ffffffffffffffffffffffffffffffffffffffff1681526020019081526020016000206000828254610db29190614c8e565b9250508190555081600a60008373ffffffffffffffffffffffffffffffffffffffff1673ffffffffffffffffffffffffffffffffffffffff1681526020019081526020016000206000828254610e089190614c8e565b925050819055505050565b6000600560009054906101000a900460ff16905090565b610e326119ca565b73ffffffffffffffffffffffffffffffffffffffff168373ffffffffffffffffffffffffffffffffffffffff161480610e785750610e7783610e726119ca565b611309565b5b610eb7576040517f08c379a0000000000000000000000000000000000000000000000000000000008152600401610eae906148e0565b60405180910390fd5b610ec283838361211e565b505050565b610ef87f9f2df0fed2c77648de5860a4cc508cd0818c85b8b8a1ab4ceeef8d981c8956a6610ef36119ca565b610ff2565b610f37576040517f08c379a0000000000000000000000000000000000000000000000000000000008152600401610f2e906149e0565b60405180910390fd5b610f438484848461241d565b50505050565b610f7a7f65d7a28e3265b37a6474929f336521b332c1681b933f6cb9f3376673440d862a610f756119ca565b610ff2565b610fb9576040517f08c379a0000000000000000000000000000000000000000000000000000000008152600401610fb090614a60565b60405180910390fd5b610fc16125b4565b565b6000610fea826001600086815260200190815260200160002061265790919063ffffffff16565b905092915050565b600080600084815260200190815260200160002060000160008373ffffffffffffffffffffffffffffffffffffffff1673ffffffffffffffffffffffffffffffffffffffff16815260200190815260200160002060009054906101000a900460ff16905092915050565b6006818154811061106c57600080fd5b906000526020600020016000915090505481565b6000801b81565b8173ffffffffffffffffffffffffffffffffffffffff166110a66119ca565b73ffffffffffffffffffffffffffffffffffffffff1614156110fd576040517f08c379a00000000000000000000000000000000000000000000000000000000081526004016110f490614a80565b60405180910390fd5b806003600061110a6119ca565b73ffffffffffffffffffffffffffffffffffffffff1673ffffffffffffffffffffffffffffffffffffffff16815260200190815260200160002060008473ffffffffffffffffffffffffffffffffffffffff1673ffffffffffffffffffffffffffffffffffffffff16815260200190815260200160002060006101000a81548160ff0219169083151502179055508173ffffffffffffffffffffffffffffffffffffffff166111b76119ca565b73ffffffffffffffffffffffffffffffffffffffff167f17307eab39ab6107e8899845ad3d59bd9653f200f220920489ca2b5937696c31836040516111fc91906147a8565b60405180910390a35050565b6000600860008373ffffffffffffffffffffffffffffffffffffffff1673ffffffffffffffffffffffffffffffffffffffff168152602001908152602001600020549050919050565b600061126e60016000848152602001908152602001600020612671565b9050919050565b7f9f2df0fed2c77648de5860a4cc508cd0818c85b8b8a1ab4ceeef8d981c8956a681565b6112a38282612686565b6112c8816001600085815260200190815260200160002061204c90919063ffffffff16565b505050565b60086020528060005260406000206000915090505481565b7f65d7a28e3265b37a6474929f336521b332c1681b933f6cb9f3376673440d862a81565b6000600360008473ffffffffffffffffffffffffffffffffffffffff1673ffffffffffffffffffffffffffffffffffffffff16815260200190815260200160002060008373ffffffffffffffffffffffffffffffffffffffff1673ffffffffffffffffffffffffffffffffffffffff16815260200190815260200160002060009054906101000a900460ff16905092915050565b6000600a60008373ffffffffffffffffffffffffffffffffffffffff1673ffffffffffffffffffffffffffffffffffffffff168152602001908152602001600020549050919050565b600073ffffffffffffffffffffffffffffffffffffffff168573ffffffffffffffffffffffffffffffffffffffff161415611456576040517f08c379a000000000000000000000000000000000000000000000000000000000815260040161144d90614980565b60405180910390fd5b60008314156114e75761270f600a60008773ffffffffffffffffffffffffffffffffffffffff1673ffffffffffffffffffffffffffffffffffffffff16815260200190815260200160002054116114e2576040517f08c379a00000000000000000000000000000000000000000000000000000000081526004016114d990614900565b60405180910390fd5b61157e565b81600860008673ffffffffffffffffffffffffffffffffffffffff1673ffffffffffffffffffffffffffffffffffffffff1681526020019081526020016000205461153286866106ab565b61153c9190614d3e565b101561157d576040517f08c379a000000000000000000000000000000000000000000000000000000000815260040161157490614920565b60405180910390fd5b5b61158b84868585856126af565b5050505050565b61159a6119ca565b73ffffffffffffffffffffffffffffffffffffffff168373ffffffffffffffffffffffffffffffffffffffff1614806115e057506115df836115da6119ca565b611309565b5b61161f576040517f08c379a0000000000000000000000000000000000000000000000000000000008152600401611616906148e0565b60405180910390fd5b61162a838383612934565b505050565b81600960003273ffffffffffffffffffffffffffffffffffffffff1673ffffffffffffffffffffffffffffffffffffffff16815260200190815260200160002060008373ffffffffffffffffffffffffffffffffffffffff1673ffffffffffffffffffffffffffffffffffffffff1681526020019081526020016000205410156116ee576040517f08c379a00000000000000000000000000000000000000000000000000000000081526004016116e590614940565b60405180910390fd5b81600860003273ffffffffffffffffffffffffffffffffffffffff1673ffffffffffffffffffffffffffffffffffffffff168152602001908152602001600020600082825461173d9190614d3e565b9250508190555081600960003273ffffffffffffffffffffffffffffffffffffffff1673ffffffffffffffffffffffffffffffffffffffff16815260200190815260200160002060008373ffffffffffffffffffffffffffffffffffffffff1673ffffffffffffffffffffffffffffffffffffffff16815260200190815260200160002060008282546117d09190614d3e565b9250508190555081600a60008373ffffffffffffffffffffffffffffffffffffffff1673ffffffffffffffffffffffffffffffffffffffff16815260200190815260200160002060008282546118269190614d3e565b925050819055505050565b61183b8282612b53565b5050565b6000611867836000018373ffffffffffffffffffffffffffffffffffffffff1660001b612c33565b905092915050565b61187d8686868686866118e0565b611885610e13565b156118c5576040517f08c379a00000000000000000000000000000000000000000000000000000000081526004016118bc906148c0565b60405180910390fd5b505050505050565b600080823b905060008111915050919050565b505050505050565b60007fd9b67a26000000000000000000000000000000000000000000000000000000007bffffffffffffffffffffffffffffffffffffffffffffffffffffffff1916827bffffffffffffffffffffffffffffffffffffffffffffffffffffffff191614806119b357507f0e89341c000000000000000000000000000000000000000000000000000000007bffffffffffffffffffffffffffffffffffffffffffffffffffffffff1916827bffffffffffffffffffffffffffffffffffffffffffffffffffffffff1916145b806119c357506119c282612ca3565b5b9050919050565b600033905090565b600073ffffffffffffffffffffffffffffffffffffffff168473ffffffffffffffffffffffffffffffffffffffff161415611a42576040517f08c379a0000000000000000000000000000000000000000000000000000000008152600401611a3990614ae0565b60405180910390fd5b8151835114611a86576040517f08c379a0000000000000000000000000000000000000000000000000000000008152600401611a7d90614ac0565b60405180910390fd5b6000611a906119ca565b9050611aa181600087878787612d1d565b60005b8451811015611ba757838181518110611ae6577f4e487b7100000000000000000000000000000000000000000000000000000000600052603260045260246000fd5b602002602001015160026000878481518110611b2b577f4e487b7100000000000000000000000000000000000000000000000000000000600052603260045260246000fd5b6020026020010151815260200190815260200160002060008873ffffffffffffffffffffffffffffffffffffffff1673ffffffffffffffffffffffffffffffffffffffff1681526020019081526020016000206000828254611b8d9190614c8e565b925050819055508080611b9f90614ebf565b915050611aa4565b508473ffffffffffffffffffffffffffffffffffffffff16600073ffffffffffffffffffffffffffffffffffffffff168273ffffffffffffffffffffffffffffffffffffffff167f4a39dc06d4c0dbc64b70af90fd698a233a518aa5d07e595d983b8c0526c8f7fb8787604051611c1f929190614771565b60405180910390a4611c3681600087878787612d33565b5050505050565b8151835114611c81576040517f08c379a0000000000000000000000000000000000000000000000000000000008152600401611c7890614ac0565b60405180910390fd5b600073ffffffffffffffffffffffffffffffffffffffff168473ffffffffffffffffffffffffffffffffffffffff161415611cf1576040517f08c379a0000000000000000000000000000000000000000000000000000000008152600401611ce890614980565b60405180910390fd5b6000611cfb6119ca565b9050611d0b818787878787612d1d565b60005b8451811015611f0b576000858281518110611d52577f4e487b7100000000000000000000000000000000000000000000000000000000600052603260045260246000fd5b602002602001015190506000858381518110611d97577f4e487b7100000000000000000000000000000000000000000000000000000000600052603260045260246000fd5b6020026020010151905060006002600084815260200190815260200160002060008b73ffffffffffffffffffffffffffffffffffffffff1673ffffffffffffffffffffffffffffffffffffffff16815260200190815260200160002054905081811015611e39576040517f08c379a0000000000000000000000000000000000000000000000000000000008152600401611e3090614a00565b60405180910390fd5b8181036002600085815260200190815260200160002060008c73ffffffffffffffffffffffffffffffffffffffff1673ffffffffffffffffffffffffffffffffffffffff16815260200190815260200160002081905550816002600085815260200190815260200160002060008b73ffffffffffffffffffffffffffffffffffffffff1673ffffffffffffffffffffffffffffffffffffffff1681526020019081526020016000206000828254611ef09190614c8e565b9250508190555050505080611f0490614ebf565b9050611d0e565b508473ffffffffffffffffffffffffffffffffffffffff168673ffffffffffffffffffffffffffffffffffffffff168273ffffffffffffffffffffffffffffffffffffffff167f4a39dc06d4c0dbc64b70af90fd698a233a518aa5d07e595d983b8c0526c8f7fb8787604051611f82929190614771565b60405180910390a4611f98818787878787612d33565b505050505050565b611fa98261089d565b611fba81611fb56119ca565b612f1a565b611fc48383612b53565b505050565b611fd16119ca565b73ffffffffffffffffffffffffffffffffffffffff168173ffffffffffffffffffffffffffffffffffffffff161461203e576040517f08c379a000000000000000000000000000000000000000000000000000000000815260040161203590614b00565b60405180910390fd5b6120488282612fb7565b5050565b6000612074836000018373ffffffffffffffffffffffffffffffffffffffff1660001b613098565b905092915050565b612084610e13565b6120c3576040517f08c379a00000000000000000000000000000000000000000000000000000000081526004016120ba90614860565b60405180910390fd5b6000600560006101000a81548160ff0219169083151502179055507f5db9ee0a495bf2e6ff9c91a7834c1ba4fdd244a5e8aa4e537bd38aeae4b073aa6121076119ca565b6040516121149190614672565b60405180910390a1565b600073ffffffffffffffffffffffffffffffffffffffff168373ffffffffffffffffffffffffffffffffffffffff16141561218e576040517f08c379a0000000000000000000000000000000000000000000000000000000008152600401612185906149c0565b60405180910390fd5b80518251146121d2576040517f08c379a00000000000000000000000000000000000000000000000000000000081526004016121c990614ac0565b60405180910390fd5b60006121dc6119ca565b90506121fc81856000868660405180602001604052806000815250612d1d565b60005b8351811015612397576000848281518110612243577f4e487b7100000000000000000000000000000000000000000000000000000000600052603260045260246000fd5b602002602001015190506000848381518110612288577f4e487b7100000000000000000000000000000000000000000000000000000000600052603260045260246000fd5b6020026020010151905060006002600084815260200190815260200160002060008973ffffffffffffffffffffffffffffffffffffffff1673ffffffffffffffffffffffffffffffffffffffff1681526020019081526020016000205490508181101561232a576040517f08c379a0000000000000000000000000000000000000000000000000000000008152600401612321906148a0565b60405180910390fd5b8181036002600085815260200190815260200160002060008a73ffffffffffffffffffffffffffffffffffffffff1673ffffffffffffffffffffffffffffffffffffffff16815260200190815260200160002081905550505050808061238f90614ebf565b9150506121ff565b50600073ffffffffffffffffffffffffffffffffffffffff168473ffffffffffffffffffffffffffffffffffffffff168273ffffffffffffffffffffffffffffffffffffffff167f4a39dc06d4c0dbc64b70af90fd698a233a518aa5d07e595d983b8c0526c8f7fb868660405161240f929190614771565b60405180910390a450505050565b600073ffffffffffffffffffffffffffffffffffffffff168473ffffffffffffffffffffffffffffffffffffffff16141561248d576040517f08c379a000000000000000000000000000000000000000000000000000000000815260040161248490614ae0565b60405180910390fd5b60006124976119ca565b90506124b8816000876124a98861321e565b6124b28861321e565b87612d1d565b826002600086815260200190815260200160002060008773ffffffffffffffffffffffffffffffffffffffff1673ffffffffffffffffffffffffffffffffffffffff16815260200190815260200160002060008282546125189190614c8e565b925050819055508473ffffffffffffffffffffffffffffffffffffffff16600073ffffffffffffffffffffffffffffffffffffffff168273ffffffffffffffffffffffffffffffffffffffff167fc3d58168c5ae7397731d063d5bbf3d657854427343f4c083240f7aacaa2d0f628787604051612596929190614b3b565b60405180910390a46125ad816000878787876132e4565b5050505050565b6125bc610e13565b156125fc576040517f08c379a00000000000000000000000000000000000000000000000000000000081526004016125f390614960565b60405180910390fd5b6001600560006101000a81548160ff0219169083151502179055507f62e78cea01bee320cd4e420270b5ea74000d11b0c9f74754ebdbfc544b05a2586126406119ca565b60405161264d9190614672565b60405180910390a1565b600061266683600001836134cb565b60001c905092915050565b600061267f8260000161351c565b9050919050565b61268f8261089d565b6126a08161269b6119ca565b612f1a565b6126aa8383612fb7565b505050565b600073ffffffffffffffffffffffffffffffffffffffff168473ffffffffffffffffffffffffffffffffffffffff16141561271f576040517f08c379a000000000000000000000000000000000000000000000000000000000815260040161271690614980565b60405180910390fd5b60006127296119ca565b905061274981878761273a8861321e565b6127438861321e565b87612d1d565b60006002600086815260200190815260200160002060008873ffffffffffffffffffffffffffffffffffffffff1673ffffffffffffffffffffffffffffffffffffffff168152602001908152602001600020549050838110156127e1576040517f08c379a00000000000000000000000000000000000000000000000000000000081526004016127d890614a00565b60405180910390fd5b8381036002600087815260200190815260200160002060008973ffffffffffffffffffffffffffffffffffffffff1673ffffffffffffffffffffffffffffffffffffffff16815260200190815260200160002081905550836002600087815260200190815260200160002060008873ffffffffffffffffffffffffffffffffffffffff1673ffffffffffffffffffffffffffffffffffffffff16815260200190815260200160002060008282546128989190614c8e565b925050819055508573ffffffffffffffffffffffffffffffffffffffff168773ffffffffffffffffffffffffffffffffffffffff168373ffffffffffffffffffffffffffffffffffffffff167fc3d58168c5ae7397731d063d5bbf3d657854427343f4c083240f7aacaa2d0f628888604051612915929190614b3b565b60405180910390a461292b8288888888886132e4565b50505050505050565b600073ffffffffffffffffffffffffffffffffffffffff168373ffffffffffffffffffffffffffffffffffffffff1614156129a4576040517f08c379a000000000000000000000000000000000000000000000000000000000815260040161299b906149c0565b60405180910390fd5b60006129ae6119ca565b90506129de818560006129c08761321e565b6129c98761321e565b60405180602001604052806000815250612d1d565b60006002600085815260200190815260200160002060008673ffffffffffffffffffffffffffffffffffffffff1673ffffffffffffffffffffffffffffffffffffffff16815260200190815260200160002054905082811015612a76576040517f08c379a0000000000000000000000000000000000000000000000000000000008152600401612a6d906148a0565b60405180910390fd5b8281036002600086815260200190815260200160002060008773ffffffffffffffffffffffffffffffffffffffff1673ffffffffffffffffffffffffffffffffffffffff16815260200190815260200160002081905550600073ffffffffffffffffffffffffffffffffffffffff168573ffffffffffffffffffffffffffffffffffffffff168373ffffffffffffffffffffffffffffffffffffffff167fc3d58168c5ae7397731d063d5bbf3d657854427343f4c083240f7aacaa2d0f628787604051612b44929190614b3b565b60405180910390a45050505050565b612b5d8282610ff2565b612c2f57600160008084815260200190815260200160002060000160008373ffffffffffffffffffffffffffffffffffffffff1673ffffffffffffffffffffffffffffffffffffffff16815260200190815260200160002060006101000a81548160ff021916908315150217905550612bd46119ca565b73ffffffffffffffffffffffffffffffffffffffff168173ffffffffffffffffffffffffffffffffffffffff16837f2f8788117e7eff1d82e926ec794901d17c78024a50270940304540a733656f0d60405160405180910390a45b5050565b6000612c3f838361352d565b612c98578260000182908060018154018082558091505060019003906000526020600020016000909190919091505582600001805490508360010160008481526020019081526020016000208190555060019050612c9d565b600090505b92915050565b60007f5a05180f000000000000000000000000000000000000000000000000000000007bffffffffffffffffffffffffffffffffffffffffffffffffffffffff1916827bffffffffffffffffffffffffffffffffffffffffffffffffffffffff19161480612d165750612d1582613550565b5b9050919050565b612d2b86868686868661186f565b505050505050565b612d528473ffffffffffffffffffffffffffffffffffffffff166118cd565b15612f12578373ffffffffffffffffffffffffffffffffffffffff1663bc197c8187878686866040518663ffffffff1660e01b8152600401612d9895949392919061468d565b602060405180830381600087803b158015612db257600080fd5b505af1925050508015612de357506040513d601f19601f82011682018060405250810190612de09190614095565b60015b612e8957612def614f95565b806308c379a01415612e4c5750612e0461576c565b80612e0f5750612e4e565b806040517f08c379a0000000000000000000000000000000000000000000000000000000008152600401612e4391906147de565b60405180910390fd5b505b6040517f08c379a0000000000000000000000000000000000000000000000000000000008152600401612e8090614800565b60405180910390fd5b63bc197c8160e01b7bffffffffffffffffffffffffffffffffffffffffffffffffffffffff1916817bffffffffffffffffffffffffffffffffffffffffffffffffffffffff191614612f10576040517f08c379a0000000000000000000000000000000000000000000000000000000008152600401612f0790614840565b60405180910390fd5b505b505050505050565b612f248282610ff2565b612fb357612f498173ffffffffffffffffffffffffffffffffffffffff1660146135ca565b612f578360001c60206135ca565b604051602001612f68929190614638565b6040516020818303038152906040526040517f08c379a0000000000000000000000000000000000000000000000000000000008152600401612faa91906147de565b60405180910390fd5b5050565b612fc18282610ff2565b1561309457600080600084815260200190815260200160002060000160008373ffffffffffffffffffffffffffffffffffffffff1673ffffffffffffffffffffffffffffffffffffffff16815260200190815260200160002060006101000a81548160ff0219169083151502179055506130396119ca565b73ffffffffffffffffffffffffffffffffffffffff168173ffffffffffffffffffffffffffffffffffffffff16837ff6391f5c32d9c69d2a47ea670b442974b53935d1edc7fd64eb21e047a839171b60405160405180910390a45b5050565b600080836001016000848152602001908152602001600020549050600081146132125760006001826130ca9190614d3e565b90506000600186600001805490506130e29190614d3e565b905081811461319d576000866000018281548110613129577f4e487b7100000000000000000000000000000000000000000000000000000000600052603260045260246000fd5b9060005260206000200154905080876000018481548110613173577f4e487b7100000000000000000000000000000000000000000000000000000000600052603260045260246000fd5b90600052602060002001819055508387600101600083815260200190815260200160002081905550505b856000018054806131d7577f4e487b7100000000000000000000000000000000000000000000000000000000600052603160045260246000fd5b600190038181906000526020600020016000905590558560010160008681526020019081526020016000206000905560019350505050613218565b60009150505b92915050565b60606000600167ffffffffffffffff811115613263577f4e487b7100000000000000000000000000000000000000000000000000000000600052604160045260246000fd5b6040519080825280602002602001820160405280156132915781602001602082028036833780820191505090505b50905082816000815181106132cf577f4e487b7100000000000000000000000000000000000000000000000000000000600052603260045260246000fd5b60200260200101818152505080915050919050565b6133038473ffffffffffffffffffffffffffffffffffffffff166118cd565b156134c3578373ffffffffffffffffffffffffffffffffffffffff1663f23a6e6187878686866040518663ffffffff1660e01b81526004016133499594939291906146f5565b602060405180830381600087803b15801561336357600080fd5b505af192505050801561339457506040513d601f19601f820116820180604052508101906133919190614095565b60015b61343a576133a0614f95565b806308c379a014156133fd57506133b561576c565b806133c057506133ff565b806040517f08c379a00000000000000000000000000000000000000000000000000000000081526004016133f491906147de565b60405180910390fd5b505b6040517f08c379a000000000000000000000000000000000000000000000000000000000815260040161343190614800565b60405180910390fd5b63f23a6e6160e01b7bffffffffffffffffffffffffffffffffffffffffffffffffffffffff1916817bffffffffffffffffffffffffffffffffffffffffffffffffffffffff1916146134c1576040517f08c379a00000000000000000000000000000000000000000000000000000000081526004016134b890614840565b60405180910390fd5b505b505050505050565b6000826000018281548110613509577f4e487b7100000000000000000000000000000000000000000000000000000000600052603260045260246000fd5b9060005260206000200154905092915050565b600081600001805490509050919050565b600080836001016000848152602001908152602001600020541415905092915050565b60007f7965db0b000000000000000000000000000000000000000000000000000000007bffffffffffffffffffffffffffffffffffffffffffffffffffffffff1916827bffffffffffffffffffffffffffffffffffffffffffffffffffffffff191614806135c357506135c2826138c4565b5b9050919050565b6060600060028360026135dd9190614ce4565b6135e79190614c8e565b67ffffffffffffffff811115613626577f4e487b7100000000000000000000000000000000000000000000000000000000600052604160045260246000fd5b6040519080825280601f01601f1916602001820160405280156136585781602001600182028036833780820191505090505b5090507f3000000000000000000000000000000000000000000000000000000000000000816000815181106136b6577f4e487b7100000000000000000000000000000000000000000000000000000000600052603260045260246000fd5b60200101907effffffffffffffffffffffffffffffffffffffffffffffffffffffffffffff1916908160001a9053507f780000000000000000000000000000000000000000000000000000000000000081600181518110613740577f4e487b7100000000000000000000000000000000000000000000000000000000600052603260045260246000fd5b60200101907effffffffffffffffffffffffffffffffffffffffffffffffffffffffffffff1916908160001a905350600060018460026137809190614ce4565b61378a9190614c8e565b90505b6001811115613876577f3031323334353637383961626364656600000000000000000000000000000000600f8616601081106137f2577f4e487b7100000000000000000000000000000000000000000000000000000000600052603260045260246000fd5b1a60f81b82828151811061382f577f4e487b7100000000000000000000000000000000000000000000000000000000600052603260045260246000fd5b60200101907effffffffffffffffffffffffffffffffffffffffffffffffffffffffffffff1916908160001a905350600485901c94508061386f90614e32565b905061378d565b50600084146138ba576040517f08c379a00000000000000000000000000000000000000000000000000000000081526004016138b190614820565b60405180910390fd5b8091505092915050565b60007f01ffc9a7000000000000000000000000000000000000000000000000000000007bffffffffffffffffffffffffffffffffffffffffffffffffffffffff1916827bffffffffffffffffffffffffffffffffffffffffffffffffffffffff1916149050919050565b600061394161393c84614b89565b614b64565b9050808382526020820190508285602086028201111561396057600080fd5b60005b8581101561399057816139768882613a44565b845260208401935060208301925050600181019050613963565b5050509392505050565b60006139ad6139a884614bb5565b614b64565b905080838252602082019050828560208602820111156139cc57600080fd5b60005b858110156139fc57816139e28882613b2b565b8452602084019350602083019250506001810190506139cf565b5050509392505050565b6000613a19613a1484614be1565b614b64565b905082815260208101848484011115613a3157600080fd5b613a3c848285614df0565b509392505050565b600081359050613a5381615802565b92915050565b600082601f830112613a6a57600080fd5b8135613a7a84826020860161392e565b91505092915050565b600082601f830112613a9457600080fd5b8135613aa484826020860161399a565b91505092915050565b600081359050613abc81615819565b92915050565b600081359050613ad181615830565b92915050565b600081359050613ae681615847565b92915050565b600081519050613afb81615847565b92915050565b600082601f830112613b1257600080fd5b8135613b22848260208601613a06565b91505092915050565b600081359050613b3a8161585e565b92915050565b600060208284031215613b5257600080fd5b6000613b6084828501613a44565b91505092915050565b60008060408385031215613b7c57600080fd5b6000613b8a85828601613a44565b9250506020613b9b85828601613a44565b9150509250929050565b600080600080600060a08688031215613bbd57600080fd5b6000613bcb88828901613a44565b9550506020613bdc88828901613a44565b945050604086013567ffffffffffffffff811115613bf957600080fd5b613c0588828901613a83565b935050606086013567ffffffffffffffff811115613c2257600080fd5b613c2e88828901613a83565b925050608086013567ffffffffffffffff811115613c4b57600080fd5b613c5788828901613b01565b9150509295509295909350565b600080600080600060a08688031215613c7c57600080fd5b6000613c8a88828901613a44565b9550506020613c9b88828901613a44565b9450506040613cac88828901613b2b565b9350506060613cbd88828901613b2b565b925050608086013567ffffffffffffffff811115613cda57600080fd5b613ce688828901613b01565b9150509295509295909350565b600080600060608486031215613d0857600080fd5b6000613d1686828701613a44565b935050602084013567ffffffffffffffff811115613d3357600080fd5b613d3f86828701613a83565b925050604084013567ffffffffffffffff811115613d5c57600080fd5b613d6886828701613a83565b9150509250925092565b60008060008060808587031215613d8857600080fd5b6000613d9687828801613a44565b945050602085013567ffffffffffffffff811115613db357600080fd5b613dbf87828801613a83565b935050604085013567ffffffffffffffff811115613ddc57600080fd5b613de887828801613a83565b925050606085013567ffffffffffffffff811115613e0557600080fd5b613e1187828801613b01565b91505092959194509250565b60008060408385031215613e3057600080fd5b6000613e3e85828601613a44565b9250506020613e4f85828601613aad565b9150509250929050565b60008060408385031215613e6c57600080fd5b6000613e7a85828601613a44565b9250506020613e8b85828601613b2b565b9150509250929050565b600080600060608486031215613eaa57600080fd5b6000613eb886828701613a44565b9350506020613ec986828701613b2b565b9250506040613eda86828701613b2b565b9150509250925092565b60008060008060808587031215613efa57600080fd5b6000613f0887828801613a44565b9450506020613f1987828801613b2b565b9350506040613f2a87828801613b2b565b925050606085013567ffffffffffffffff811115613f4757600080fd5b613f5387828801613b01565b91505092959194509250565b60008060408385031215613f7257600080fd5b600083013567ffffffffffffffff811115613f8c57600080fd5b613f9885828601613a59565b925050602083013567ffffffffffffffff811115613fb557600080fd5b613fc185828601613a83565b9150509250929050565b600060208284031215613fdd57600080fd5b6000613feb84828501613ac2565b91505092915050565b6000806040838503121561400757600080fd5b600061401585828601613ac2565b925050602061402685828601613a44565b9150509250929050565b6000806040838503121561404357600080fd5b600061405185828601613ac2565b925050602061406285828601613b2b565b9150509250929050565b60006020828403121561407e57600080fd5b600061408c84828501613ad7565b91505092915050565b6000602082840312156140a757600080fd5b60006140b584828501613aec565b91505092915050565b6000602082840312156140d057600080fd5b60006140de84828501613b2b565b91505092915050565b600080604083850312156140fa57600080fd5b600061410885828601613b2b565b925050602061411985828601613a44565b9150509250929050565b600061412f838361461a565b60208301905092915050565b61414481614d72565b82525050565b600061415582614c22565b61415f8185614c50565b935061416a83614c12565b8060005b8381101561419b5781516141828882614123565b975061418d83614c43565b92505060018101905061416e565b5085935050505092915050565b6141b181614d84565b82525050565b6141c081614d90565b82525050565b60006141d182614c2d565b6141db8185614c61565b93506141eb818560208601614dff565b6141f481614fb7565b840191505092915050565b600061420a82614c38565b6142148185614c72565b9350614224818560208601614dff565b61422d81614fb7565b840191505092915050565b600061424382614c38565b61424d8185614c83565b935061425d818560208601614dff565b80840191505092915050565b6000614276603483614c72565b915061428182614fd5565b604082019050919050565b6000614299602083614c72565b91506142a482615024565b602082019050919050565b60006142bc602883614c72565b91506142c78261504d565b604082019050919050565b60006142df601483614c72565b91506142ea8261509c565b602082019050919050565b6000614302602b83614c72565b915061430d826150c5565b604082019050919050565b6000614325602483614c72565b915061433082615114565b604082019050919050565b6000614348602c83614c72565b915061435382615163565b604082019050919050565b600061436b602983614c72565b9150614376826151b2565b604082019050919050565b600061438e604983614c72565b915061439982615201565b606082019050919050565b60006143b1604083614c72565b91506143bc82615276565b604082019050919050565b60006143d4602383614c72565b91506143df826152c5565b604082019050919050565b60006143f7601083614c72565b915061440282615314565b602082019050919050565b600061441a602583614c72565b91506144258261533d565b604082019050919050565b600061443d603283614c72565b91506144488261538c565b604082019050919050565b6000614460602383614c72565b915061446b826153db565b604082019050919050565b6000614483603883614c72565b915061448e8261542a565b604082019050919050565b60006144a6602a83614c72565b91506144b182615479565b604082019050919050565b60006144c9601183614c72565b91506144d4826154c8565b602082019050919050565b60006144ec603b83614c72565b91506144f7826154f1565b604082019050919050565b600061450f603983614c72565b915061451a82615540565b604082019050919050565b6000614532601783614c83565b915061453d8261558f565b601782019050919050565b6000614555602983614c72565b9150614560826155b8565b604082019050919050565b6000614578602983614c72565b915061458382615607565b604082019050919050565b600061459b602883614c72565b91506145a682615656565b604082019050919050565b60006145be602183614c72565b91506145c9826156a5565b604082019050919050565b60006145e1601183614c83565b91506145ec826156f4565b601182019050919050565b6000614604602f83614c72565b915061460f8261571d565b604082019050919050565b61462381614de6565b82525050565b61463281614de6565b82525050565b600061464382614525565b915061464f8285614238565b915061465a826145d4565b91506146668284614238565b91508190509392505050565b6000602082019050614687600083018461413b565b92915050565b600060a0820190506146a2600083018861413b565b6146af602083018761413b565b81810360408301526146c1818661414a565b905081810360608301526146d5818561414a565b905081810360808301526146e981846141c6565b90509695505050505050565b600060a08201905061470a600083018861413b565b614717602083018761413b565b6147246040830186614629565b6147316060830185614629565b818103608083015261474381846141c6565b90509695505050505050565b60006020820190508181036000830152614769818461414a565b905092915050565b6000604082019050818103600083015261478b818561414a565b9050818103602083015261479f818461414a565b90509392505050565b60006020820190506147bd60008301846141a8565b92915050565b60006020820190506147d860008301846141b7565b92915050565b600060208201905081810360008301526147f881846141ff565b905092915050565b6000602082019050818103600083015261481981614269565b9050919050565b600060208201905081810360008301526148398161428c565b9050919050565b60006020820190508181036000830152614859816142af565b9050919050565b60006020820190508181036000830152614879816142d2565b9050919050565b60006020820190508181036000830152614899816142f5565b9050919050565b600060208201905081810360008301526148b981614318565b9050919050565b600060208201905081810360008301526148d98161433b565b9050919050565b600060208201905081810360008301526148f98161435e565b9050919050565b6000602082019050818103600083015261491981614381565b9050919050565b60006020820190508181036000830152614939816143a4565b9050919050565b60006020820190508181036000830152614959816143c7565b9050919050565b60006020820190508181036000830152614979816143ea565b9050919050565b600060208201905081810360008301526149998161440d565b9050919050565b600060208201905081810360008301526149b981614430565b9050919050565b600060208201905081810360008301526149d981614453565b9050919050565b600060208201905081810360008301526149f981614476565b9050919050565b60006020820190508181036000830152614a1981614499565b9050919050565b60006020820190508181036000830152614a39816144bc565b9050919050565b60006020820190508181036000830152614a59816144df565b9050919050565b60006020820190508181036000830152614a7981614502565b9050919050565b60006020820190508181036000830152614a9981614548565b9050919050565b60006020820190508181036000830152614ab98161456b565b9050919050565b60006020820190508181036000830152614ad98161458e565b9050919050565b60006020820190508181036000830152614af9816145b1565b9050919050565b60006020820190508181036000830152614b19816145f7565b9050919050565b6000602082019050614b356000830184614629565b92915050565b6000604082019050614b506000830185614629565b614b5d6020830184614629565b9392505050565b6000614b6e614b7f565b9050614b7a8282614e8e565b919050565b6000604051905090565b600067ffffffffffffffff821115614ba457614ba3614f66565b5b602082029050602081019050919050565b600067ffffffffffffffff821115614bd057614bcf614f66565b5b602082029050602081019050919050565b600067ffffffffffffffff821115614bfc57614bfb614f66565b5b614c0582614fb7565b9050602081019050919050565b6000819050602082019050919050565b600081519050919050565b600081519050919050565b600081519050919050565b6000602082019050919050565b600082825260208201905092915050565b600082825260208201905092915050565b600082825260208201905092915050565b600081905092915050565b6000614c9982614de6565b9150614ca483614de6565b9250827fffffffffffffffffffffffffffffffffffffffffffffffffffffffffffffffff03821115614cd957614cd8614f08565b5b828201905092915050565b6000614cef82614de6565b9150614cfa83614de6565b9250817fffffffffffffffffffffffffffffffffffffffffffffffffffffffffffffffff0483118215151615614d3357614d32614f08565b5b828202905092915050565b6000614d4982614de6565b9150614d5483614de6565b925082821015614d6757614d66614f08565b5b828203905092915050565b6000614d7d82614dc6565b9050919050565b60008115159050919050565b6000819050919050565b60007fffffffff0000000000000000000000000000000000000000000000000000000082169050919050565b600073ffffffffffffffffffffffffffffffffffffffff82169050919050565b6000819050919050565b82818337600083830152505050565b60005b83811015614e1d578082015181840152602081019050614e02565b83811115614e2c576000848401525b50505050565b6000614e3d82614de6565b91506000821415614e5157614e50614f08565b5b600182039050919050565b60006002820490506001821680614e7457607f821691505b60208210811415614e8857614e87614f37565b5b50919050565b614e9782614fb7565b810181811067ffffffffffffffff82111715614eb657614eb5614f66565b5b80604052505050565b6000614eca82614de6565b91507fffffffffffffffffffffffffffffffffffffffffffffffffffffffffffffffff821415614efd57614efc614f08565b5b600182019050919050565b7f4e487b7100000000000000000000000000000000000000000000000000000000600052601160045260246000fd5b7f4e487b7100000000000000000000000000000000000000000000000000000000600052602260045260246000fd5b7f4e487b7100000000000000000000000000000000000000000000000000000000600052604160045260246000fd5b600060033d1115614fb45760046000803e614fb1600051614fc8565b90505b90565b6000601f19601f8301169050919050565b60008160e01c9050919050565b7f455243313135353a207472616e7366657220746f206e6f6e204552433131353560008201527f526563656976657220696d706c656d656e746572000000000000000000000000602082015250565b7f537472696e67733a20686578206c656e67746820696e73756666696369656e74600082015250565b7f455243313135353a204552433131353552656365697665722072656a6563746560008201527f6420746f6b656e73000000000000000000000000000000000000000000000000602082015250565b7f5061757361626c653a206e6f7420706175736564000000000000000000000000600082015250565b7f455243313135353a2062616c616e636520717565727920666f7220746865207a60008201527f65726f2061646472657373000000000000000000000000000000000000000000602082015250565b7f455243313135353a206275726e20616d6f756e7420657863656564732062616c60008201527f616e636500000000000000000000000000000000000000000000000000000000602082015250565b7f455243313135355061757361626c653a20746f6b656e207472616e736665722060008201527f7768696c65207061757365640000000000000000000000000000000000000000602082015250565b7f455243313135353a2063616c6c6572206973206e6f74206f776e6572206e6f7260008201527f20617070726f7665640000000000000000000000000000000000000000000000602082015250565b7f455243313135353a2063616c6c657220686173206e6f74207472616e7366657260008201527f4c6f636b65642074686973206d616e792073686172657320746f20746869732060208201527f7472616e736665722e0000000000000000000000000000000000000000000000604082015250565b7f4672616b74616c20455243313135353a2063616c6c657220646f6573206e6f7460008201527f20686176652074686973206d616e7920756e6c6f636b6564207368617265732e602082015250565b7f596f7520646f6e74206861766520736f206d616e7920736861726573206c6f6360008201527f6b65640000000000000000000000000000000000000000000000000000000000602082015250565b7f5061757361626c653a2070617573656400000000000000000000000000000000600082015250565b7f455243313135353a207472616e7366657220746f20746865207a65726f20616460008201527f6472657373000000000000000000000000000000000000000000000000000000602082015250565b7f455243313135353a207472616e736665722063616c6c6572206973206e6f742060008201527f6f776e6572206e6f7220617070726f7665640000000000000000000000000000602082015250565b7f455243313135353a206275726e2066726f6d20746865207a65726f206164647260008201527f6573730000000000000000000000000000000000000000000000000000000000602082015250565b7f455243313135355072657365744d696e7465725061757365723a206d7573742060008201527f68617665206d696e74657220726f6c6520746f206d696e740000000000000000602082015250565b7f455243313135353a20696e73756666696369656e742062616c616e636520666f60008201527f72207472616e7366657200000000000000000000000000000000000000000000602082015250565b7f4e6f7420656e6f75676820736861726573000000000000000000000000000000600082015250565b7f455243313135355072657365744d696e7465725061757365723a206d7573742060008201527f686176652070617573657220726f6c6520746f20756e70617573650000000000602082015250565b7f455243313135355072657365744d696e7465725061757365723a206d7573742060008201527f686176652070617573657220726f6c6520746f20706175736500000000000000602082015250565b7f416363657373436f6e74726f6c3a206163636f756e7420000000000000000000600082015250565b7f455243313135353a2073657474696e6720617070726f76616c2073746174757360008201527f20666f722073656c660000000000000000000000000000000000000000000000602082015250565b7f455243313135353a206163636f756e747320616e6420696473206c656e67746860008201527f206d69736d617463680000000000000000000000000000000000000000000000602082015250565b7f455243313135353a2069647320616e6420616d6f756e7473206c656e6774682060008201527f6d69736d61746368000000000000000000000000000000000000000000000000602082015250565b7f455243313135353a206d696e7420746f20746865207a65726f2061646472657360008201527f7300000000000000000000000000000000000000000000000000000000000000602082015250565b7f206973206d697373696e6720726f6c6520000000000000000000000000000000600082015250565b7f416363657373436f6e74726f6c3a2063616e206f6e6c792072656e6f756e636560008201527f20726f6c657320666f722073656c660000000000000000000000000000000000602082015250565b600060443d101561577c576157ff565b615784614b7f565b60043d036004823e80513d602482011167ffffffffffffffff821117156157ac5750506157ff565b808201805167ffffffffffffffff8111156157ca57505050506157ff565b80602083010160043d0385018111156157e75750505050506157ff565b6157f682602001850186614e8e565b82955050505050505b90565b61580b81614d72565b811461581657600080fd5b50565b61582281614d84565b811461582d57600080fd5b50565b61583981614d90565b811461584457600080fd5b50565b61585081614d9a565b811461585b57600080fd5b50565b61586781614de6565b811461587257600080fd5b5056fea2646970667358221220d93a52484fa90a8425fb3126e7bbba02186d188a8c2e98a924d9efcb5302f73964736f6c63430008040033a264697066735822122036ee98a3af52fd6d6925fd56ada47383308c700e7ef1a63259e666d94fdeb1c164736f6c63430008040033",
  "linkReferences": {},
  "deployedLinkReferences": {}
}